:020000040800F2
:10000000004000204D5400086502000873020008FB
:1000100000000000000000000000000000000000E0
:100020000000000000000000000000007B0200084B
:1000300000000000000000009D5400088902000834
:100040009D5400089D5400089D5400089D540008CC
:100050009D5400089D5400089D5400089D540008BC
:100060009D5400089D5400089D5400089D540008AC
:100070009D5400089D5400089D5400089D5400089C
:100080009D5400089D5400089D5400085903000821
:100090009D5400089D5400089D54000895020008D6
:1000A0009D5400089D540008C1020008E5020008A4
:1000B0009D54000809030008E90600082D090008FE
:1000C0009D5400089D5400089D5400089D5400084C
:1000D0009D5400089D5400089D5400089D5400083C
:1000E0009D5400089D5400089D5400089D5400082C
:1000F0009D5400089D5400089D5400089D5400081C
:100100002D0300089D5400089D5400089D540008CC
:040110009D540008F2
:100118000348044B834202D0034B03B1184770478E
:100128000803002008030020000000000548064BD3
:100138001B1AD90F01EBA301491002D0034B03B1DD
:10014800184770470803002008030020000000003B
:1001580010B5064C237843B9FFF7DAFF044B13B107
:100168000448AFF300800123237010BD080300206A
:1001780000000000C055000808B5054B1BB1054933
:100188000548AFF30080BDE80840FFF7CFBF00BFC8
:10019800000000000C030020C055000880B500AF27
:1001A8000A2001F09BF80C4B1B780133DAB20A4B9A
:1001B8001A70094B1B781A46084B1B889A4208D3B9
:1001C800054B00221A70064B5B69054A83F08003D1
:1001D800536100BF80BD00BF4C0300200000002019
:1001E8000038024080B582B000AF0023FB8001F0E8
:1001F8009DF80A2002F0C0FF4FF48001124802F077
:10020800CBFF124B124A1A601248F0EE000AB0EE09
:10021800000A01F0B1F8B0EE080A01F059FBF0EE5F
:10022800407A0A4BC3ED027AB0EE080A01F0CAFA26
:10023800F0EE407A054BC3ED037A044B064A1A6187
:10024800FFF7ACFFFCE700BF0038024024030020A2
:100258000BD1E23F28030020F304B53F80B400AF80
:1002680000BFBD465DF8047B704780B400AF00BF97
:10027800FDE780B400AF00BFBD465DF8047B704762
:1002880080B500AF01F040F800BF80BD80B500AF79
:100298008021084804F06DFE0346002B07D080211A
:1002A800044804F050FE8021024804F086FE00BF96
:1002B80080BD00BF002C014080B500AF102106486A
:1002C80004F08AFE0346002B03D01021024804F0F4
:1002D80074FE00BF80BD00BF002C014080B500AF98
:1002E80001214FF0804004F077FE0346002B04D034
:1002F80001214FF0804004F060FE00BF80BD000087
:1003080080B500AF0121064804F033FE0346002BF8
:1003180003D00121024804F050FE00BF80BD00BF99
:100328000008004080B500AF0121084804F021FE14
:100338000346002B07D00121044804F03EFE4FF489
:10034800A00003F0AFF800BF80BD00BF0010004060
:1003580098B500AF042003F09DFA0346012B40F046
:10036800AD805C4803F0F1FE03461C46594803F093
:10037800FAFE03469C4226D2564803F0E6FE0346A0
:100388001C46544803F0FDFE03469C421BD2524BC8
:1003980000221A704F4803F0E6FE03461C464D48FB
:1003A80003F0EFFE03469C4206D24C4B01221A7022
:1003B8004B4B02221A7053E0484B02221A70484BEA
:1003C80001221A704CE0434803F0CDFE03461C4658
:1003D800404803F0BAFE03469C4226D23D4803F04B
:1003E800C2FE03461C463B4803F0CBFE03469C4234
:1003F8001BD23A4B00221A70364803F0A6FE034679
:100408001C46344803F0BDFE03469C4206D2324BDC
:1004180001221A70324B02221A7021E02E4B02225E
:100428001A702F4B01221A701AE02D4B00221A70F5
:10043800284803F08AFE03461C46264803F093FE2C
:1004480003469C4206D2244B01221A70234B0222F7
:100458001A7005E0204B02221A70204B01221A70F4
:100468001D4B1B78DBB20533DBB29B00DBB21846B1
:1004780003F0F6F903461A461A4B1A80174B1B78F5
:10048800DBB20533DBB29B00DBB2184603F0E8F9B8
:1004980003461A46134B5A80114B1B78DBB20533BF
:1004A800DBB29B00DBB2184603F0DAF903461A46C2
:1004B8000C4B9A80042003F02BFA08E0012003F08B
:1004C800E9F90346012B02D1012003F021FA00BF0C
:1004D80098BD00BF002C01405603002057030020A0
:1004E800580300205003002080B485B000AF786026
:1004F80007E00923FB6000BFFB685A1EFA60002B67
:10050800FAD17B685A1E7A60002BF2D100BF00BF77
:100518001437BD465DF8047B7047000080B588B08D
:1005280000AF3B1D184602F0DDFD10237B60002361
:100538003B610123BB603B1D19460F4802F08BFD50
:100548000023FB7710E010210B4802F0E8FD05209E
:10055800FFF7CAFF1021084802F0FFFD0520FFF74A
:10056800C3FFFB7F0133FB77FB7F082BEBD900BF71
:1005780000BF2037BD4680BD0034024080B500AFC3
:10058800104B1B78022B1BD80E4B1B780133DAB2A9
:100598000C4B1A704FF4001004F03AFF4FF400109F
:1005A80004F0EEFE084B1B68074A23F470431360FF
:1005B8004FF4001004F02CFFFFF7B0FF00F054F8E0
:1005C80000BF80BD730300200038024080B586B0AC
:1005D80000AF3B46184602F085FD30233B60002300
:1005E800FB6000237B603B461946194802F033FD47
:1005F800184B4FF4C8221A60154B1B6903F03003DF
:10060800302B17D1144B1B889BB2134A6FEA434314
:100618006FEA53439BB2138000BF00BF00BF00BF07
:1006280000BF0D4B1B889BB20B4AC3F30E039BB252
:10063800138009E0074B1B685A1E06490A60002B05
:10064800DAD1FFF79BFFD7E700BF1837BD4680BD5B
:1006580000340240040000200054004080B500AF80
:10066800FFF7B4FF00BF80BD80B58AB000AF19485E
:1006780001F026FB07F11003184602F033FD302382
:100688003B610123FB6112237B6108237B62012309
:10069800BB6107F1100319460F4802F0DCFC0D4856
:1006A80001F00EFB0023BB804BF6FF73FB80FF239A
:1006B8003B814FF480637B814FF48043BB81074BC0
:1006C8003B603B461946034801F012FB00BF283740
:1006D800BD4680BD0054004000340240801A060028
:1006E80090B583B000AF7C4801F0F8FC78607B6877
:1006F8007A4A934200F0AB807B68784A934200F2D2
:10070800E7807B68764A93427BD07B68744A934241
:1007180000F2DE807B68734A934200F090807B6829
:10072800704A934200F2D4807B686F4A93423FD06C
:100738007B686D4A934200F2CB807B686B4A934298
:1007480003D07B686A4A9342C2E06A4B1B7883F005
:100758000103DBB2002B02D0674B02221A70674BF1
:100768001B78012B1BD1664B1B7883F00103DBB28E
:10077800002B08D0634B1B88DBB200221946564871
:1007880001F08EFCA4E05F4B1B88DBB20122194606
:10079800514801F085FC5A4B00221A7098E0594BD9
:1007A8001B88DBB2002219464B4801F079FC8FE028
:1007B800554B1C68484801F065FC03462370524BB2
:1007C8001B680133504A1360504B1B88013B9AB297
:1007D8004E4B1A804D4B1B88012B05D13E4801F02A
:1007E80019FC3D4801F004FC484B1B88002B6AD1DA
:1007F8004FF4E061384801F01FFC3F4B00221A70AB
:1008080061E03C4B1B78002B0ED03A4B00221A704B
:100818004FF4E061304801F00FFC2F4801F0E8FB8D
:10082800354B00221A7053E0394B1B88DBB219464E
:10083800294801F017FC324B01221A7048E02F4B6F
:100848001B78012B41D1244801F0C0FB3DE02B4B24
:100858001B78002B3BD12F4B1B88002B1FD11E4828
:1008680001F0C6FB2C4B4FF4C8221A6008E02A4B53
:100878001B685A1E28490A60002B01D1FFF7EEFEBB
:100888004FF40031144801F047FC0346002BEED129
:10089800184B01221A70104801F098FB17E01F4B03
:1008A8001B885A1C91B21D4A11801A461C4B9B5C2E
:1008B8001946094801F0D6FB164B1B88013B9AB232
:1008C800144B1A8003E000BF02E000BF00E000BF45
:1008D80000BF0C37BD4690BD00540040840007009F
:1008E80082000700800007004000030001000300A9
:1008F8000200030059030020720300205B0300205C
:100908005A0300205C0300206003002070030020CD
:100918005E0300206E030020040000206C0300200A
:100928006403002080B500AF1C491D4801F0F4FBAA
:100938000346002B18D01B4B1B78002B03D01848FC
:1009480001F044FB0CE0164B1B8B9BB203F0010338
:10095800002B05D0124801F04BFB134B03221A70F1
:100968000E490F4801F006FC10490D4801F0D4FB70
:100978000346002B10D00A4B1B8B9BB203F00103DC
:10098800002B05D0064801F033FB074B03221A70F1
:100998000649034801F0EEFB00BF80BD00040010CB
:1009A8000054004059030020720300200001001089
:1009B80080B58CB000AF164801F0F4FB154B7B6096
:1009C800154BBB600023FB6001233B6100237B6167
:1009D8008023BB614FF48073FB614FF480633B62FB
:1009E80020237B624FF40053BB620023FB623B1D54
:1009F8001946074801F05CFC0021054801F0C0FDDC
:100A0800034801F0ADFD00BF3037BD4680BD00BFD3
:100A1800080002404C0802407403002080B586B0EC
:100A280000AF02F013FC01233B7200237B724FF4EA
:100A38006023FB6000233B6100237B6107F108030F
:100A4800184602F093FC0021022002F0FBFD02216F
:100A5800022002F093FD4FF4001002F0E9FE02219B
:100A6800012002F08BFD0321012002F0B7FE0221D4
:100A7800012002F0B3FE0121012002F0AFFE0020A8
:100A880002F094FE02F082FE4FF4805002F03CFD2A
:100A980002F09EFC00BF20224021022002F010FF3D
:100AA8000346002BF7D0012002F0CEFC00BF022045
:100AB80002F0CAFC0346002BF9D113233B71002333
:100AC8007B710023BB710123FB713B1D184601F0AC
:100AD80079FD802002F09CFC02F08AFC4FF4801023
:100AE80002F01AFE4FF4004002F016FEFFF760FF16
:100AF80000BF1837BD4680BD80B592B000AF034631
:100B0800FB710023A7F84630A74B1B68A74AA2FB36
:100B180003239B0AA7F84630A54802F049FF07F1CE
:100B28003403184603F01EF90323BB862023FB86F3
:100B3800B7F846303B874FF400737B87002387F86C
:100B48003C3007F134031946994803F08FF84FF009
:100B5800804002F02DFF0023BB860023FB86B7F8F8
:100B680046305B009BB2013B9BB23B8707F13403E5
:100B780019464FF0804003F079F87023BB840023B6
:100B8800FB8400233B85B7F846305B089BB27B8526
:100B98000023BB850023FB8500233B8600237B863F
:100BA800FB79012B0BD1834B01221A700023BB85E3
:100BB8000023FB8500233B8600237B860CE07D4BCE
:100BC80000221A700223BB850823FB854FF480732B
:100BD8003B864FF480737B8607F1240319467448DB
:100BE80003F0E0FE07F124031946714803F052FFB1
:100BF80007F1240319466E4803F0C6FF07F12403E2
:100C080019466B4804F038F80821694803F0E6F8FB
:100C18000821674803F0FEF80821654803F018F931
:100C28000821634803F030F9B7F846305B089BB2F7
:100C3800143B9BB219465E4803F06DFAB7F846308C
:100C48005B089BB219465A4803F0E7F9B7F84630F3
:100C58005B089BB21946564803F0EFF9B7F84630DF
:100C68005B089BB21946524803F0F7F9082150482F
:100C780003F028F908214E4803F043F908214C48AD
:100C880003F05EF94A4803F058FD494803F065FD52
:100C9800474803F072FD0021454803F034FD002168
:100CA800434802F0EEFE4FF400633B824FF480634A
:100CB8007B820023BB823F23FB824FF480533B831C
:100CC8004FF400537B830023BB830023BB7707F1DA
:100CD80010031946364804F0D9F80123FB8407F1BC
:100CE800240319464FF0804003F05CFE08214FF0C2
:100CF800804003F073F82E4802F0DEFE10212C48E5
:100D080003F001FD40212A4803F049FA062128484A
:100D180003F0C1FC8021264803F0D9FC00214FF0E4
:100D2800804003F03CFA06214FF0804003F0B3FC0A
:100D38001F4803F043F810211D4804F0F0F8012182
:100D48004FF0804004F0EBF81A233B7300237B73C9
:100D58000123BB730123FB7307F10C03184601F051
:100D680031FC17233B7300237B730123BB730123DF
:100D7800FB7307F10C03184601F024FC1B233B739B
:100D880000237B730123BB730123FB7307F10C035F
:100D9800184601F017FC0021054803F0B4FC00BF19
:100DA8004837BD4680BD00BF08000020F119760510
:100DB800002C01407803002080B58CB000AF07F10B
:100DC8001403184604F0CCF9BA69FB699A4203D9AE
:100DD800FB695B00FB6201E0FB69FB623B1D184697
:100DE80002F0C0FFFB6A5B09164AA2FB0323DB097A
:100DF8009BB2013B9BB23B816323BB8000237B8179
:100E08000023FB803B1D19460F4802F02FFF0121EC
:100E18000D4802F07FFE01210B4804F080F83023D2
:100E28003B7000237B700123BB700123FB703B46A2
:100E3800184601F0C7FB044802F0C0FF00BF303776
:100E4800BD4680BDC55A7C0A0010004080B5A0B0E0
:100E580000AF07F16403184602F044F940237B66AB
:100E68000023BB6602237B670323BB6707F1640388
:100E78001946464802F0EFF83B1D184604F070F991
:100E8800BA68FB689A4203D9FB685B00FB6701E01C
:100E9800FB68FB67FB6F3E4AA2FB03239B099AB2E0
:100EA8003C4B1A803C4801F07DF907F11C031846B9
:100EB80001F02BFB394BFB61394B3B6200237B6212
:100EC8000223BB620023FB6280233B634FF4007361
:100ED8007B634FF40063BB630023FB634FF48053D1
:100EE8003B6400237B6407F11C0319462A4801F080
:100EF800DFF92221284801F043FB274801F030FBA5
:100F080007F14803184602F02DFF224B1B88013BCE
:100F18009BB2A7F84C3042F20F73A7F84830002371
:100F2800A7F84E300023A7F84A3007F148031946BE
:100F38001C4802F09BFE01211A4802F0EBFD07F164
:100F48005803184603F029FC0023A7F8583000235B
:100F5800A7F85A300123A7F85C300023A7F85E30C1
:100F68000023A7F8603007F1580319460D4803F02D
:100F78002AFC0C4802F022FF4FF40071094804F0E3
:100F88003FF800BF8037BD4680BD00BF0038024033
:100F9800D34D62107A0300201C0002403408004040
:100FA8007C0300200008004080B483B000AF0346F3
:100FB8003960FB7197F90730002B0ADB3B68DAB21E
:100FC8000C4997F907301201D2B20B4483F8002379
:100FD8000AE03B68DAB20849FB7903F00F03043BE7
:100FE8001201D2B20B441A7600BF0C37BD465DF829
:100FF800047B704700E100E000ED00E080B582B0BE
:1010080000AF78607B68013BB3F1807F01D3012397
:101018000FE00A4A7B68013B53600F214FF0FF3015
:10102800FFF7C2FF054B00229A60044B07221A60A3
:10103800002318460837BD4680BD00BF10E000E019
:1010480080B500AF4FF4806001F0A8FA4FF4C0609B
:1010580003F0EAFF4FF4006004F06EF9012004F099
:101068007DF9042004F07AF9102004F077F90120C2
:1010780004F050F94FF4C07004F04CF9012004F06A
:101088005BF94FF4805004F045F90221002002F08A
:1010980073FC4FF46051002003F0E2FFC02004F01D
:1010A8005DF94FF4001004F059F900BF80BD80B518
:1010B8008CB002AF002301930023009301233D224B
:1010C8000021002001F018FE3B1D184601F0DEFA51
:1010D8001E2387F82030142387F821300123BB848E
:1010E800012387F8223020237B610023BB613B1D4D
:1010F8001946012001F044FE4FF40071012001F06F
:101108005FFD012001F09CFD00BF2837BD4680BD72
:1011180080B586B000AF4FF4806004F0FBF83B4622
:10112800184601F0DFFF48F204033B6000233B61EF
:1011380001237B603B461946154801F08CFFB0231C
:101148003B6000233B6101237B603B461946114805
:1011580001F081FF4FF440433B6000233B610123D2
:101168007B603B4619460C4801F075FF48F20401C4
:10117800074801F0E3FFB021064801F0DFFF4FF414
:101188004041054801F0DAFF00BF1837BD4680BD71
:1011980000340240003802400040024080B586B06A
:1011A80000AF3B46184601F09DFF02233B61012337
:1011B8007B6040233B603B4619463D4801F04BFFAE
:1011C80080233B603B4619463A4801F044FF3023F0
:1011D8003B600123FB6012237B6008237B610123B2
:1011E800BB603B461946324801F035FF3B4618467E
:1011F80001F078FF02233B6102237B6003237B61BC
:101208004FF4E0633B603B461946294801F023FF51
:1012180006237B6180233B603B461946244801F046
:101228001AFF06237B6103233B603B46194621488E
:1012380001F011FF00237B600223BB6009237B615F
:101248004FF400633B603B461946194801F003FF21
:101258003B46184601F046FF03237B6007233B60AB
:101268003B461946124801F0F6FE3B46184601F087
:1012780039FF02233B6103237B6008233B603B4625
:1012880019460B4801F0E7FE02237B604FF48053B8
:101298003B6008237B613B461946054801F0DBFEAD
:1012A800FFF705FFFFF734FF00BF1837BD4680BDC5
:1012B800003402400038024080B582B000AF786048
:1012C800054B1A687B68B2FBF3F31846FFF796FEE6
:1012D80000BF0837BD4680BD0800002080B483B039
:1012E80000AF78607B68074A136000BF054B1B6836
:1012F800002BFBD100BF00BF0C37BD465DF8047B57
:10130800704700BF8803002080B400AF064B1B68FD
:10131800002B04D0044B1B68013B034A136000BF39
:10132800BD465DF8047B70478803002080B500AF98
:10133800FFF786FE72B600BF4FF47A70FFF7BCFF66
:10134800FFF72CFF0120FFF7D7FBFFF735FDFFF76D
:101358007DFDFFF763FB62B600BF012004F03CF996
:1013680040F2E24240F2E24140F2E24004F030F959
:10137800FFF77AF900BF80BD80B4A1B000AF87ED58
:10138800030AC7ED020A7860D7ED027AF5EEC07A53
:10139800F1EE10FA40F38E80D7ED036A97ED027AEA
:1013A800C6EE877AC7ED1F7A0023BB674FF00003AC
:1013B8007B67D7ED1F7AF5EEC07AF1EE10FA07D504
:1013C8000123BB67D7ED1F7AF1EE677AC7ED1F7A65
:1013D800D7ED1F7AB7EE007AF4EEC77AF1EE10FA7D
:1013E80031DDF7EE006A97ED1F7AC6EE877AC7ED12
:1013F8001F7AFB6F3B67B54BFB660123BB66012376
:10140800BB6614E097ED1C7AD7ED1B7A27EE277A96
:10141800BB6EC3F10903AE4A9B001344D3ED007AB7
:1014280077EE277AC7ED1B7ABB6E0133BB66BB6EBE
:10143800092BE7DDD7ED1B7A9FEDA67A77EE677A61
:10144800C7ED1D7A28E0FB6F7B66A04B3B66012346
:10145800FB650123FB6514E097ED197AD7ED187A3F
:1014680027EE277AFB6DC3F10903994A9B001344C1
:10147800D3ED007A77EE277AC7ED187AFB6D013342
:10148800FB65FB6D092BE7DDD7ED187A97ED1D7A23
:1014980077EE277AC7ED1D7ABB6F002B05D0D7ED05
:1014A8001D7AF1EE677AC7ED1D7A7A6F7B681A604C
:1014B800002375E1D7ED027AF5EEC07AF1EE10FA65
:1014C80040F14D81D7ED037AF5EEC07AF1EE10FACE
:1014D80040F39380D7ED036A97ED027AC6EE877AD8
:1014E800C7ED167A00237B654FF000033B65D7ED07
:1014F800167AF5EEC07AF1EE10FA07D501237B656E
:10150800D7ED167AF1EE677AC7ED167AD7ED167A27
:10151800B7EE007AF4EEC77AF1EE10FA31DDF7EEA5
:10152800006A97ED167AC6EE877AC7ED167ABB6D14
:10153800FB64664BBB6401237B6401237B6414E07A
:1015480097ED137AD7ED127A27EE277A7B6CC3F1E1
:1015580009035F4A9B001344D3ED007A77EE277A9C
:10156800C7ED127A7B6C01337B647B6C092BE7DD5A
:10157800D7ED127A9FED577A77EE677AC7ED147A2E
:1015880028E0BB6D3B64514BFB630123BB63012324
:10159800BB6314E097ED107AD7ED0F7A27EE277A20
:1015A800BB6BC3F109034A4A9B001344D3ED007A8D
:1015B80077EE277AC7ED0F7ABB6B0133BB63BB6B42
:1015C800092BE7DDD7ED0F7A97ED147A77EE277AB6
:1015D800C7ED147A7B6D002B05D0D7ED147AF1EEA8
:1015E800677AC7ED147AD7ED147A9FED3B7A77EED8
:1015F800877A7B68C3ED007AAFE0D7ED037AF5EE22
:10160800C07AF1EE10FA40F19C80D7ED036A97EDAD
:10161800027AC6EE877AC7ED0D7A00233B634FF056
:101628000003FB62D7ED0D7AF5EEC07AF1EE10FA01
:1016380007D501233B63D7ED0D7AF1EE677AC7ED45
:101648000D7AD7ED0D7AB7EE007AF4EEC77AF1EE9F
:1016580010FA31DDF7EE006A97ED0D7AC6EE877A5B
:10166800C7ED0D7A7B6BBB62184B7B6201233B6233
:1016780001233B6214E097ED0A7AD7ED097A27EE49
:10168800277A3B6AC3F10903114A9B001344D3ED3F
:10169800007A77EE277AC7ED097A3B6A01333B6215
:1016A8003B6A092BE7DDD7ED097A9FED0A7A77EED9
:1016B800677AC7ED0B7A31E07B6BFB61034BBB614B
:1016C80001237B6101237B611DE000BFA59204BD5E
:1016D800E8550008DB0FC93FDB0F494097ED077A53
:1016E800D7ED067A27EE277A7B69C3F109032F4ADB
:1016F8009B001344D3ED007A77EE277AC7ED067A7C
:101708007B6901337B617B69092BE7DDD7ED067ABD
:1017180097ED0B7A77EE277AC7ED0B7A3B6B002BA8
:1017280005D0D7ED0B7AF1EE677AC7ED0B7AD7EDD6
:101738000B7A9FED1F7A77EEC77A7B68C3ED007A44
:101748000BE0FB6803F00043002B03D07B68194AC9
:101758001A6002E07B68184A1A60002320E0D7ED7F
:10176800027AF5EE407AF1EE10FA17D1D7ED037A46
:10177800F5EEC07AF1EE10FA04DD7B680F4A1A60C4
:1017880000230DE0D7ED037AF5EEC07AF1EE10FAFA
:1017980004D57B680A4A1A60002301E06FF003034E
:1017A80018468437BD465DF8047B7047E855000845
:1017B800DB0F4940DB0F49C0DB0F4940DB0FC93F56
:1017C800DB0FC9BF80B48BB000AF87ED010AD7ED3E
:1017D800017A9FED3C7A67EE877AB5EE007A77EE6C
:1017E800877AC7ED067AD7ED067AFDEEE77A17EE27
:1017F800903A3B62D7ED067AF5EEC07AF1EE10FA30
:1018080002D53B6A013B3B623B6A07EE903AF8EE31
:10181800E77A97ED067A77EE677AC7ED067AD7ED1D
:10182800067A9FED297A67EE877AC7ED077AD7EDB2
:10183800077AFCEEE77A17EE903AFB84FB8CB3F557
:10184800007F09D30023FB84D7ED077A9FED1E7A2A
:1018580077EEC77AC7ED077AFB8C07EE903AF8EE79
:10186800677A97ED077A77EE677AC7ED057AFB8C8A
:10187800164A9B0013441B683B61FB8C0133134AD7
:101888009B0013441B68FB60B7EE007AD7ED057A1E
:1018980037EE677AD7ED047A27EE277AD7ED056A0F
:1018A800D7ED037A66EEA77A77EE277AC7ED027A44
:1018B800BB6807EE903AB0EE670A2C37BD465DF874
:1018C800047B704783F9223E00000044105600084C
:1018D80080B48BB000AF87ED010AD7ED017A9FED98
:1018E8003A7A67EE877AC7ED067AD7ED067AFDEE83
:1018F800E77A17EE903A3B62D7ED067AF5EEC07AB2
:10190800F1EE10FA02D53B6A013B3B623B6A07EEF7
:10191800903AF8EEE77A97ED067A77EE677AC7EDB0
:10192800067AD7ED067A9FED297A67EE877AC7EDB2
:10193800077AD7ED077AFCEEE77A17EE903AFB8440
:10194800FB8CB3F5007F09D30023FB84D7ED077A1E
:101958009FED1E7A77EEC77AC7ED077AFB8C07EE04
:10196800903AF8EE677A97ED077A77EE677AC7EDDF
:10197800057AFB8C164A9B0013441B683B61FB8C61
:101988000133134A9B0013441B68FB60B7EE007ACF
:10199800D7ED057A37EE677AD7ED047A27EE277AFE
:1019A800D7ED056AD7ED037A66EEA77A77EE277A40
:1019B800C7ED027ABB6807EE903AB0EE670A2C379B
:1019C800BD465DF8047B704783F9223E0000004461
:1019D8001056000880B586B000AF244B7B61002309
:1019E8003B6000233B61224B1B68214A23F08003A4
:1019F80013601F4B1B681E4A43F0400313603A46AE
:101A08007B6911461B4898473B68DBB2052B23D8F6
:101A18003A467B691146184898473B681B0EFB609D
:101A28003B681B0A03F47F43BB603B681B0203F45B
:101A38007F037B60FA68BB681A437B6813433B608B
:101A48000E4B5B6803F07F433B613B683A69134385
:101A58003B610A4A3B695360054B1B68044A43F0E3
:101A68008003136000BF1837BD4680BDA502FF1F65
:101A78000020024020F0FF1F30F2FF1F0018004036
:101A880080B500AF2B4BD3F888302A4A43F4700353
:101A9800C2F88830284B1B68274A43F001031360BB
:101AA800254B5A682449254B13404B60224B1B6831
:101AB800214A23F0847323F4803313601E4B1B6880
:101AC8001D4A23F4802313601B4B5B681A4A23F0DA
:101AD800036323F470235360174B4FF46052DA62A8
:101AE800154B1B6C144A43F001031364124B144A40
:101AF8009A60114BDB69104A43F08053D3610E4B57
:101B0800DB690D4A23F08053D3610E4B1B680D4AE5
:101B180043F0800313600B4B1B680A4A23F0100341
:101B2800136000F011F8034B4FF000629A6000BF99
:101B380080BD00BF00ED00E0001002400CC07FF83F
:101B480000009F040020024080B586B000AF00234B
:101B5800FB600023FB7200237B600023FB75534B63
:101B68001B68524A43F480331360504B1B6803F4DC
:101B78000033002B14BF01230023DBB2FB727B6808
:101B880001337B60FB7ADBB283F00103DBB2002B0D
:101B980003D07B68B3F5005FE7D1444B1B6803F4BF
:101BA8000033002B14BF01230023DBB2FB72FB7A46
:101BB800DBB283F00103DBB2002B03D03C4B3D4A80
:101BC8001A606FE03C4B1B683B4A23F00703136025
:101BD8003A4B1B68FB75FB7D122B06D8364B1B68EE
:101BE800354A43F00303136005E0334B1B68324A60
:101BF80043F0030313602D4B2C4A5B6853602B4B57
:101C08005B682A4A43F400535360284B5B68274AB1
:101C180043F4A0635360FFF7DDFE244B5B68234A5F
:101C280023F0036323F470235360204B1B6C1F4A7B
:101C380023F0010313641D4B5B683B613B6943F46C
:101C480080333B613B6943F400333B613B6943F0BC
:101C5800036343F440233B61144A3B695360134ACE
:101C6800FB681364114B1B68104A43F080731360C0
:101C780000BF0E4B1B6803F00073002BF9D00B4B11
:101C88005B680A4A23F003035360084B5B68074A02
:101C980043F00203536000BF044B5B6803F00C037E
:101CA800082BF9D11837BD4680BD00BF001002408F
:101CB8000800002000127A0000200240002004E002
:101CC80080B582B000AF78607B68084A934204D13F
:101CD8004FF4001003F09CFB03E04FF4800003F086
:101CE80097FB00BF0837BD4680BD00BF00540040C9
:101CF80080B582B000AF786039603B6819683B688E
:101D0800DB881A46786800F01DF83B689B881946FE
:101D1800786800F0E9F83B685B891946786800F054
:101D2800FFF83B689B891946786800F015F93B680D
:101D38001B891946786800F02BF900BF0837BD46A3
:101D480080BD000080B58EB000AFF860B960134662
:101D5800FB800023FB860023BB8604237B865D4B28
:101D6800BB620023FB6207F11003184603F0F8F981
:101D7800FB689B88FB86FB8E23F03F03FB86BB69D1
:101D8800BB62BB6A544AA2FB03239B0CBB86BB8E77
:101D9800202B01D92023BB86FA8EBB8E1343FB86EA
:101DA800FB68FA8E9A80FB681B889BB223F00103BC
:101DB8009AB2FB681A80FB681B6AFB62FB6A23F015
:101DC8003F03FB620023FB86BB68444A934216D854
:101DD800BB685B00BA6AB2FBF3F37B867B8E032B8E
:101DE80001D804237B86FA8E7B8E1343FB86BB8E39
:101DF800013303F03F03FA6A1343FB6257E0FB88A1
:101E0800B3F5804F08D0BA6813465B001344BA6A2A
:101E1800B2FBF3F37B860DE0BA6813469B001344CC
:101E28009A001344BA6AB2FBF3F37B867B8E43F4C1
:101E380080437B867B8EC3F30B03002B03DC7B8EF6
:101E480043F001037B867A8EFB8E13439BB26FEAC5
:101E580043436FEA5343FB86BB68214A934213D836
:101E6800BB8E4FF4967202FB03F31E4A82FB0312E9
:101E78009211DB17D31A9BB201339BB203F03F03D5
:101E8800FA6A1343FB6212E0BA8E13461B019B1ACF
:101E9800DB00144A82FB03129211DB17D31A9BB2A0
:101EA80001339BB203F03F03FA6A1343FB62FB68FA
:101EB800FA6A1A62FB68FA8E9A83FB681B889BB2DF
:101EC80043F001039AB2FB681A8000BF3837BD4659
:101ED80080BD00BF00127A0083DE1B43A08601008C
:101EE800801A0600D34D621080B485B000AF7860C8
:101EF8000B467B800023FB817B681B88FB81FB8969
:101F080023F00A03FB81FA897B881343FB817B68F2
:101F1800FA891A8000BF1437BD465DF8047B704704
:101F280080B485B000AF78600B467B800023FB81CE
:101F38007B681B88FB81FB8923F48063FB81FA891A
:101F48007B881343FB817B68FA891A8000BF1437AA
:101F5800BD465DF8047B704780B485B000AF7860FB
:101F68000B467B800023FB817B681B89FB81FB89F7
:101F7800C3F30E03FB81FA897B881343FB817B68DB
:101F8800FA891A8100BF1437BD465DF8047B704793
:101F980080B485B000AF78600B467B800023FB815E
:101FA8007B681B89FB81FB8923F47F7323F0030380
:101FB800FB81FA897B881343FB817B68FA891A8144
:101FC80000BF1437BD465DF8047B704780B483B00A
:101FD80000AF78607B681B889BB243F480739AB229
:101FE8007B681A8000BF0C37BD465DF8047B7047DC
:101FF80080B483B000AF78607B681B889BB243F4E1
:1020080000739AB27B681A8000BF0C37BD465DF832
:10201800047B704780B483B000AF78607B681B880E
:102028009BB223F480639AB27B681A8000BF0C3796
:10203800BD465DF8047B704780B483B000AF78601C
:102048000B467B807B689B889AB27B88DB439BB27C
:1020580013409AB27B689A8000BF0C37BD465DF882
:10206800047B704780B483B000AF78600B46FB7088
:10207800FB789AB27B681A8200BF0C37BD465DF8C0
:10208800047B704780B483B000AF78607B681B8A9C
:102098009BB2DBB218460C37BD465DF8047B70472F
:1020A80080B483B000AF78600B46FB701346BB70FA
:1020B800BB78012B04D1FB7843F00103FB7003E0EC
:1020C800FB7823F00103FB70FB789AB27B681A82D5
:1020D80000BF0C37BD465DF8047B704780B485B0FF
:1020E80000AF78600023FB600023BB607B689B8A9D
:1020F8009BB2FB607B681B8B9BB2BB60BB681B04FD
:10210800BB60FA68BB68134323F07F431846143753
:10211800BD465DF8047B704780B485B000AF786039
:1021280039600023FB600023BB607B68FB603B6871
:102138001B0FBB603B6823F07F433B60BB68002BF1
:1021480006D13B681B0C3B60FB681833FB6002E060
:10215800FB681433FB60FB681A683B681340002B6C
:1021680001D1002300E0012318461437BD465DF86D
:10217800047B704780B485B000AF78603960002375
:10218800FB603B6823F07F43FB60FB689BB2DB434B
:102198009AB27B689A8200BF1437BD465DF8047B0B
:1021A8007047000080B483B000AF78607B681B681C
:1021B80023F001027B681A607B6800221A607B6842
:1021C80000225A607B6800229A607B680022DA60ED
:1021D8007B682E4A934206D12D4B5B682C4A43F00C
:1021E8000F0353604BE07B682A4A934206D1284B81
:1021F8005B68274A43F0F003536040E07B68264A57
:10220800934206D1224B5B68214A43F470635360C2
:1022180035E07B68214A934206D11D4B5B681C4A16
:1022280043F4704353602AE07B681D4A934206D109
:10223800174B5B68164A43F4702353601FE07B68B2
:10224800184A934206D1124B5B68114A43F4700353
:10225800536014E07B68144A934206D10C4B5B68C8
:102268000B4A43F07063536009E07B680F4A93425E
:1022780005D1074B5B68064A43F07043536000BFC3
:102288000C37BD465DF8047B704700BF080002406C
:10229800000002401C00024030000240440002409E
:1022A800580002406C000240800002409400024046
:1022B80080B582B000AF786039603B681B6819460A
:1022C800786800F040F83B685B681946786800F069
:1022D80048F83B689B681946786800F050F83B68F6
:1022E800DB681946786800F061F83B681B69194695
:1022F800786800F069F83B685B691946786800F00F
:102308007AF83B689B691946786800F08BF83B6857
:10231800DB691946786800F09CF83B681B6A194627
:10232800786800F0ADF83B685B6A1946786800F099
:10233800BEF83B689B6A1946786800F0CFF800BF82
:102348000837BD4680BD80B483B000AF786039607F
:102358007B683A689A6000BF0C37BD465DF8047B1D
:10236800704780B483B000AF786039607B683A68A2
:10237800DA6000BF0C37BD465DF8047B704780B457
:1023880083B000AF786039607B681B6823F0100267
:102398007B681A607B681A683B681A437B681A6016
:1023A80000BF0C37BD465DF8047B704780B483B02E
:1023B80000AF786039607B683A685A6000BF0C37B4
:1023C800BD465DF8047B704780B483B000AF786089
:1023D80039607B681B6823F040027B681A607B6861
:1023E8001A683B681A437B681A6000BF0C37BD4601
:1023F8005DF8047B704780B483B000AF78603960C3
:102408007B681B6823F080027B681A607B681A6807
:102418003B681A437B681A6000BF0C37BD465DF8FD
:10242800047B704780B483B000AF786039607B6804
:102438001B6823F440727B681A607B681A683B68E3
:102448001A437B681A6000BF0C37BD465DF8047BF1
:10245800704780B483B000AF786039607B681B68D0
:1024680023F440627B681A607B681A683B681A43E9
:102478007B681A6000BF0C37BD465DF8047B704767
:1024880080B483B000AF786039607B681B6823F044
:1024980020027B681A607B681A683B681A437B686D
:1024A8001A6000BF0C37BD465DF8047B704780B4E6
:1024B80083B000AF786039607B681B6823F44052B2
:1024C8007B681A607B681A683B681A437B681A60E5
:1024D80000BF0C37BD465DF8047B704780B483B0FD
:1024E80000AF786039607B681B6823F480427B68A2
:1024F8001A607B681A683B681A437B681A6000BFD9
:102508000C37BD465DF8047B704780B483B000AFDC
:1025180078607B6800221A607B6800225A607B68BA
:1025280000229A607B680022DA607B6800221A61C8
:102538007B6800225A617B6800229A617B680022CE
:10254800DA617B6800221A627B6800225A627B6823
:1025580000229A6200BF0C37BD465DF8047B7047C5
:1025680080B483B000AF78607B681B6843F00102D9
:102578007B681A6000BF0C37BD465DF8047B704766
:1025880080B483B000AF786039607B683A681A61BC
:1025980000BF0C37BD465DF8047B704780B483B03C
:1025A80000AF7860064A7B6843F0BF6343F40033AA
:1025B800D36000BF0C37BD465DF8047B704700BF91
:1025C80000ED00E080B487B000AF786000237B6145
:1025D80000233B610F23FB607B68DB78002B3AD03C
:1025E800284BDB68DB431B0A03F007037B617B692D
:1025F800C3F104033B61FA687B6922FA03F3FB60C9
:102608007B685B781A463B6902FA03F37B617B6857
:102618009B781A46FB6813407A6913437B617B6990
:102628001B017B61184A7B681B787969C9B213441E
:102638000A4683F800237B681B7803F01F031249BE
:102648007A6812785209D2B21046012202FA03F3CC
:1026580041F820300FE07B681B7803F01F030A491C
:102668007A6812785209D2B2104601229A4000F1D3
:10267800200341F8232000BF1C37BD465DF8047BCA
:10268800704700BF00ED00E000E100E080B483B0D7
:1026980000AF78607B6800221A607B6800225A606D
:1026A8007B6800229A607B680022DA607B680022DF
:1026B8001A617B6800225A617B6800229A777B68DE
:1026C80000221A847B6800221A777B6800225A77D6
:1026D8007B6800229A6100BF0C37BD465DF8047B19
:1026E8007047000080B483B000AF03460A46FB7110
:1026F8001346BB71FB79022B24D0022B31DC002B53
:1027080002D0012B0FD02CE0194B5A6918494FF60B
:102718003F0313404B61164B5A69BB799B0114491F
:1027280013434B611EE0124B5A6A11494FF63F039F
:1027380013404B620E4B5A6ABB799B010C491343F9
:102748004B620FE00A4B5A6B09494FF63F0313409F
:102758004B63074B5A6BBB799B01054913434B638A
:1027680000E000BF00BF0C37BD465DF8047B704732
:102778000024004080B483B000AF03460A46FB71D2
:102788001346BB71FB79022B24D0022B31DC002BC2
:1027980002D0012B0FD02CE0194B5A6918494FF67B
:1027A800C17313404B61164B5A69BB795B001449DE
:1027B80013434B611EE0124B5A6A11494FF6C1731D
:1027C80013404B620E4B5A6ABB795B000C491343AA
:1027D8004B620FE00A4B5A6B09494FF6C17313401D
:1027E8004B63074B5A6BBB795B00054913434B633B
:1027F80000E000BF00BF0C37BD465DF8047B7047A2
:102808000024004080B483B000AF0346FB71FB791D
:10281800022B14D0022B19DC002B02D0012B07D07D
:1028280014E00E4B5B690D4A43F0010353610EE05F
:102838000A4B5B6A094A43F00103536207E0074BFE
:102848005B6B064A43F00103536300E000BF00BF1F
:102858000C37BD465DF8047B704700BF002400407C
:1028680080B483B000AF0346FB71FB79022B16D00E
:10287800022B1CDC002B02D0012B08D017E00F4BD9
:102888005A690E494FF6FE7313404B6110E00B4B2B
:102898005A6A0A494FF6FE7313404B6208E0074B29
:1028A8005A6B06494FF6FE7313404B6300E000BFB6
:1028B80000BF0C37BD465DF8047B7047002400401C
:1028C80080B483B000AF03460A46FB711346BB8051
:1028D800FB79022B1ED0022B28DC002B02D0012B07
:1028E8000CD023E0154B9B69144B00229A61134BC3
:1028F8009A69BB88114913438B6118E00F4B9B6A97
:102908000E4B00229A620D4B9A6ABB880B491343FF
:102918008B620CE0094B9B6B084B00229A63074BB8
:102928009A6BBB88054913438B6300E000BF00BF67
:102938000C37BD465DF8047B704700BF002400409B
:1029480080B483B000AF03463960FB71FB79022B7A
:1029580020D0022B2BDC002B02D0012B0DD026E03F
:10296800164B1B69154A23F4E0231361134B1A69AC
:1029780012493B6813430B611AE0104B1B6A0F4A5C
:1029880023F4E02313620D4B1A6A0C493B68134386
:102998000B620DE0094B1B6B084A23F4E023136319
:1029A800064B1A6B05493B6813430B6300E000BFF5
:1029B80000BF0C37BD465DF8047B7047002400401B
:1029C80080B483B000AF03463960FB71FB79022BFA
:1029D80020D0022B2BDC002B02D0012B0DD026E0BF
:1029E800164B1B69154A23F440431361134B1A69AC
:1029F80012493B6813430B611AE0104B1B6A0F4ADC
:102A080023F4404313620D4B1A6A0C493B68134385
:102A18000B620DE0094B1B6B084A23F44043136318
:102A2800064B1A6B05493B6813430B6300E000BF74
:102A380000BF0C37BD465DF8047B7047002400409A
:102A480080B483B000AF03463960FB71FB79022B79
:102A580020D0022B2BDC002B02D0012B0DD026E03E
:102A6800164B1B69154A23F400531361134B1A695B
:102A780012493B6813430B611AE0104B1B6A0F4A5B
:102A880023F4005313620D4B1A6A0C493B68134335
:102A98000B620DE0094B1B6B084A23F400531363C8
:102AA800064B1A6B05493B6813430B6300E000BFF4
:102AB80000BF0C37BD465DF8047B7047002400401A
:102AC80080B483B000AF03463960FB71FB79022BF9
:102AD80020D0022B2BDC002B02D0012B0DD026E0BE
:102AE800164B1B69154A23F0E0031361134B1A694F
:102AF80012493B6813430B611AE0104B1B6A0F4ADB
:102B080023F0E00313620D4B1A6A0C493B68134328
:102B18000B620DE0094B1B6B084A23F0E0031363BB
:102B2800064B1A6B05493B6813430B6300E000BF73
:102B380000BF0C37BD465DF8047B70470024004099
:102B480080B483B000AF03463960FB71FB79022B78
:102B580020D0022B2BDC002B02D0012B0DD026E03D
:102B6800164B1B69154A23F00E031361134B1A69A0
:102B780012493B6813430B611AE0104B1B6A0F4A5A
:102B880023F00E0313620D4B1A6A0C493B6813437A
:102B98000B620DE0094B1B6B084A23F00E0313630D
:102BA800064B1A6B05493B6813430B6300E000BFF3
:102BB80000BF0C37BD465DF8047B70470024004019
:102BC80080B483B000AF03463960FB71FB79022BF8
:102BD80020D0022B2BDC002B02D0012B0DD026E0BD
:102BE800164B1B69154A23F4F0531361134B1A69EA
:102BF80012493B6813430B611AE0104B1B6A0F4ADA
:102C080023F4F05313620D4B1A6A0C493B681343C3
:102C18000B620DE0094B1B6B084A23F4F053136356
:102C2800064B1A6B05493B6813430B6300E000BF72
:102C380000BF0C37BD465DF8047B70470024004098
:102C480080B483B000AF0346FB71FB79022B14D02C
:102C5800022B19DC002B02D0012B07D014E00E4BFD
:102C68001B690D4A43F0010313610EE00A4B1B6A0E
:102C7800094A43F00103136207E0074B1B6B064A3E
:102C880043F00103136300E000BF00BF0C37BD46EB
:102C98005DF8047B704700BF0024004080B483B017
:102CA80000AF0346FB71FB79022B14D0022B19DC11
:102CB800002B02D0012B07D014E00E4B1B690D4AE4
:102CC80023F0010313610EE00A4B1B6A094A23F043
:102CD8000103136207E0074B1B6B064A23F001034D
:102CE800136300E000BF00BF0C37BD465DF8047BEE
:102CF800704700BF0024004090B484B000AF044681
:102D0800084611461A462346FB710346BB710B461B
:102D18007B7113463B710023FB60FB6823F4FC12B4
:102D2800FB79DB031343FB60FB6823F48042BB7928
:102D38009B031343FB60FB6823F47C527B791B02E3
:102D48001343FB60FB6823F080023B79DB011343EC
:102D5800FB60FB6823F07E023B7E5B001343FB6055
:102D6800FB6823F001023B7F1343FB60034AFB68C7
:102D7800136400BF1037BD4690BC70470024004064
:102D880080B582B000AF03463960FB713B681A7F9B
:102D9800FB7911461846FFF7A5FC3B685A7FFB797B
:102DA80011461846FFF7E6FC3B689B7F012B04D1D0
:102DB800FB791846FFF726FD03E0FB791846FFF775
:102DC8004FFD3B681A8CFB7911461846FFF778FDD2
:102DD8003B681A68FB7911461846FFF7B1FD3B6856
:102DE8005A68FB7911461846FFF7EAFD3B689A686E
:102DF800FB7911461846FFF723FE3B681A69FB79F1
:102E080011461846FFF75CFE3B685A69FB79114684
:102E18001846FFF795FE3B68DA68FB7911461846B5
:102E2800FFF7CEFE3B689B69012B04D1FB7918465E
:102E3800FFF706FF03E0FB791846FFF72FFF00BFF7
:102E48000837BD4680BD80B487B000AFF860B96070
:102E58007A6000237B617B6803F00803002B1BD09A
:102E6800FB685B6A7B617B6803F007039B000F22AA
:102E780002FA03F3DB437A6913407B617B6803F052
:102E880007039B00BA6802FA03F37A6913437B616C
:102E9800FB687A695A621AE0FB681B6A7B617B6887
:102EA80003F007039B000F2202FA03F3DB437A695E
:102EB80013407B617B6803F007039B00BA6802FA42
:102EC80003F37A6913437B61FB687A691A6200BF6E
:102ED8001C37BD465DF8047B704780B487B000AFEF
:102EE800F860B9607A6000237B6100233B61FB686E
:102EF8001B687B61BB6803F003033B617B685B0075
:102F0800032202FA03F3DB437A6913407B617B688F
:102F18005B003A6902FA03F37A6913437B61FB6841
:102F28007A691A60BB68012B08D0BB68112B05D0E1
:102F3800BB68022B02D0BB68122B18D1FB685B68F8
:102F48007B6101227B6802FA03F3DB431A467B6943
:102F580013407B61BB681B0903F001027B6802FA1E
:102F680003F37A6913437B61FB687A695A6000BF8F
:102F78001C37BD465DF8047B704780B487B000AF4E
:102F8800F860B9607A6000237B61FB68DB687B616D
:102F98007B685B00032202FA03F3DB437A69134080
:102FA8007B617B685B00BA6802FA03F37A691343B2
:102FB8007B61FB687A69DA6000BF1C37BD465DF843
:102FC800047B704780B487B000AFF860B9607A605E
:102FD80000237B61FB689B687B6101227B6802FAA6
:102FE80003F3DB431A467B6913407B61BA687B684D
:102FF80002FA03F37A6913437B61FB687A699A6082
:1030080000BF1C37BD465DF8047B704780B487B0AD
:1030180000AFF860B9607A6000237B61FB68DB6A07
:103028007B617B685B00032202FA03F3DB437A6966
:1030380013407B617B685B00BA6802FA03F37A6924
:1030480013437B61FB687A69DA6200BF1C37BD46AF
:103058005DF8047B704780B584B000AF7860396054
:103068000023FB600023BB6030E03B681A68012145
:10307800FB6801FA03F31340BB60BB68002B22D046
:103088003B685B69FA6819467868FFF7DCFE3B68BD
:103098005B68FA6819467868FFF71FFF3B689B680A
:1030A800FA6819467868FFF768FF3B68DB68FA68D2
:1030B80019467868FFF786FF3B681B69FA68194666
:1030C8007868FFF7A3FFFB680133FB603B681A6869
:1030D800FB6822FA03F3002BC7D100BF00BF1037EB
:1030E800BD4680BD80B483B000AF78607B684FF682
:1030F800FF721A607B680022DA607B6800225A60DF
:103108007B680F225A617B6800229A607B680022E4
:103118001A6100BF0C37BD465DF8047B704780B468
:1031280083B000AF78600B467B807A887B689A61B1
:1031380000BF0C37BD465DF8047B704780B483B090
:1031480000AF78600B467B807A887B689A6200BF04
:103158000C37BD465DF8047B704780B483B000AF80
:1031680078600B467B807A887B689A6200BF0C3750
:10317800BD465DF8047B704780B483B000AF03465A
:10318800FB71044AFB79136200BF0C37BD465DF83A
:10319800047B70470000014080B485B000AF7860C0
:1031A80039607B68244A93420DD07B68234A934256
:1031B80007D07B68224A934201D1022304E003230B
:1031C80002E0012300E00023FB60FB6803F0020338
:1031D800002B15D17B68184A934206D1194B5A6ABD
:1031E80018493B6813434B621FE07B68134A9342BC
:1031F8001BD1144B5A6A13493B6813434B6214E0C2
:103208007B680F4A934206D10E4B9A6A0D493B6878
:1032180013438B6209E07B680B4A934205D1094B43
:103228009A6A08493B6813438B6200BF1437BD464E
:103238005DF8047B704700BF00340240003802404C
:10324800003C0240000001400040024080B500AF51
:103258004FF4805002F0A8F800BF80BD80B400AFE2
:10326800054B5B68044A43F48073536000BFBD4656
:103278005DF8047B704700BF0008024080B400AFCF
:10328800054B5B68044A23F48073536000BFBD4656
:103298005DF8047B704700BF0008024080B400AFAF
:1032A800054B9B68044A43F00203936000BFBD4688
:1032B8005DF8047B704700BF0008024080B400AF8F
:1032C800054B9B68044A23F00203936000BFBD4688
:1032D8005DF8047B704700BF0008024080B483B0EB
:1032E80000AF7860084B9B68074A23F4602393601B
:1032F800054B9A6804497B6813438B6000BF0C3701
:10330800BD465DF8047B70470008024080B483B076
:1033180000AF7860084B9B68074A23F4006393600A
:10332800054B9A6804497B6813438B6000BF0C37D0
:10333800BD465DF8047B70470008024080B483B046
:1033480000AF7860084BDB6A074A23F47003D36246
:10335800054BDA6A04497B681343CB6200BF0C371C
:10336800BD465DF8047B70470008024080B582B016
:1033780000AF78607B681B78002B02D0FFF76EFFE8
:1033880001E0FFF77BFF7B685B78002B02D0FFF73B
:1033980085FF01E0FFF792FF0C4B1B680B4A43F0D7
:1033A800280313607B685B681846FFF797FF7B6804
:1033B8009B681846FFF7AAFF7B68DB681846FFF78B
:1033C800BDFF00BF0837BD4680BD00BF6008024092
:1033D80080B400AF054B9B68044A43F00103936037
:1033E80000BFBD465DF8047B704700BF000802407F
:1033F80080B400AF054B9B68044A43F48073936024
:1034080000BFBD465DF8047B704700BF000802405E
:1034180080B483B000AF78607B68802B06D8094BF6
:103428005A6808497B6813434B6005E0054B9A6D61
:1034380004497B6813438B6500BF0C37BD465DF8B4
:10344800047B70470008024080B483B000AF786006
:103458007B68012B0AD1124B5B6D002B19D1104BE5
:103468009B680F4A43F00403936012E07B68022BC9
:103478000FD10B4B9B6803F00403002B07D0084BBC
:103488005B6D002B01D0002304E0012302E0002340
:1034980000E0002318460C37BD465DF8047B7047F2
:1034A8000008024080B483B000AF78607B68B3F551
:1034B800A00F06D1134B9A6812497B6813438B609F
:1034C80019E07B686FF4A002934206D10D4B9A680D
:1034D8000C497B6813408B600DE07B68B3F5800F67
:1034E80009D1084B9A687B681340002B01D001234F
:1034F80002E0002300E0002318460C37BD465DF8C3
:10350800047B70470008024080B483B000AF786045
:103518007B68B3F5006F06D1174B5A6816497B686C
:1035280013434B6021E07B686FF40062934206D13D
:10353800114B5A6810497B6813404B6015E07B6853
:10354800B3F5805F06D10C4B5A680B497B6813436F
:103558004B600AE07B686FF48052934205D1064BBA
:103568005A6805497B6813404B6000BF0C37BD465D
:103578005DF8047B704700BF0008024080B485B046
:1035880000AF03460A46FB711346BB710023FB607C
:10359800FB79092B1BD8FB79FB60294B1969FA6861
:1035A80013465B001344072202FA03F3DB43244A61
:1035B8000B401361224B1969B879FA6813465B000E
:1035C800134400FA03F31E4A0B43136132E0FB79FC
:1035D800112B1CD8FB790A3BFB60194BD968FA6898
:1035E80013465B001344072202FA03F3DB43144A31
:1035F8000B40D360124BD968B879FA6813465B0060
:10360800134400FA03F30E4A0B43D36012E00C4B49
:10361800D96DFA6813465B001344072202FA03F3D4
:10362800DB43074A0B40D365054BDA6DBB79044988
:103638001343CB6500BF1437BD465DF8047B704764
:103648000008024080B483B000AF03460A46FB710D
:103658001346BB71BB79052B19D82E4B596BBA7918
:1036680013469B0013441F2202FA03F3DB43294A43
:103678000B405363274B596BF879BA7913469B0073
:10368800134400FA03F3234A0B4353633BE0BB792B
:103698000B2B1BD81F4B196BBB799A1F13469B002A
:1036A80013441F2202FA03F3DB431A4A0B40136345
:1036B800184B196BF879BB799A1F13469B00134472
:1036C80000FA03F3134A0B4313631CE0114BD96A46
:1036D800BB79A3F10C0213469B0013441F2202FA84
:1036E80003F3DB430B4A0B40D3620A4BD96AF879E0
:1036F800BB79A3F10C0213469B00134400FA03F3B1
:10370800044A0B43D36200BF0C37BD465DF8047B07
:10371800704700BF0008024080B483B000AF7860F3
:103728007B68B3F5801F06D1174B9A6816497B68EA
:1037380013438B6021E07B686FF48012934206D1BB
:10374800114B9A6810497B6813408B6015E07B68C1
:10375800B3F5004F06D10C4B9A680B497B681343AD
:103768008B600AE07B686FF40042934205D1064BF8
:103778009A6805497B6813408B6000BF0C37BD46CB
:103788005DF8047B704700BF0008024080B400AFBA
:10379800054B5B68044A23F48063536000BFBD4651
:1037A8005DF8047B704700BF0008024080B483B016
:1037B80000AF7860084B9B68074A23F4E0439360A6
:1037C800054B9A6804497B6813438B6000BF0C372C
:1037D800BD465DF8047B70470008024080B483B0A2
:1037E80000AF03460A46FB711346BB710F4B996B3A
:1037F800BA7913469B0013441F2202FA03F3DB43F2
:103808000A4A0B409363094B996BF879BA791346C6
:103818009B00134400FA03F3044A0B43936300BF6D
:103828000C37BD465DF8047B704700BF00080240B6
:1038380080B483B000AF7860084B9B6B074A23F4D1
:1038480040139363054B9A6B04497B6813438B635E
:1038580000BF0C37BD465DF8047B70470008024086
:1038680080B485B000AF0346FB710023FB60084BB2
:10387800FB60FA79FB6813442833FB60FB681B681C
:103888009BB218461437BD465DF8047B704700BFED
:103898000008024080B483B000AF0346FB71074BB9
:1038A8001A68FB791340002B01D0012300E00023A4
:1038B80018460C37BD465DF8047B70470008024087
:1038C80080B483B000AF0346FB710B46BB7113464F
:1038D8007B71FB79012B09D10C4B1A68BB7913401A
:1038E800002B01D001230AE0002308E0074B9A6D62
:1038F8007B791340002B01D0012300E000231846F8
:103908000C37BD465DF8047B704700BF00080240D5
:1039180080B483B000AF0346FB71064B1A68FB798D
:10392800DB43044913400B6000BF0C37BD465DF80C
:10393800047B70470008024080B400AF054B9B6DC4
:10394800044A23F01003936500BFBD465DF8047B6D
:10395800704700BF0008024080B400AF054B9B6D64
:10396800044A43F01003936500BFBD465DF8047B2D
:10397800704700BF0008024080B582B000AF034620
:103988003960FB7101F0DAFBFB79002B07D101F0FC
:10399800A9FB386801F0B6FBFFF7CEFF04E03868F2
:1039A80001F084FBFFF7D8FF00BF0837BD4680BD94
:1039B80080B582B000AF78607B681E4A934204D11C
:1039C8004FF4006001F00AFD2FE07B68B3F1804FEF
:1039D80003D1012001F01CFD27E07B68164A9342C1
:1039E80003D1022001F014FD1FE07B68134A9342C3
:1039F80003D1042001F00CFD17E07B68104A9342C4
:103A080003D1082001F004FD0FE07B680D4A9342C2
:103A180003D1102001F0FCFC07E07B680A4A9342BE
:103A280003D14FF4005001F0D9FC00BF0837BD4660
:103A380080BD00BF002C0140000400400008004089
:103A4800000C0040001000400034014080B485B0F4
:103A580000AF786039600023FB607B681B68FB60FF
:103A6800FB6823F07003FB60FA683B681343FB6054
:103A78007B68FA681A6000BF1437BD465DF8047B9E
:103A8800704780B485B000AF786039600023FB6070
:103A98007B681B68FB60FB6823F44013FB60FA68D3
:103AA8003B681343FB607B68FA681A6000BF1437F1
:103AB800BD465DF8047B704780B483B000AF786082
:103AC8007B681B6843F480227B681A6000BF0C3750
:103AD800BD465DF8047B704780B483B000AF786062
:103AE8000B467B807B687A889A8500BF0C37BD4679
:103AF8005DF8047B704780B483B000AF78600B46F4
:103B08007B807B687A881A8500BF0C37BD465DF8D4
:103B1800047B704780B483B000AF78600B467B802D
:103B28007B687A889A8200BF0C37BD465DF8047BB3
:103B3800704780B483B000AF78600B46FB70FB78A9
:103B48009AB27B681A8600BF0C37BD465DF8047BC5
:103B5800704780B483B000AF78600B46FB70FB7889
:103B6800002B06D07B681B6843F400627B681A60F0
:103B780005E07B681B6823F400627B681A6000BF5D
:103B88000C37BD465DF8047B704780B483B000AF46
:103B980078600B46FB70FB78002B06D07B681B68AF
:103BA80043F480527B681A6005E07B681B6823F445
:103BB80080527B681A6000BF0C37BD465DF8047BF5
:103BC800704780B483B000AF78600B46FB70FB7819
:103BD800002B06D07B681B6843F400527B681A6090
:103BE80005E07B681B6823F400527B681A6000BFFD
:103BF8000C37BD465DF8047B704780B483B000AFD6
:103C080078600B46FB70FB78002B06D07B681B683E
:103C180043F480427B681A6005E07B681B6823F4E4
:103C280080427B681A6000BF0C37BD465DF8047B94
:103C3800704780B483B000AF78600B46FB70FB78A8
:103C4800002B06D07B681B6843F400427B681A602F
:103C580005E07B681B6823F400427B681A6000BF9C
:103C68000C37BD465DF8047B7047000080B582B014
:103C780000AF786039607B68354A93420BD03B6867
:103C88005B8819467868FFF7E1FE3B68DB881946D0
:103C9800786800F07BFC3B689B8819467868FFF7DA
:103CA8001BFF3B681B8819467868FFF724FF7B6871
:103CB800284A934203D07B68274A934205D13B6840
:103CC8001B7A19467868FFF734FF01217868FFF7F7
:103CD80021FF7B681E4A934205D03B685B7A1946F0
:103CE8007868FFF736FF7B681A4A93420FD07B68E3
:103CF800194A93420BD07B68B3F1804F07D07B6899
:103D0800164A934203D07B68154A934205D13B6813
:103D18005B7B19467868FFF78CFF7B68B3F1804FAF
:103D280011D13B689B7A19467868FFF72EFF3B68EC
:103D3800DB7A19467868FFF744FF3B681B7B194616
:103D48007868FFF75AFF00BF0837BD4680BD00BF3F
:103D580000100040002C01400034014000040040E5
:103D68000008004080B483B000AF78607B684FF6ED
:103D7800FF729A807B6800221A807B680022DA80B2
:103D88007B6800225A807B6800221A727B680022B6
:103D98005A727B6800229A727B680022DA727B680A
:103DA80000221A737B6800225A737B6800229A7378
:103DB80000BF0C37BD465DF8047B704780B483B004
:103DC80000AF78607B681B6843F001027B681A606B
:103DD80000BF0C37BD465DF8047B704780B485B0E2
:103DE80000AF78600B467B800023FB817B681B8BD0
:103DF800FB81FB8923F00803FB81FA897B88134345
:103E0800FB817B68FA891A8300BF1437BD465DF8C9
:103E1800047B704780B485B000AF78600B467B8028
:103E28000023FB817B681B8BFB81FB8923F40063E8
:103E3800FB817B881B029AB2FB891343FB817B6859
:103E4800FA891A8300BF1437BD465DF8047B7047B2
:103E580080B485B000AF78600B467B800023FB817F
:103E68007B68DB69FB81FB8923F00803FB81FA8906
:103E78007B881343FB81FA897B68DA6100BF1437BA
:103E8800BD465DF8047B704780B485B000AF7860AC
:103E98000B467B800023FB817B68DB69FB81FB8908
:103EA80023F40063FB817B881B029AB2FB891343CE
:103EB800FB81FA897B68DA6100BF1437BD465DF87B
:103EC800047B704780B483B000AF78600B467B807A
:103ED8007B88082B06D17B68DB6943F480327B68DA
:103EE800DA6108E07B88002B05D17B68DB6923F465
:103EF80080327B68DA6100BF0C37BD465DF8047B11
:103F0800704780B483B000AF78600B467B807B88B5
:103F1800082B06D17B68DB6943F400127B68DA6101
:103F280008E07B88002B05D17B68DB6923F400124D
:103F38007B68DA6100BF0C37BD465DF8047B7047CB
:103F480080B483B000AF78600B467B807B88082BF9
:103F580006D17B68DB6943F080627B68DA6108E040
:103F68007B88002B05D17B68DB6923F080627B6846
:103F7800DA6100BF0C37BD465DF8047B704780B43A
:103F880085B000AF78600B467B807B685B6BFB601D
:103F9800FB681B0C1B04FB607B88FA681343FB60FF
:103FA8007B68FA685A6300BF1437BD465DF8047B26
:103FB800704780B485B000AF78600B467B807B6823
:103FC8009B6BFB60FB681B0C1B04FB607B88FA681F
:103FD8001343FB607B68FA689A6300BF1437BD46D9
:103FE8005DF8047B704780B485B000AF78600B46FD
:103FF8007B807B68DB6BFB60FB681B0C1B04FB6036
:104008007B88FA681343FB607B68FA68DA6300BF51
:104018001437BD465DF8047B704780B483B000AFA9
:1040280078600B467B807B687A88A3F8602000BFA5
:104038000C37BD465DF8047B704780B483B000AF91
:1040480078600B467B807B687A88A3F8642000BF81
:104058000C37BD465DF8047B704780B483B000AF71
:1040680078600B467B807B687A88A3F8682000BF5D
:104078000C37BD465DF8047B704780B485B000AF4F
:1040880078600B467B807B685B6BFB60FB689BB250
:10409800FB607B881B04FA681343FB607B68FA6843
:1040A8005A6300BF1437BD465DF8047B704780B47F
:1040B80085B000AF78600B467B807B689B6BFB60AC
:1040C800FB689BB2FB607B881B04FA681343FB60A8
:1040D8007B68FA689A6300BF1437BD465DF8047BB5
:1040E800704780B485B000AF78600B467B807B68F2
:1040F800DB6BFB60FB689BB2FB607B881B04FA6888
:104108001343FB607B68FA68DA6300BF1437BD4667
:104118005DF8047B704780B485B000AF78600B46CB
:104128007B807B681B6CFB60FB689BB2FB607B88B9
:104138001B04FA681343FB607B68FA681A6400BFC3
:104148001437BD465DF8047B704780B483B000AF78
:1041580078607B68B3F860309BB218460C37BD4670
:104168005DF8047B704780B483B000AF78607B68EB
:10417800B3F864309BB218460C37BD465DF8047B33
:10418800704780B483B000AF78607B68B3F868305C
:104198009BB218460C37BD465DF8047B704780B467
:1041A80085B000AF78600B467B800023FB817B687D
:1041B8001B89FB81FB8923F07003FB81FA897B88CB
:1041C8001343FB817B68FA891A8100BF1437BD4607
:1041D8005DF8047B7047000080B487B000AFF860DA
:1041E800084611461A4603467B810B463B81134617
:1041F800FB8000237B8200237B61FB681B6A23F022
:104208000102FB681A62FB681B8B7B82FB681B6AD6
:104218007B617B8A23F0F3037B82FB881B019AB2C4
:104228003B8913439AB27B8A13437B82FB681E4AFD
:10423800934213D0FB681D4A93420FD0FB68B3F139
:10424800804F0BD0FB681A4A934207D0FB68194A83
:10425800934203D0FB68184A93420CD17B6923F040
:1042680002037B617B8943F001039BB21A467B6999
:1042780013437B610BE07B6923F00A037B617B8935
:1042880043F001039BB21A467B6913437B61FB68C9
:104298007A8A1A83FB687A691A6200BF1C37BD469E
:1042A8005DF8047B704700BF002C014000340140DA
:1042B8000004004000080040000C004080B489B0B1
:1042C80000AFF860084611461A4603467B810B4644
:1042D8003B811346FB8000237B830023FB61002383
:1042E8007B61FB681B6A23F01002FB681A62FB689B
:1042F8001B8B7B83FB681B6AFB617B891B017B61D2
:104308007B8B23F440731B051B0D7B83FB881B03EE
:104318009AB27B8B13437B833B891B029AB27B8BBC
:1043280013437B83FB681D4A934213D0FB681C4AE6
:1043380093420FD0FB68B3F1804F0BD0FB68194A4A
:10434800934207D0FB68184A934203D0FB68174A88
:1043580093420AD1FB6923F02003FB617A69FB6968
:10436800134343F01003FB610BE0FB6923F0A00348
:10437800FB617B8943F010039BB21A46FB69134328
:10438800FB61FB687A8B1A83FB68FA691A6200BFC3
:104398002437BD465DF8047B704700BF002C014000
:1043A800003401400004004000080040000C0040B8
:1043B80080B489B000AFF860084611461A46034633
:1043C8007B810B463B811346FB8000237B830023C4
:1043D800FB6100237B61FB681B6A23F48072FB6826
:1043E8001A62FB68DB697B83FB681B6AFB617B895C
:1043F8001B027B617B8B23F0F3037B83FB881B0110
:104408009AB23B8913439AB27B8B13437B83FB6835
:104418001C4A934213D0FB681B4A93420FD0FB6897
:10442800B3F1804F0BD0FB68184A934207D0FB6862
:10443800174A934203D0FB68164A93420AD1FB6994
:1044480023F40073FB617A69FB69134343F48073B7
:10445800FB610BE0FB6923F42063FB617B8943F478
:1044680080739BB21A46FB691343FB617A8BFB6826
:10447800DA61FB68FA691A6200BF2437BD465DF845
:10448800047B7047002C01400034014000040040C8
:1044980000080040000C004080B489B000AFF8600C
:1044A800084611461A4603467B810B463B81134654
:1044B800FB8000237B830023FB6100237B61FB6877
:1044C8001B6A23F48052FB681A62FB68DB697B83F2
:1044D800FB681B6AFB617B891B037B617B8B23F475
:1044E80040731B051B0D7B833B891B029AB27B8B98
:1044F80013437B83FB881B039AB27B8B13437B8319
:10450800FB681D4A934213D0FB681C4A93420FD0A4
:10451800FB68B3F1804F0BD0FB68194A934207D070
:10452800FB68184A934203D0FB68174A93420AD1A2
:10453800FB6923F40053FB617A69FB69134343F475
:104548008053FB610BE0FB6923F40053FB617B891B
:1045580043F480539BB21A46FB691343FB617A8B81
:10456800FB68DA61FB68FA691A6200BF2437BD4646
:104578005DF8047B704700BF002C01400034014007
:104588000004004000080040000C004080B483B0E4
:1045980000AF78600B467B807B681B6823F4407211
:1045A8007B681A607B681A687B881A437B681A6084
:1045B80000BF0C37BD465DF8047B704780B483B0FC
:1045C80000AF78600B467B807B681B8B9BB223F027
:1045D8000C039AB27B681A837B681B8B9AB27B8820
:1045E80013439AB27B681A8300BF0C37BD465DF847
:1045F800047B704780B483B000AF78600B467B8043
:104608007B681B8B9BB223F440639AB27B681A8346
:104618007B681B8B9AB27B881B029BB213439AB2AE
:104628007B681A8300BF0C37BD465DF8047B704772
:1046380080B483B000AF78600B467B807B68DA6912
:104648004FF6F37313407A68D3617B68DA697B8825
:104658001A437B68DA6100BF0C37BD465DF8047BFE
:10466800704780B483B000AF78600B467B807B686E
:10467800DA694FF2FF3313407A68D3617B68DA69ED
:104688007B881B021A437B68DA6100BF0C37BD4682
:104698005DF8047B704780B483B000AF78600B4648
:1046A8007B807B681B899BB223F007039AB27B68E7
:1046B8001A817B681B899AB27B8813439AB27B68FC
:1046C8001A8100BF0C37BD465DF8047B704780B483
:1046D80083B000AF78600B467B807B681B899BB2F8
:1046E80023F080039AB27B681A817B681B899AB28F
:1046F8007B8813439AB27B681A8100BF0C37BD468A
:104708005DF8047B704780B483B000AF78600B46D7
:104718007B807B685B6823F0807323F070037A6882
:1047280053607B685A687B881A437B685A6000BF6D
:104738000C37BD465DF8047B704780B483B000AF8A
:1047480078607B685B6843F400227B685A6000BF2E
:104758000C37BD465DF8047B704780B483B000AF6A
:1047680078607B685B6843F400127B685A6000BF1E
:104778000C37BD465DF8047B704780B483B000AF4A
:1047880078607B685B6843F400027B685A6000BF0E
:104798000C37BD465DF8047B704780B483B000AF2A
:1047A80078607B6800225A807B6801229A807B6847
:1047B8000022DA807B6800221A8100BF0C37BD46D0
:1047C8005DF8047B704780B582B000AF78603960CF
:1047D8003B681B88002B0FD13B6859883B689A8837
:1047E8003B681B897868FFF7F7FC3B68DB8819464C
:1047F8007868FFF7E3FE36E03B681B88042B0FD18F
:104808003B6859883B689A883B681B897868FFF73A
:1048180055FD3B68DB8819467868FFF7EBFE22E018
:104828003B681B88082B0FD13B6859883B689A88DE
:104838003B681B897868FFF7BBFD3B68DB88194636
:104848007868FFF7F5FE0EE03B6859883B689A8860
:104858003B681B897868FFF71FFE3B68DB881946B1
:104868007868FFF7FEFE00BF0837BD4680BD80B4FC
:1048780087B000AFF860B9601346FB80FB681B6A1D
:104888007B61FB88022202FA03F3DB437A69134057
:104898007B61FB88BA6802FA03F37A6913437B6188
:1048A800FB687A691A6200BF1C37BD465DF8047B55
:1048B800704780B487B000AFF860B9601346FB80DA
:1048C800FB681B6A7B61FB88082202FA03F3DB435F
:1048D8007A6913407B61FB88BA6802FA03F37A6944
:1048E80013437B61FB687A691A6200BF1C37BD46B7
:1048F8005DF8047B704780B483B000AF78600B46E6
:104908007B807B681A6A7B88012101FA03F31A43CA
:104918007B681A6200BF0C37BD465DF8047B7047A0
:1049280080B483B000AF78600B467B807B681A6ADE
:104938007B88012101FA03F3DB431A407B681A6282
:1049480000BF0C37BD465DF8047B704780B483B068
:1049580000AF78600B467B807B681A6A7B880421ED
:1049680001FA03F31A437B681A6200BF0C37BD468D
:104978005DF8047B704780B483B000AF78600B4665
:104988007B807B681A6A7B88042101FA03F3DB4386
:104998001A407B681A6200BF0C37BD465DF8047B7D
:1049A8007047000080B584B000AF7860396000239C
:1049B8007B810023FB6000217868FFF7B1FF7B68EB
:1049C8005B68FB607B681B8B7B817B8923F07003B2
:1049D8007B817B8923F003037B813B681A887B8971
:1049E80013437B813B681B89002219467868FFF7CF
:1049F8003EFF3B685B88002B04D000217868FFF7F6
:104A08007AFF03E000217868FFF78AFF7B681F4A76
:104A1800934203D07B681E4A934227D13B685B8947
:104A2800002219467868FFF744FF3B689B88002BF3
:104A380004D000217868FFF789FF03E00021786837
:104A4800FFF799FFFB6823F48073FB60FB6823F48E
:104A58000073FB603B689B891A46FB681343FB6045
:104A68003B68DB891A46FB681343FB607B68FA687E
:104A78005A607B687A891A833B68DB881A467B68A8
:104A88005A6300BF1037BD4680BD00BF002C0140EF
:104A98000034014080B584B000AF786039600023ED
:104AA8007B810023FB6004217868FFF739FF7B686E
:104AB8005B68FB607B681B8B7B817B8923F4E0430D
:104AC8007B817B8923F440737B813B681B881B02B5
:104AD8009AB27B8913437B813B681B890422194660
:104AE8007868FFF7C4FE3B685B88002B04D004217C
:104AF8007868FFF700FF03E004217868FFF710FFEC
:104B08007B681F4A934203D07B681E4A934227D191
:104B18003B685B89042219467868FFF7CAFE3B6840
:104B28009B88002B04D004217868FFF70FFF03E06F
:104B380004217868FFF71FFFFB6823F48063FB609C
:104B4800FB6823F40063FB603B689B899B00FA6861
:104B58001343FB603B68DB899B00FA681343FB60E7
:104B68007B68FA685A607B687A891A833B68DB88B5
:104B78001A467B689A6300BF1037BD4680BD00BFE8
:104B8800002C01400034014080B584B000AF78604B
:104B9800396000237B810023FB6008217868FFF7D8
:104BA800BFFE7B685B68FB607B68DB697B817B8918
:104BB80023F070037B817B8923F003037B813B68AF
:104BC8001A887B8913437B813B681B890822194615
:104BD8007868FFF74CFE3B685B88002B04D00821FF
:104BE8007868FFF788FE03E008217868FFF798FEE9
:104BF8007B681F4A934203D07B681E4A934227D1A1
:104C08003B685B89082219467868FFF752FE3B68C3
:104C18009B88002B04D008217868FFF797FE03E0F3
:104C280008217868FFF7A7FEFB6823F48053FB6030
:104C3800FB6823F40053FB603B689B891B01FA68FF
:104C48001343FB603B68DB891B01FA681343FB6075
:104C58007B68FA685A607A897B68DA613B68DB8826
:104C68001A467B68DA6300BF1037BD4680BD00BFB7
:104C7800002C01400034014080B584B000AF78605A
:104C8800396000237B810023FB600C217868FFF7E3
:104C980047FE7B685B68FB607B68DB697B817B899F
:104CA80023F4E0437B817B8923F440737B813B6859
:104CB8001B881B029AB27B8913437B813B681B8943
:104CC8000C2219467868FFF7D2FD3B685B88002BF9
:104CD80004D00C217868FFF70EFE03E00C217868F9
:104CE800FFF71EFE7B68244A934228D13B685B8904
:104CF8000C2219467868FFF7DCFD3B689B88002B7F
:104D080004D00C217868FFF721FE03E00C217868B5
:104D1800FFF731FEFB6823F48043FB60FB6823F454
:104D28000033FB603B689B899B01FA681343FB6077
:104D38003B68DB891B02FA681343FB600DE07B6864
:104D48000E4A934209D1FB6823F48043FB603B6819
:104D58009B899B01FA681343FB607B68FA685A6079
:104D68007A897B68DA613B68DB881A467B681A6453
:104D780000BF1037BD4680BD002C01400034014003
:104D880080B483B000AF78607B68B3F844309BB2DE
:104D98006FEA43436FEA53439AB27B68A3F844200F
:104DA80000BF0C37BD465DF8047B704780B483B004
:104DB80000AF78607B68B3F844309BB2C3F30E034E
:104DC8009AB27B68A3F8442000BF0C37BD465DF853
:104DD800047B704780B483B000AF78607B681B6841
:104DE80043F480327B681A6000BF0C37BD465DF81B
:104DF800047B704780B483B000AF78607B681B6821
:104E080023F480327B681A6000BF0C37BD465DF81A
:104E1800047B704780B483B000AF78607B681B6800
:104E280043F400327B681A6000BF0C37BD465DF85A
:104E3800047B704780B483B000AF78607B681B68E0
:104E480023F400327B681A6000BF0C37BD465DF85A
:104E5800047B704780B483B000AF78600B46FB706A
:104E6800FB78002B06D07B681B6843F480627B6864
:104E78001A6005E07B681B6823F480627B681A600F
:104E880000BF0C37BD465DF8047B704780B582B023
:104E980000AF786039603B681A883B685B881343C9
:104EA8009AB23B689B8813439AB23B68DB881343EA
:104EB8009AB23B681B8913439AB23B685B891343D8
:104EC8009AB23B689B8913439AB27B68A3F8442043
:104ED8003B689B7B002B04D000217868FFF7BAFF62
:104EE80003E001217868FFF7B5FF3B68DB7B002B07
:104EF80003D07868FFF76EFF02E07868FFF77AFF63
:104F08003B681B7C002B03D07868FFF783FF02E027
:104F18007868FFF78FFF00BF0837BD4680BD80B4B3
:104F280083B000AF78600B467B807B689B899AB220
:104F38007B8813439AB27B689A8100BF0C37BD46C1
:104F48005DF8047B704780B483B000AF78600B468F
:104F58007B807B689B899AB27B88DB439BB213403A
:104F68009AB27B689A8100BF0C37BD465DF8047B16
:104F7800704780B485B000AF786039600023FB606B
:104F88000023BB607B681B693A681340FB607B6841
:104F98009B899BB21A463B681340BB60FB68002B99
:104FA80004D0BB68002B01D0012300E00023184681
:104FB8001437BD465DF8047B704780B483B000AFFA
:104FC800786039603B68DA437B681A6100BF0C3748
:104FD800BD465DF8047B704780B483B000AF78604D
:104FE80039607B681A693B681340002B01D00123A4
:104FF80000E0002318460C37BD465DF8047B704777
:1050080080B483B000AF78600B467B807B689B8957
:105018009AB27B8813439AB27B689A8100BF0C3797
:10502800BD465DF8047B704780B485B000AF7860FA
:105038000023FB60094B5B68FB60FB6823F4E063BB
:10504800FB60FA687B681343FB60044AFB685360A3
:1050580000BF1437BD465DF8047B7047001002405E
:1050680080B485B000AF786039600023FB600E4BD8
:10507800DB6AFB60FB6823F48063FB60FB6823F456
:105088007843FB60FA687B681343FB60FA683B6807
:105098001343FB60044AFB68D36200BF1437BD4664
:1050A8005DF8047B704700BF0010024080B485B0F3
:1050B80000AF78600023FB60094BDB6AFB60FB688C
:1050C80023F4F873FB60FA687B681343FB60044AB7
:1050D800FB68D36200BF1437BD465DF8047B704798
:1050E8000010024080B400AF054BDB6A044A23F489
:1050F8008073D36200BFBD465DF8047B704700BF74
:105108000010024080B485B000AF78600023FB60D7
:10511800094BDB6AFB60FB6823F00F03FB60FA684E
:105128007B681343FB60044AFB68D36200BF1437F3
:10513800BD465DF8047B70470010024080B400AFA4
:10514800064BD3F88030054A43F00103C2F880309B
:1051580000BFBD465DF8047B704700BF00100240E9
:1051680080B489B000AF786000237B610023FB61C5
:105178000023BB6100233B610023FB605E4B5A6840
:105188005E4B1340BB615C4B5B6803F480333B614F
:10519800BB6903F00063002B04D1BB699B0C02338D
:1051A800BB6104E0BB699B0CA3F2EF13BB613B69D5
:1051B800002B11D1504B1B6C03F00103002B05D0C1
:1051C800BB694F4A02FB03F3FB6116E0BB694D4A1A
:1051D80002FB03F3FB6110E0474B5B6803F4003309
:1051E800002B05D0BB69464A02FB03F3FB6104E0D0
:1051F800BB69444A02FB03F3FB613F4B5B6803F066
:105208000C037B617B69082B11D07B69082B12D8B2
:105218007B69002B03D07B69042B04D00BE07B68EF
:10522800384A1A600BE07B68364A1A6007E07B68E8
:10523800FA691A6003E07B68324A1A6000BF2E4B95
:105248005B681B0903F00F037B612F4A7B691344DA
:105258001B78FB607B681A68FB68DA407B685A60D9
:10526800254B5B681B0A03F007037B61264A7B69B1
:1052780013441B78FB607B685A68FB68DA407B68DC
:105288009A601D4B5B68DB0A03F007037B611E4ACB
:105298007B6913441B78FB607B685A68FB68DA40BB
:1052A8007B68DA60144BDB6A03F00F037B61174AF3
:1052B8007B6913441B78FB607B685A68FB68B2FB08
:1052C800F3F27B685A610C4BDB6A1B0903F01F037E
:1052D8007B617B6903F00F030D4A32F81330FB60E2
:1052E800FA69FB68B2FBF3F27B681A6100BF2437E6
:1052F800BD465DF8047B70470010024000003C0882
:1053080000093D0000127A00145E0008245E0008BF
:10531800345E000880B483B000AF7860054B5A69EA
:1053280004497B6813434B6100BF0C37BD465DF8E9
:10533800047B70470010024080B483B000AF7860EF
:10534800054B9A6904497B6813438B6100BF0C378E
:10535800BD465DF8047B70470010024080B483B0FE
:1053680000AF7860054BDA6904497B681343CB6169
:1053780000BF0C37BD465DF8047B70470010024043
:1053880080B483B000AF7860064BDA697B68DB4392
:1053980004491340CB6100BF0C37BD465DF8047B60
:1053A800704700BF0010024080B483B000AF78603F
:1053B800094B9A6A08497B6813438B62064B9A6AC1
:1053C8007B68DB43044913408B6200BF0C37BD4642
:1053D8005DF8047B704700BF0010024080B483B0C2
:1053E80000AF7860094BDA6808497B681343CB60E3
:1053F800064BDA687B68DB4304491340CB6000BF87
:105408000C37BD465DF8047B704700BF00100240B2
:1054180080B483B000AF7860094B1A6908497B688B
:1054280013430B61064B1A697B68DB43044913403D
:105438000B6100BF0C37BD465DF8047B704700BFA9
:10544800001002400D4885460D480E490E4A0023BB
:1054580002E0D458C4500433C4188C42F9D30B4A20
:105468000B4C002301E013600432A242FBD3FCF78B
:1054780007FB00F011F8FAF7B5FEFEE70040002040
:105488000000002008030020605E000808030020D8
:1054980024050020FEE7000070B50F4B0F4DAB420E
:1054A800A3EB050607D0B610002455F8043B0134D9
:1054B8009847A642F9D800F07FF8094D094B5E1BC2
:1054C800AB424FEAA60606D0002455F8043B013447
:1054D8009847A642F9D870BD545E0008545E00088B
:1054E800545E00085C5E0008704700BF704700BF4C
:1054F800024B13B1024800F005B8704700000000E5
:1055080019550008002301461A46184600F014B839
:1055180038B5074D074C2C1BA41005D0013C55F895
:10552800043D9847002CF9D1BDE8384000F04AB84E
:10553800605E00085C5E00082DE9F8431B4D0646D6
:10554800286898460F469146FFF7CEFF184B1C680F
:105558001CB3286865681F2D22DC4EB96B1C023508
:10556800636044F82570FFF7C1FF0020BDE8F883A9
:1055780004EB85010123C1F88890D4F88821AB4059
:105588001A43022EC4F88821C1F80881E6D1D4F85C
:105598008C211A43C4F88C21E0E7064C1C60D8E73C
:1055A800FFF7A4FF4FF0FF30E0E700BF0C0000203A
:1055B8009003002094030020F8B500BFF8BC08BC95
:1055C8009E467047F8B500BFF8BC08BC9E467047B9
:1055D8005FF800F0250200205FF800F011000020BD
:1055E800000000000100803FC90CC0B7E565AABEF5
:1055F800435690BB3C695D3EEBFCA9BC08B732BE84
:10560800E745093EA59204BD00000000920E493C02
:10561800B10AC93C2BC3163D2EFB483D752B7B3D7B
:1056280004A9963D80B6AF3D36BDC83D2FBCE13DCF
:1056380073B2FA3D87CF093E8340163EB5AB223E92
:10564800A2102F3ECF6E3B3EC2C5473E0115543EC9
:10565800135C603E7F9A6C3ECCCF783EC07D823E24
:10566800938E883E229A8E3E32A0943E86A09A3E21
:10567800E59AA03E128FA63ED47CAC3EEF63B23EC4
:105688002A44B83E491DBE3E15EFC33E53B9C93E34
:10569800CA7BCF3E4136D53E80E8DA3E4F92E03EA7
:1056A8007533E63EBBCBEB3EEA5AF13ECBE0F63E25
:1056B800275DFC3EE4E7003F3D9C033F824B063FED
:1056C8009BF5083F6B9A0B3FDA390E3FCDD3103F5D
:1056D8002A68133FD9F6153FC07F183FC6021B3F03
:1056E800D17F1D3FCBF61F3F9967223F25D2243F2C
:1056F8005636273F1594293F4AEB2B3FDE3B2E3F7A
:10570800BB85303FC9C8323FF304353F233A373FA2
:105718004268393F3B8F3B3FF9AE3D3F67C73F3F4C
:1057280070D8413F01E2433F03E4453F65DE473F10
:1057380012D1493FF8BB4B3F029F4D3F207A4F3F64
:105748003D4D513F4918533F31DB543FE595563F96
:105758005348583F6AF2593F1A945B3F532D5D3FB7
:1057680005BE5E3F2146603F97C5613F5A3C633F97
:1057780059AA643F880F663FD86B673F3CBF683FB4
:10578800A7096A3F0C4B6B3F5E836C3F93B26D3F3A
:105798009ED86E3F73F56F3F0809713F5213723FF1
:1057A8004714733FDD0B743F0BFA743FC6DE753F39
:1057B80007BA763FC58B773FF853783F9812793F01
:1057C8009DC7793F02737A3FBE147B3FCDAC7B3FC8
:1057D800283B7C3FC9BF7C3FAC3A7D3FCCAB7D3F8B
:1057E80023137E3FB0707E3F6DC47E3F580E7F3FCF
:1057F8006D4E7F3FAB847F3F0FB17F3F97D37F3F95
:1058080043EC7F3F11FB7F3F0000803F11FB7F3F50
:1058180043EC7F3F97D37F3F0FB17F3FAB847F3F00
:105828006D4E7F3F580E7F3F6DC47E3FB0707E3F08
:1058380023137E3FCCAB7D3FAC3A7D3FC9BF7C3F55
:10584800283B7C3FCDAC7B3FBE147B3F02737A3F45
:105858009DC7793F9812793FF853783FC58B773FBA
:1058680007BA763FC6DE753F0BFA743FDD0B743F0F
:105878004714733F5213723F0809713F73F56F3F26
:105888009ED86E3F93B26D3F5E836C3F0C4B6B3F6F
:10589800A7096A3F3CBF683FD86B673F880F663FE0
:1058A80059AA643F5A3C633F97C5613F2146603F10
:1058B80005BE5E3F532D5D3F1A945B3F6AF2593F28
:1058C8005348583FE595563F31DB543F4918533FFD
:1058D8003D4D513F207A4F3F029F4D3FF8BB4B3F14
:1058E80012D1493F65DE473F03E4453F01E2433FAC
:1058F80070D8413F67C73F3FF9AE3D3F3B8F3B3FC5
:105908004268393F233A373FF304353FC9C8323F2D
:10591800BB85303FDE3B2E3F4AEB2B3F1594293F9A
:105928005636273F25D2243F9967223FCBF61F3FA3
:10593800D17F1D3FC6021B3FC07F183FD9F6153FD8
:105948002A68133FCDD3103FDA390E3F6B9A0B3FCD
:105958009BF5083F824B063F3D9C033FE4E7003F31
:10596800275DFC3ECBE0F63EEA5AF13EBBCBEB3E70
:105978007533E63E4F92E03E80E8DA3E4136D53E4A
:10598800CA7BCF3E53B9C93E15EFC33E491DBE3E43
:105998002A44B83EEF63B23ED47CAC3E128FA63E9A
:1059A800E59AA03E86A09A3E32A0943E229A8E3E68
:1059B800938E883EC07D823ECCCF783E7F9A6C3EE7
:1059C800135C603E0115543EC2C5473ECF6E3B3E58
:1059D800A2102F3EB5AB223E8340163E87CF093E2C
:1059E80073B2FA3D2FBCE13D36BDC83D80B6AF3D30
:1059F80004A9963D752B7B3D2EFB483D2BC3163DD8
:105A0800B10AC93C920E493C00000000920E49BC04
:105A1800B10AC9BC2BC316BD2EFB48BD752B7BBD77
:105A280004A996BD80B6AFBD36BDC8BD2FBCE1BDCB
:105A380073B2FABD87CF09BE834016BEB5AB22BE8E
:105A4800A2102FBECF6E3BBEC2C547BE011554BEC5
:105A5800135C60BE7F9A6CBECCCF78BEC07D82BE20
:105A6800938E88BE229A8EBE32A094BE86A09ABE1D
:105A7800E59AA0BE128FA6BED47CACBEEF63B2BEC0
:105A88002A44B8BE491DBEBE15EFC3BE53B9C9BE30
:105A9800CA7BCFBE4136D5BE80E8DABE4F92E0BEA3
:105AA8007533E6BEBBCBEBBEEA5AF1BECBE0F6BE21
:105AB800275DFCBEE4E700BF3D9C03BF824B06BFE9
:105AC8009BF508BF6B9A0BBFDA390EBFCDD310BF59
