:020000040800F2
:10000000F0150020B1020008D51900084B110008B6
:1000100005190008250B0008ED2D00080000000060
:100020000000000000000000000000002D1E00087D
:10003000270D000800000000C7020008B5200008D6
:10004000CB020008CB020008CB020008CB0200085C
:10005000CB020008CB020008CB020008CB0200084C
:10006000CB020008CB020008CB020008CB0200083C
:10007000CB020008CB020008CB020008CB0200082C
:10008000CB020008CB020008CB02000825050008BF
:10009000CB020008CB020008CB0200088122000836
:1000A000CB020008CB020008AD220008592400084A
:1000B000CB02000881250008C91100084D11000875
:1000C000CB020008CB020008CB020008CB020008DC
:1000D000CB020008CB020008CB020008CB020008CC
:1000E000CB020008CB020008CB020008CB020008BC
:1000F000CB020008CB020008CB020008CB020008AC
:1001000029260008CB020008CB020008CB02000819
:10011000CB020008DFF80CD000F0EEF800480047F2
:10012000712E0008F015002070B502465E4D2C6857
:100130005E4940F255530978002900D11C435A48C2
:100140002038072A7FD2DFE802F00408173656630A
:100150007100BDE8704002F093BD1C432C6080210B
:10016000044602F03AFC8021204602F032FC204690
:10017000BDE8704002F08ABD81B124F0040121F095
:10018000400121F4806141F0010141F0100141F48E
:1001900080712960BDE8704002F078BD24F0010153
:1001A00021F0100121F4807141F0040141F040017F
:1001B00041F48061EDE7012910D024F0040121F021
:1001C000400121F4806141F0010141F0100141F44E
:1001D00080712960BDE8704002F058BD24F0010133
:1001E00021F0100121F4807141F0040141F040013F
:1001F00041F48061EDE741B144F0020141F00401B6
:100200002960BDE8704002F041BD24F00201F5E72D
:1002100041B144F0200141F040012960BDE8704047
:1002200002F034BD24F02001F5E70CE041B144F4C4
:10023000007141F480612960BDE8704002F026BD84
:1002400024F40071F5E702F01BFD2C6070BD2DE970
:10025000F04107460E461546134C3946203C2046D1
:1002600002F016FB3146204602F01EFB29462046CE
:1002700002F026FB3946204602F028FB3146204694
:1002800002F027FB2946204602F026FB394620468D
:1002900002F0F8FA3146204602F000FB29462046DB
:1002A000BDE8F04102F006BB202C014058000020C0
:1002B0000648804706480047FEE7FEE7FEE7FEE700
:1002C000FEE7FEE7FEE7FEE7FEE7FEE7E9210008BE
:1002D00015010008D2B201E000F8012B491EFBD243
:1002E00070470022F6E710B513460A460446194641
:1002F000FFF7F0FF204610BD064C074D06E0E06812
:1003000040F0010394E8070098471034AC42F6D35C
:10031000FFF704FF044B0008244B00080248016863
:1003200021F0100101607047580802400D490D4A44
:100330004C39012802D0022808D005E0106818B90D
:10034000086840F004000860002070470868400713
:1003500005D5106808B100207047012070470020C3
:10036000704700005408024010B5072309280BD835
:10037000124A146800EB400083409C4314601368E9
:1003800081400B43136010BD11280DD80A380B4A69
:10039000121F146800EB400083409C4314601368F4
:1003A00081400B43136010BD04484C30026822F0BA
:1003B0000702026002680A43026010BD1008024092
:1003C00070B504460D4601F02FFC34B1284601F00B
:1003D0003BFCBDE8704000F057BA01F02DFC284608
:1003E00001F018FCBDE87040FFF798BF02480168B3
:1003F00021F00201016070470808024002480168CC
:1004000041F002010160704708080240024801689B
:1004100021F48071016070470808024004490A68AD
:1004200022F400620A600A6802430A607047000012
:10043000080802401049B0F5006F12D040F60102E2
:1004400012180AD0B0F5805F10D06FF4805290423D
:1004500002D10A6802400A6070470A6802400A60D6
:100460007047086840F4006008607047086840F40E
:100470008050086070470000040802401049B0F541
:10048000801F12D000F58012521C0AD0B0F5004F28
:1004900010D06FF40042904202D10A6802400A6014
:1004A00070470A6802400A607047086840F480108C
:1004B00008607047086840F400400860704700001A
:1004C0000808024002490A6882430A607047000037
:1004D00000080240012805D00848006810420AD0F0
:1004E00001207047054858380068084201D00120B3
:1004F00070470020704700207047000058080240F5
:1005000002490A6882430A607047000000080240FE
:1005100003490968014201D001207047002070475B
:10052000000802402DE9F04F2DED028B85B0884880
:100530000068C0F30150471CC0F104050420FFF718
:10054000E7FF01280BD00120FFF7E2FF012801D1CE
:10055000FFF7D6FF05B0BDEC028BBDE8F08FDFF8EA
:10056000F4910821484600F0D0FD4FF4A00000F0BF
:100570009FF9202202210120FFF7ACFF0028F8D0CC
:100580000220FFF79FFF1020FFF79CFF00F0B0F95B
:10059000DFF8C4A1AAF80000C00000EE100AB8EE0F
:1005A000400ADFED6E0A20EE200A9FED6D8A6D4E47
:1005B00020EE080ABDEEC00A10EE100A7084DFF8C3
:1005C000A88198F8010010B1304600F08DFA2C4651
:1005D0004FF0140B2F440AE0601B0BEB8000C0B2FD
:1005E00000F002F906EB44010883641CE4B2A74260
:1005F000F2D806EB4500008BB18A401A00B2AAF887
:1006000002006D1C06EB4501098BF28A891A09B2BA
:10061000AAF80410C00000EE100AB8EEC00ADFED20
:10062000530A20EE200A20EE080ABDEEC00A10EEA2
:10063000100A3082C80000EE100AB8EEC00A20EEA0
:10064000200A20EE080ABDEEC00A10EE100A7082E1
:1006500098F80300012803D198F8020001280AD075
:100660000020FFF761FD0420FFF74AFF08214846FC
:1006700000F049FD6EE798F800000025042804D03A
:10068000052805D006281DD108E0A6F8445019E039
:10069000374800F01DFAA6F8440013E036F8400F82
:1006A000B0807188401A01B23148543801F0D0F955
:1006B000B081F18910FB01F07188C01301FA80F05C
:1006C0007080403E274901A801F054FADDE901019C
:1006D000CDE9030103A800F026FA34463060B4F8EF
:1006E0004410204801F014FAA06021482038018805
:1006F000A4F84610808BA4F848006189401A01B222
:100700001B481C3801F0A4F9E081B4F846002189A7
:10071000401A01B21648383801F09AF9A081114800
:100720000C30064601F0A6F842F26660E081A58131
:10073000B4F84410304602F069FB606000F0FEFA45
:10074000211D0C4801F0D8FB0120FFF7EDFC8AE7E2
:1007500038080240003802400000002009ABD338BE
:1007600000FEFF46840000204C000020FDC300393D
:10077000C40100203001002000B50346187800288D
:1007800002D000F071F801E000F066F8587810B17E
:10079000FFF734FE01E0FFF729FE0848016841F049
:1007A00028010160586800F0A9F89868FFF736FE44
:1007B000D8685DF804EB00F06FB8000060080240F4
:1007C00004490A6822F440120A600A6802430A6077
:1007D00070470000380802400248016821F4806137
:1007E000016070470408024008B5044908442830F5
:1007F00000900098006880B208BD00000008024028
:1008000004490A6822F4E0420A600A6802430A6066
:10081000704700000808024010B5064A136801EB53
:1008200081011F248C40A343136013688840034355
:10083000136010BD38080240802804D805490A68B2
:1008400002430A607047034954310A6802430A6050
:1008500070470000040802400248016821F48071DA
:1008600001607047040802400248016841F4807149
:1008700001607047040802400248016841F001012C
:1008800001607047080802400248016841F0100109
:10089000016070475808024004490A6822F4700257
:1008A0000A600A6802430A60704700002C08024090
:1008B0000E49B0F5A00F0CD000F5A002521C04D0D8
:1008C000B0F5800F0AD0002070470A6802400A6025
:1008D000F9E7086840F4A0000860F4E7086810F43D
:1008E000800F01D0012070470020704708080240A7
:1008F0000148006880B270474C08024004490A6809
:1009000022F460220A600A6802430A60704700000D
:100910000808024010B51F2305290BD8144A146893
:1009200001EB81018B409C431460136888400343B2
:10093000136010BD0B290DD80D4A121F1468891FB2
:1009400001EB81018B409C43146013688840034392
:10095000136010BD064A083A14680C3901EB810196
:100960008B409C431460136888400343136010BDA0
:10097000340802404FF4805001F078B970B586B069
:10098000FFF7F8FF01258DF8085000248DF8094085
:100990004FF4602003900494059402A8FFF7ECFE46
:1009A00000210B20FFF7B6FF02210B20FFF7DCFC34
:1009B0002E053046FFF704FF02210820FFF7D4FC84
:1009C00003210820FFF728FF02210820FFF724FF5A
:1009D0000020FFF715FFFFF7FFFE2803FFF72AFDB2
:1009E000FFF74AFF202240210220FFF773FD002875
:1009F000F8D00120FFF79AFC0220FFF797FC0028AF
:100A0000FAD113208DF804008DF805408DF80640CA
:100A10008DF8075001A800F0DFFF8020FFF70CFFE2
:100A2000FFF7F4FC3046FFF729FD4FF40040FFF7D5
:100A300025FD06B070BD000073B5BDF900301D4640
:100A4000002B00DA5B42BDF902201446002A00DACE
:100A500052421D481D4E9A4218DC9202B2FBF3F23C
:100A600030F8120036F812205A43D20B0A80002DBB
:100A700004DD002C25DCC0F5803022E0002C02DDF6
:100A8000C0F500401DE000F500401AE09B02B3FBFA
:100A9000F2F330F8130036F813305343DA0B0A80C0
:100AA000002D07DD002C02DDC0F5804009E000F5D7
:100AB000404006E0002C02DD00F5804001E0C0F57A
:100AC000404080B27CBD0000BC2E0008BE40000843
:100AD000018945F27C1211FB02F1090C8289114453
:100AE00089B28181084670470B4B19461A884968BC
:100AF000402A0BD2521C1A800848008808445860CB
:100B000007499868098808449860704700221A804D
:100B100089118182C18270473C00002002000020C0
:100B200004000020FEE708B500210091B0F9001094
:100B3000ADF80010B0F90200081A49F2CE3148436E
:100B40000014ADF80200009808BD416070470168CC
:100B500041F001010160704701617047026822F0B5
:100B60002002026002680A4302607047026822F0B5
:100B70001002026002680A430260704710B5044622
:100B80000B462046196800F04CF82046596800F0E2
:100B900036F820469968FFF7E9FF2046D968FFF745
:100BA000D4FF2046196900F034F82046596900F056
:100BB0001EF82046996900F036F82046D96900F001
:100BC00020F82046196AFFF7C9FF2046596A00F04D
:100BD00032F82046996ABDE81040AFF30080026801
:100BE00022F48042026002680A4302607047026891
:100BF00022F08002026002680A4302607047C1600E
:100C00007047026822F44062026002680A43026090
:100C10007047026822F04002026002680A430260E4
:100C2000704781607047026822F440720260026877
:100C30000A4302607047026822F440520260026870
:100C40000A43026070470000016821F00101016061
:100C50000021016041608160C1602449234A083954
:100C6000904204D1486840F00F00486070471F4A26
:100C70001432904204D1486840F0F0004860704758
:100C80001A4A2832904204D1486840F470604860A3
:100C90007047164A3C32904204D1486840F4704094
:100CA00048607047114A5032904204D1486840F47D
:100CB0007020486070470D4A6432904204D1486801
:100CC00040F4700048607047084A7832904204D17E
:100CD000486840F0706048607047044A8C32904227
:100CE000FAD1486840F07040486070470800024000
:100CF0000021016041608160C160016141618161E9
:100D0000C16101624162816270470246491E012051
:100D10008840401EC143824202DC8A4201DA084612
:100D2000704710467047704703E00921491E4A1C6E
:100D3000FCD1401E411CF8D1704700002DE9FF474F
:100D40004FF00009CDF808903F4CBDF90060B4F9B0
:100D50000400E28C3118B4F90000504340F3CF3066
:100D6000081A1021FFF7D1FF01B204F1280000F0AA
:100D70006DFDADF80800B4F90010A28C514341F3A9
:100D8000CF31401A1021FFF7C0FF05B2ADF8045073
:100D9000BDF90270B4F90600E28C3918B4F902000A
:100DA000504340F3CF30081A1021FFF7AEFF01B2D5
:100DB00004F1300000F04AFDADF80A00B4F9021069
:100DC000A28C514341F3CF31401A1021FFF79DFF10
:100DD0000FFA80F8ADF8068003A90198FFF72CFE02
:100DE000A4F84000BDF80C004FF47A4148430014C9
:100DF0001121FFF78AFF01B204F1380000F026FD4F
:100E0000854204DDA6F5C876ADF8006009E04142F0
:100E10008D4204DA06F5C876ADF8006001E0ADF861
:100E20000090804505DDA7F5C877ADF80270BDE8F4
:100E3000FF874042804504DA07F5C877ADF80270B5
:100E4000F5E7ADF80290F2E78400002070B53C4869
:100E50004FF47A7404854485048644860487448765
:100E60003849D1ED000A91ED081A80EE810ADFEDD4
:100E7000360A20EE200ABDEEC00A10EE102AC28407
:100E800091ED031AD1ED091A81EE210A20EE200A14
:100E9000BDEEC00A10EE101A818440F61271A0F85F
:100EA0004E108C212948FFF71CFA284864214185FF
:100EB00001854FF6FF734362002202620363C26240
:100EC000C261A0F84610A0F8444049F698130364A4
:100ED0005D42C563C36485648263A0F86210A0F8B4
:100EE0006040C3658565836645664265C1818481CE
:100EF0008360456043610561026040F67C42A0F872
:100F0000802040F23F13A0F88230A0F88420A0F89F
:100F1000882040F65D12A0F886204F22A0F88A2093
:100F200040F26932A0F87A2040F20242A0F8742020
:100F30000A22A0F87020064841847D21018470BDFA
:100F4000840000200800002000FEFF46540100201D
:100F50003001002010B514074FEA42724FEAD26206
:100F60004FF00F0303FA02F301FA02F104D5426ACB
:100F70009A431143416210BD026A9A4311430162D0
:100F800010BD00002DE9F04186B0684600F0D2F8AF
:100F90000225049501240194402000902F4F6946BA
:100FA000384600F088F8202000900194DFF8B080E7
:100FB0006946404600F07FF820030090019469469E
:100FC000384600F078F808260096019469464046B5
:100FD00000F071F8302000900394122001900596E3
:100FE00002946946384600F066F8684600F0A2F8B8
:100FF00004950195032405944FF4E0600090694640
:10100000384600F058F805944FF460400090694667
:10101000404600F050F8002001900295092005900C
:10102000A80200906946384600F045F8684600F08E
:1010300081F80194802000906946384600F03BF822
:10104000684600F077F80194042000906946404615
:1010500000F031F806B0BDE8F08100000034024035
:101060000038024010B5C36A520003249440A343E1
:1010700091401943C16210BD70B5056801F00304C9
:10108000530003269E40B5439C402C430460012935
:1010900005D0112903D0022901D0122908D14368B3
:1010A00001249440A343C1F30011914019434160CE
:1010B00070BD8162704770B506460C4600251DE084
:1010C0000120A8400140C1B12A4630466169FFF7BE
:1010D00041FF2A4630466168FFF7CEFF2A46304678
:1010E000A16800F014F82A463046E16800F019F8CB
:1010F0002A4630462169FFF7B5FF6D1C216831FA99
:1011000005F0DDD170BD816270478161704710B517
:10111000C368520003249440A34391401943C16023
:1011200010BD10B5836801249440A3439140194336
:10113000816010BD4FF6FF7101600021C160416008
:101140000F224261816001617047FEE72DE9F041A5
:10115000DFF86480194F4146384600F0A8F9174E71
:10116000174C1836032580B1207818B1384600F0A6
:10117000B7F906E03088C00703D0384600F0B5F96B
:1011800065714146384600F08FF9DFF838803846FF
:10119000414600F08CF900280CD03088C00703D0FD
:1011A000384600F0A2F9657141463846BDE8F04185
:1011B00000F07AB9BDE8F08100040010005400404E
:1011C00060000020000100102DE9F0414F4E304634
:1011D00000F0AEF94E4A0027811A4E4C4FF4E068F9
:1011E00090426FD015DC6FF44031401829D00128AF
:1011F00025D03F2823D1304600F018F9A26902F823
:10120000010BA261208A401E81B22182012936D0C1
:101210003BE00125022942D0042910D1A078002802
:101220000DD1E089D0B3A089411CA18139491C317D
:10123000095C304600F0FDF8E089401EE081BDE821
:10124000F081207808B902206071A078012806D0CA
:10125000A17C3046BDE8F041002200F05DB8607826
:1012600030B1A17C0122304600F056F86770E6E705
:10127000A17C3046BDE8F041002200F04DB8304678
:1012800000F053F8304600F030F9208A0028D6D11B
:101290004146304600F048F96771D0E71AE02078FF
:1012A00048B127704146304600F03EF9304600F024
:1012B0001CF96771C3E7A179304600F0BAF8657090
:1012C000BDE7FFE7A0780128B9D13046BDE8F0417D
:1012D00000F006B9304600F008F94FF4C82161610A
:1012E0004FF4003706E06269521E6261521C01D160
:1012F00001F0E2FD3946304600F0D9F80028F2D17D
:1013000025703046BDE8F04100F0EAB800540040D6
:101310008000070060000020012A03D021F00101B5
:101320000182704741F00101FAE7018821F48061F0
:1013300001807047028822F480620A43028070476D
:10134000028922F400420A4302817047028822F097
:101350000A020A430280704770B586B004460D4603
:101360001646684600F0B8FCA08820F03F030299BA
:101370002B48B1FBF0F080B2202800D92020034395
:10138000A380228822F001022280226A22F03F03F9
:10139000244A95420BD86A00B1FBF2F189B20429C4
:1013A00000D20421401C00F03F0018432FE0B6F5A6
:1013B000804F05D005EB4502B1FBF2F18AB208E09F
:1013C00005EBC50202EB0512B1FBF2F189B241F463
:1013D0008042110501D142F0010242F40041124E57
:1013E0004FF47A72B54209D84FF496756843B0FB52
:1013F000F2F0401C00F03F00184308E0C0EB001082
:10140000C000B0FBF2F0401C00F03F001843206227
:10141000A183208840F00100208006B070BD00004C
:1014200040420F00A0860100801A0600008AC0B268
:10143000704701827047000010B58AB0174C2046F3
:1014400000F084F804A8FFF775FE30210491012113
:1014500007911222059208220992069104A91048C8
:10146000FFF729FE204600F071F80021ADF80410C6
:101470004BF6FF71ADF80610FF20ADF808002015FF
:10148000ADF80A000001ADF80C000648009069466E
:10149000204600F02FF80AB010BD000000540040B4
:1014A00000340240801A0600C943818270470CB59F
:1014B0000190080F009021F07F40009900290AD088
:1014C00001991431019101990968014201D100206B
:1014D0000CBD01200CBD000C019918310191F2E7FF
:1014E000018841F4807101807047018841F40071E6
:1014F0000180704770B505460C462846E288216891
:10150000FFF72AFFA1882846FFF720FF61892846B8
:10151000FFF710FFA1892846FFF712FF218928460F
:10152000BDE8704000F00BB882888A438280704723
:10153000818A008B0004014321F07F4070470289BB
:101540006FF309020A43028170470000054988428F
:1015500003D14FF4001000F0A3BB4FF4800000F063
:101560009FBB00000054004010B50E4908790328C5
:1015700017D2401C08714FF40014204600F090FB75
:10158000204600F07DFB08490A6822F470420A6098
:10159000204600F085FB00F009F8BDE81040FFF799
:1015A0004BBF10BD600000200038024030B587B04E
:1015B00001A8FFF7BFFD102001900020049001203A
:1015C00002900D4D01A92846FFF775FD002410215A
:1015D0002846FFF79AFD0520FFF7A6FB10212846B5
:1015E000FFF767FD0520FFF79FFB641CE4B2092CA1
:1015F000EDD307B030BD00000034024030B587B0F5
:1016000001A8FFF797FD3020019000200490029080
:1016100001A91348FFF74FFD124C4FF4C820606139
:101620000F4D10352868C0F30110032807D06069FA
:10163000401E6061401CF5D1FFF796FFF2E70A48B3
:10164000018841F40041018000BF00BF00BF00BF1E
:1016500000BF018821F40041018007B030BD0000C7
:1016600000340240600000200054004070B5046A5D
:1016700024F001040462058B046A25F0F3054FF69B
:10168000FF7606EA031313432B43104A90420ED011
:101690000F4A90420BD0B0F1804F08D00D4A9042D3
:1016A00005D00D4A904202D00C4A904205D124F058
:1016B00002020A4342F0010104E024F00A020A4354
:1016C00042F001010383016270BD0000002C014063
:1016D000003401400004004000080040000C0040BD
:1016E000F0B5046A24F010040462058B046A0E014C
:1016F00025F473454FF6FF7707EA03332B4307EAD8
:1017000002221A430F4B98420ED00F4B98420BD037
:10171000B0F1804F08D00D4B984205D00C4B984249
:1017200002D00C4B984205D124F02001314341F006
:10173000100104E024F0A0030B4343F010010283E6
:101740000162F0BD002C0140003401400004004063
:1017500000080040000C0040F0B5046A24F48074D6
:101760000462C469A5B2046A0E0225F0F3054FF6BF
:10177000FF7707EA031313432B43104A90420ED01E
:101780000F4A90420BD0B0F1804F08D00D4A9042E2
:1017900005D00D4A904202D00C4A904205D124F463
:1017A0000071314341F4807104E024F420620A4363
:1017B00042F48071C3610162F0BD0000002C014061
:1017C000003401400004004000080040000C0040CC
:1017D000F0B5046A24F480540462C469A5B2046AB2
:1017E0000E0325F473454FF6FF7C0CEA02272F43C6
:1017F0000CEA03323A43104B98420ED00F4B9842FA
:101800000BD0B0F1804F08D00D4B984205D00D4B56
:10181000984202D00C4B984205D124F40051314338
:1018200041F4805104E024F400530B4343F480510D
:10183000C2610162F0BD0000002C01400034014093
:101840000004004000080040000C004010B50446B1
:101850006068B4F9002002FB0101B4F90220C01352
:1018600002FB10101F21FFF750FA606040F3CF30E9
:1018700010BD000070B5B0F9021011FB01F2B0F913
:10188000003013FB03261D4A44F6DA14528C6243DF
:10189000D20B4EF264645443241446F61265554349
:1018A0002D14524396420FD9002901DA4E4200E02E
:1018B0000E46A6420CDD002901DD448001E06142B4
:1018C0004180002B01DD058070BD6942018070BD43
:1018D000B3FBF2F31B021BB24FF48074A34200DD92
:1018E0002346074C34F91330534343F30F220029A6
:1018F00001DD428070BD5142418070BD84000020F6
:10190000C0480008FEE72DE9F05F04460D46217847
:101910000326012705F10C0005F1180805F124093B
:1019200005F1300A05F13C0B09290AD2DFE801F084
:10193000050B17283743484E5000298801F010FA4C
:101940002770BDE8F09F01F044FA0028F9D06988BB
:10195000404601F005FA022020706770F1E740462A
:1019600001F037FA0028ECD000206070E770A988F9
:10197000484601F0F5F92670BDE8F05FFFF766BA5A
:10198000484601F026FA0028DBD0A0780128D8D1FB
:10199000E988504601F0E4F904202070D1E7504670
:1019A00001F017FA0028CCD02989584601F0D8F95F
:1019B00005202070C5E75846BDE8F05F01F009BA80
:1019C000A0780028BDD107202070BAE72670B8E7BC
:1019D0002670B6E77047000070B50F23C278012665
:1019E0000178002A1ED0144A126802F4E062C2F59F
:1019F000E062120AC2F10404D3404578A54082781F
:101A00001A402A43120101F1E02181F800240078F4
:101A100000F01F018E404009800000F1E020C0F876
:101A2000006170BD01F01F0086404809800000F190
:101A3000E020C0F8806170BD0CED00E00249084371
:101A400002490860704700000000FA050CED00E054
:101A500070B50446B4F90E20206801FB02056068E9
:101A6000C003A268D203854201DA054602E095422E
:101A700000DD15462560B4F90C0048431921FFF735
:101A800044F905EB8010C01321696269884201DACC
:101A9000084602E0904200DD104600B2608370BD4F
:101AA00038B5164D00200090154C206820F08000BD
:101AB0002060206840F04000206069461148A84737
:101AC0000098C0B2052813D869460F48A847009867
:101AD000010E00F47F02120A00F47F40000211435D
:101AE00001430091094A106800F07F4008431060EC
:101AF000206840F08000206038BD0000A502FF1F74
:101B00000020024020F0FF1F30F2FF1F04180040A9
:101B1000F8B504460020009088091449096831F896
:101B20001050134931F81060608810FB06F02188CE
:101B300040F3CF3011FB05F1C91300FA81F01021F9
:101B4000FFF7E3F8ADF80000608810FB05F021888E
:101B500040F3CF3011FB06F141F3CF31401A102191
:101B6000FFF7D3F8ADF802000098F8BD4800002058
:101B7000BE3600087CB5204A95880022009201926A
:101B80004B8AB1F910205B421BB2D418644224B2D4
:101B9000052D22D2DFE805F003090F151B0021F8FF
:101BA000502F8B804C8050391CE050314A808B8004
:101BB00021F8504916E050314A800B808C80503912
:101BC00010E050318A800B804C8050390AE050314F
:101BD0008A804B8021F8504904E021F8502F4B8037
:101BE0008C8050394A6D096DCDE900120099016071
:101BF000BDF8041081807CBD30010020044BDA6AFE
:101C000022F4806222F4784202430A43DA62704787
:101C100000100240034AD16A21F00F010143D16252
:101C200070470000001002400248016841F00101C5
:101C300001607047801002400248C16A21F480713F
:101C4000C162704700100240034AD16A21F4F87162
:101C50000143D162704700000010024002494A6906
:101C600002434A61704700000010024003498A6A3B
:101C700002438A628A6A82438A6270470010024085
:101C80000249CA698243CA617047000000100240DD
:101C90000249CA690243CA6170470000001002404D
:101CA00003490A6902430A610A6982430A6170476B
:101CB0000010024002498A6902438A6170470000AD
:101CC000001002400349CA680243CA60CA688243DE
:101CD000CA6070470010024030B52F4B59682F4A38
:101CE00011405A6802F480320C0103D4022404EB40
:101CF000914103E06FF4F77404EB91412AB15A6803
:101D000092030BD5264A51430AE01A6CD20702D03F
:101D1000234A514304E0234A514301E0214A5143FD
:101D20005A6802F00C021F4C7AB3042A30D0082AF9
:101D300030D004605A68C2F303121B4CA55C0268E1
:101D4000EA4042605D68C5F30225655D22FA05F54B
:101D500085605D68C5F3C225645D22FA04F4C46041
:101D6000DC6A04F00F04104D10352C5DB2FBF4F268
:101D70004261DA6A120902F00F0205F1100333F82A
:101D80001220B1FBF2F1016130BDFFE70460D1E741
:101D90000460CFE70160CDE70010024000003C087E
:101DA00000093D0000127A00C24A000810B54FF445
:101DB0008060FFF743FE4FF4C06000F02DF84FF451
:101DC0000060FFF777FF0120FFF762FF0420FFF7B5
:101DD0005FFF1020FFF75CFF0120FFF73FFF4FF48C
:101DE000C070FFF73BFF0120FFF764FF4FF4805006
:101DF000FFF734FF02210020FEF7E2FA4FF46051B2
:101E00000020FFF7FBFEC020FFF742FFBDE81040B7
:101E10004FF40010FFF73CBF034A516821F4E06122
:101E200001435160704700000010024070470000FD
:101E300070B50C4600780025042811D02C4A0528DE
:101E400021D006280BD12B48B2F84C10008B401A39
:101E500001B22848FFF7FCFD5034A083258070BDF7
:101E6000B4F97E00B4F98010884205DAB4F8821023
:101E70000844A4F87E0001E0A4F87E105034E08D00
:101E8000A083258070BDB4F97210B4F9740081424A
:101E900005DAB4F870000844A4F8720001E0A4F870
:101EA000720034F9720FB2F84E1010FB01F1C91331
:101EB000E180B4F90810723C884203DA6C34208B5C
:101EC000208070BDB4F98810B4F98600814205DD28
:101ED000B4F88A00081AA4F8880001E0A4F8880081
:101EE0004A34B4F93E006084E58044F84A0C70BD81
:101EF00084000020540100202DE9F0470446694B7E
:101F00001F8840F6DB53684D7B4305EA4313674D5A
:101F10006D8C93FBF5F39EB2A681B1F9025006FBDE
:101F200005F343F3CF33098846F6D86C11FB0CF95F
:101F30004FEAE93808EB650C0CFB06F141F3CF31B1
:101F40004FEA650AAAEBE93909FB06F949F3CF36EE
:101F5000A8EB65080FFA88F8CCF1000C0FFA8CF9A1
:101F6000002D01DD012500E00025B8F1000F02DDA4
:101F70004FF0010C01E04FF0000CB9F1000F02DD51
:101F80004FF0010801E04FF000084FEA880808EB25
:101F90004C0C6544EDB2072D22D2DFE805F0210498
:101FA000090E13181D0030460A460121A18017E0D2
:101FB00008465A420521A18012E070421A460021CB
:101FC000A1800DE0584232460321A18008E0184666
:101FD0004A420221A18003E0484272420421A180CA
:101FE0004110501089B2218182B262817808A0EB41
:101FF0005100A0EB520000B2014409B20A4412B2EF
:10200000A388062B2DD2DFE803F0030A11181F2640
:10201000E081218262826083A183E28321E0E18109
:10202000208262826183A083E2831AE0E2812082BF
:1020300061826283A083E18313E0E2812182608276
:102040006283A183E0830CE0E1812282608261836C
:10205000A283E08305E0E081228261826083A28323
:10206000E183134DE189284600F012FC218A2846BD
:1020700000F01AFC618A284600F022FC618B284699
:1020800000F000FCA18B284600F008FCE18B2846FC
:1020900000F010FCE089A082208AE082608A208320
:1020A000BDE8F0875C0000200080FFFF8400002076
:1020B000002C014000F090BE1FB50020029001905E
:1020C0000090364C206840F4803020604FF400517E
:1020D0002068C0F3404001900098401C00909DF89B
:1020E000040010B900988842F2D12068C0F3404043
:1020F00001909DF8040070B12948016821F00701A2
:10210000016028490968C9B2122908D8016841F05C
:102110000301016007E02549234808601FBD0168ED
:1021200041F00301016060686060606840F4005045
:102130006060606840F4A0606060FFF7B1FC6068B8
:102140001B4908406060206C20F00100206460683A
:102150000390039840F480300390039840F40030DB
:102160000390144903980843039003986060029811
:102170002064206840F08070206020688001FCD5D9
:10218000606820F003006060606840F002006060FA
:102190006068C0F381000228FAD11FBD0010024020
:1021A00000200240002004E000127A0050000020CD
:1021B000FFFFC0F700003C0810B5FFF7F7FD72B64F
:1021C000FEF7E0FE012000F083F800F0EBF900F0EC
:1021D00053F9FEF7D3FB62B60020FDF7A5FFBDE87B
:1021E0001040FFF729B9000010B51E48016841F4FE
:1021F000700101601C48016841F001010160416803
:102200001A4A114041600168194A11400160016891
:1022100021F4802101604168164A114041604FF469
:102220006051C162016C41F0010101641249816099
:10223000C16941F08051C161C16921F08051C16122
:102240000E48016841F080010160016821F0100131
:102250000160FFF731FF03494FF0006080390860EB
:1022600010BD000088ED00E0001002400CC07FF8B7
:10227000FFFFF6FEFFFFC0F700009F0400200240B2
:1022800010B5094C8021204600F0AAFB002809D097
:102290008021204600F099FB2046BDE810408021B7
:1022A00000F09BBB10BD0000002C014010B5074C96
:1022B0001021204600F017FB002805D02046BDE87D
:1022C0001040102100F089BB10BD0000002C01401F
:1022D000F0B58DB007465D484FF4FA315C4D0068AB
:1022E000B0FBF1F0A8805B4E304600F0DFFC09A89F
:1022F00000F066FA0320ADF824004020ADF8260077
:10230000A888ADF828007015ADF82A0000248DF8D3
:102310002C4009A9304600F0E9F97020ADF814000E
:10232000ADF81640ADF81840A8888008ADF81A003E
:10233000ADF81C40ADF81E40ADF82040ADF822408D
:10234000012F77D02C700220ADF81C000820ADF8CA
:102350001E004101ADF82010ADF8221005A930464D
:1023600000F062FB05A9304600F0AAFB05A9304643
:1023700000F0FCFBA8888108304600F083FAA888AA
:102380008108304600F08AFAA8888108304600F0BB
:1023900091FAA8888108304600F098FAA888410888
:1023A000304600F096FA0821304600F083FB082101
:1023B000304600F0D1FB0821304600F021FC082116
:1023C000304600F024FC0821304600F02EFC304658
:1023D00000F01BFB304600F01DFB4FF080713046D3
:1023E00000F044FC0021304600F043F9304600F094
:1023F00039F94FF40060ADF800004010ADF802006C
:10240000ADF804400920ADF806004FF48050ADF857
:1024100008004000ADF80A00ADF80C408DF80E4001
:102420006946304600F0DBF9304600F0F8FA0DB0AE
:10243000F0BDFFE701202870ADF81C40ADF81E404C
:10244000ADF82040ADF8224088E7000050000020A1
:1024500058000020002C014010B501218C072046B7
:1024600000F041FA002805D02046BDE810400121C7
:1024700000F0B3BA10BD0000F0B59FB019A8FEF788
:1024800059FE4020199000241A9402251D9503201E
:102490001E9019A93548FEF70EFE01A8FFF71CFC97
:1024A000DDE90201884202D90398400000E0039868
:1024B0004FF47A71B0FBF1F02D4E70802D4F3846FD
:1024C000FEF7C2FB07A8FEF713FC2B4807902B482A
:1024D000089009940A950B9480200C9085000D9526
:1024E00000010E900F9440001090119407A93846F7
:1024F000FEF744FB22213846FEF72EFB3846FEF756
:1025000026FB12A800F05CF97088401EADF84C0064
:1025100042F20F70ADF84800ADF84E40ADF84A40B9
:10252000154E12A9343E304600F0E0F80121304645
:1025300000F042F916A800F041FAADF85840ADF8A5
:102540005A400121ADF85C10ADF85E40ADF8604036
:1025500016A9304600F001FA304600F060FA29462C
:10256000304600F0BCF91FB0F0BD0000003802405A
:10257000580000201C00024034080040E001002008
:1025800010B5074C0121204600F02AFA002805D09A
:102590002046BDE81040012100F01FBA10BD000028
:1025A0000008004030B58BB005A8FFF795FBDDE9CA
:1025B0000601884202D90798440000E0079C01A860
:1025C00000F0FEF81648B4FBF0F0401EADF808002D
:1025D0006320ADF804000024ADF80A40ADF80640D1
:1025E000104D01A9284600F081F80121284600F08D
:1025F000E3F80121284600F0ECF930218DF80010B5
:102600008DF8014001218DF802108DF80310684605
:10261000FFF7E2F9284600F002FA0BB030BD0000E7
:10262000A08601000010004010B50A4C0121204690
:1026300000F0D6F900280CD00121204600F0CDF999
:10264000054800F06BFBBDE8104004490448FFF763
:10265000EFBB10BD00100040DC0000205401002042
:102660004C000020016841F48021016070478185A1
:102670007047026822F440120A4302607047002942
:1026800004D0016841F4006101607047016821F4E1
:10269000006101607047002904D0016841F4805155
:1026A00001607047016821F4805101607047002982
:1026B00004D0016841F4005101607047016821F4C1
:1026C000005101607047002904D0016841F4804145
:1026D00001607047016821F4804101607047026821
:1026E00022F070020A4302607047000070B5034692
:1026F0000C46254DAB4207D061881846FFF7EFFF27
:10270000E188184600F0B6F8A1881846FFF7AFFF39
:102710002188184600F04EF81C4A1D4E934201D005
:10272000B34203D1217A184600F048F80121184637
:1027300000F042F8AB4203D0617A1846FFF79FFFE2
:102740004FF08045934209D0B34207D0AB4205D049
:102750001048834202D01048834203D1617B18465F
:1027600000F01CF8AB420DD1A17A1846FFF793FF99
:10277000E17A1846FFF79BFF217BBDE870401846C1
:10278000FFF7A1BF70BD000000100040002C014009
:10279000003401400004004000080040002904D03B
:1027A000016841F4004101607047016821F4004173
:1027B00001607047018570478182704701867047CC
:1027C0004FF6FF71818000210180C180418001723C
:1027D00041728172C172017341738173704710B588
:1027E00004460A461188508893880143D0880343E1
:1027F0001089194301435089014390890143A4F88A
:102800004410907B002804D00021204600F072F88C
:1028100003E00121204600F06DF8D07B18B120467E
:1028200000F0EEF802E0204600F0E5F8107C20B160
:102830002046BDE8104000F034BA2046BDE8104004
:1028400000F02ABA026A01238B409A430262704761
:10285000026A01238B401A4302627047026A042312
:102860008B409A4302627047026A04238B401A43EA
:1028700002627047026822F44072026002680A43F2
:1028800002607047426B92B242EA01414163704775
:10289000426B6FF30F020A4342637047826B92B23E
:1028A00042EA014181637047826B6FF30F020A4372
:1028B00082637047C26B92B242EA0141C1637047C2
:1028C000C26B6FF30F020A43C2637047A0F8601037
:1028D0007047A0F864107047A0F8681070478289AC
:1028E0000A43828170470069084201D00120704785
:1028F00000207047002904D0016841F48061016024
:102900007047016821F4806101607047028B22F0FA
:102910000C020283028B0A4302837047028B22F46B
:1029200040620283028B4FF6FF7303EA01210A43E0
:1029300002837047C2694FF6F3731A40C261C269DD
:102940000A43C2617047C2694FF2FF331A40C26145
:10295000C26942EA0121C161704770B506460C4662
:1029600025886188A2882389002D0CD0042D13D0DE
:10297000082D1AD03046FEF72BFFE1883046BDE81F
:102980007040FFF7E0BF3046FEF770FEE18830464A
:10299000BDE87040FFF7BABF3046FEF7A1FEE18800
:1029A0003046BDE87040FFF7B9BF3046FEF7D4FEB1
:1029B000E1883046BDE87040FFF7BCBF0021418090
:1029C00001228280C1800181704782898A4382818D
:1029D000704782890A4382817047C9430161704709
:1029E00002690A4080890840002A02D008B101200B
:1029F000704700207047016821F480310160704702
:102A0000016841F4803101607047416841F4002160
:102A100041607047416841F40011416070470168AE
:102A200041F0010101607047F0B505460C460021F8
:102A30002846FFF707FF6E68288B20F0700020F013
:102A400003002788074321890022284600F004F963
:102A5000608820B100212846FFF7FAFE03E000213C
:102A60002846FFF7EFFE1148854202D01048854204
:102A700017D161890022284600F0E5F8A08820B12E
:102A800000212846FFF7F0FE03E000212846FFF76B
:102A9000E5FE26F4807020F40070A1890143E689E8
:102AA0000E436E602F83E0886863F0BD002C014008
:102AB00000340140028B22F008020A43028370476F
:102AC000F0B505460C4604212846FFF7BBFE6E68AC
:102AD000288B20F4E04020F4407021884FF6FF72EC
:102AE00002EA0127074321890422284600F0B4F8AE
:102AF000608820B104212846FFF7AAFE03E00421E4
:102B00002846FFF79FFE1248854202D011488542B1
:102B100019D161890422284600F095F8A08820B1D7
:102B200004212846FFF7A0FE03E004212846FFF712
:102B300095FE26F4806020F40060A18940EA8100BF
:102B4000E18940EA81066E602F83E088A863F0BDCA
:102B5000002C014000340140028B22F400624FF649
:102B6000FF7303EA0121114301837047F0B5054665
:102B70000C4608212846FFF765FE6E68E86980B2BA
:102B800020F0700020F003002788074321890822E5
:102B9000284600F061F8608820B108212846FFF738
:102BA00057FE03E008212846FFF74CFE12488542F5
:102BB00002D01248854219D161890822284600F0C6
:102BC00042F8A08820B108212846FFF74DFE03E017
:102BD00008212846FFF742FE26F4805020F40050DA
:102BE000A18940EA0110E18940EA01166E60EF61B7
:102BF000E088E863F0BD0000002C01400034014093
:102C0000C26992B222F008020A43C26170470829E1
:102C100006D0002903D1C16921F48031C161704718
:102C2000C16941F48031C1617047082906D000298B
:102C300003D1C16921F40011C1617047C16941F438
:102C40000011C161704710B5036A08249440A34382
:102C500091401943016210BD10B5036A02249440EB
:102C6000A34391401943016210BD00004268034B29
:102C70001A40426042680A43426070478FFFFFFE7D
:102C800030F8441FC1F30E010180704730F8441F33
:102C900041F4004101807047016821F40031016076
:102CA0007047016841F4003101607047154988425E
:102CB00002D1C014FFF706B8B0F1804F05D0124919
:102CC000884205D10220FEF7EBBF0120FEF7E8BFE6
:102CD0000E49884202D10420FEF7E2BF0C49884227
:102CE00002D10820FEF7DCBF0A49884202D1102039
:102CF000FEF7D6BF0849884202D14014FEF7E2BF72
:102D000070470000002C0140000400400008004013
:102D1000000C0040001000400034014000B50346A4
:102D200003F10C0000F044F803F1180000F040F843
:102D300003F1240000F03CF803F1300000F038F813
:102D400003F13C0000F034F803F148005DF804EBB7
:102D500000F02EB80021016041604172017270479D
:102D6000002202604160012141720272704700003E
:102D700000B50E48FFF7EEFF0C480C30FFF7EAFFF6
:102D80000A481830FFF7E6FF08482430FFF7E2FF53
:102D900006483030FFF7DEFF044814210C3801806C
:102DA00041808180C180018100BD0000E8000020D9
:102DB000417A01290CD1017A002909D1D0E9001208
:102DC000914205D2491C0160914201D10121017259
:102DD0007047007A7047000003480168002902D05C
:102DE0000168491E0160704754000020FEE702E0C0
:102DF00008C8121F08C1002AFAD170477047002086
:102E000001E001C1121F002AFBD17047F8B504464A
:102E10000020009088091449096831F810501349BE
:102E200031F81060208810FB05F0618840F3CF3046
:102E300011FB06F141F3CF31401A1021FDF765FF78
:102E4000ADF80000608810FB05F0218840F3CF301A
:102E500011FB06F1C91300FA81F01021FDF755FFAF
:102E6000ADF802000098F8BD48000020BE3600080A
:102E7000FFF7A2F9FDF7EAFFFFF77AFF0B4C4FF4DB
:102E8000FA650B490B48FEF73EFDB4F95000A84225
:102E900007DCB4F95200A84203DCB4F95400A8429C
:102EA000EFDD0020FDF740F9EBE700008400002093
:102EB000DC0000204C000020FEF7A0BB00000A0050
:102EC00014001F00290033003D00470051005C0042
:102ED000660070007A0084008F009900A300AD00A6
:102EE000B700C200CC00D600E000EA00F400FF000A
:102EF000090113011D01270131013C014601500167
:102F00005A0164016F01790183018D019701A101CB
:102F1000AC01B601C001CA01D401DE01E901F3012F
:102F2000FD01070211021B02260230023A0244028E
:102F30004E02580262026D02770281028B029502F4
:102F40009F02A902B402BE02C802D202DC02E6025B
:102F5000F002FB0205030F03190323032D033703BC
:102F600041034C03560360036A0374037E03880322
:102F700092039C03A703B103BB03C503CF03D9038B
:102F8000E303ED03F70301040C04160420042A04F0
:102F900034043E04480452045C04660470047A0459
:102FA00084048E049904A304AD04B704C104CB04C3
:102FB000D504DF04E904F304FD04070511051B052E
:102FC00025052F05390543054D05570561056B0599
:102FD00075057F05890593059D05A705B105BB0509
:102FE000C505CF05D905E305ED05F70501060B0677
:102FF00015061F06290633063D06470651065B06E1
:1030000065066E06780682068C069606A006AA0657
:10301000B406BE06C806D206DC06E506EF06F906CB
:1030200003070D07170721072B0735073E0748073A
:1030300052075C07660770077A0783078D079707B3
:10304000A107AB07B507BE07C807D207DC07E6072D
:10305000EF07F90703080D08170820082A083408A5
:103060003E08480851085B0865086F087808820820
:103070008C0896089F08A908B308BD08C608D008A0
:10308000DA08E308ED08F70801090A0914091E091E
:10309000270931093B0944094E09580961096B099F
:1030A00075097E09880992099B09A509AE09B80925
:1030B000C209CB09D509DE09E809F209FB09050AAD
:1030C0000E0A180A220A2B0A350A3E0A480A510A31
:1030D0005B0A640A6E0A770A810A8B0A940A9E0ABE
:1030E000A70AB10ABA0AC40ACD0AD70AE00AE90A4D
:1030F000F30AFC0A060B0F0B190B220B2C0B350BDA
:103100003F0B480B510B5B0B640B6E0B770B800B6B
:103110008A0B930B9D0BA60BAF0BB90BC20BCB0B02
:10312000D50BDE0BE70BF10BFA0B030C0D0C160C99
:103130001F0C290C320C3B0C450C4E0C570C600C30
:103140006A0C730C7C0C860C8F0C980CA10CAB0CCD
:10315000B40CBD0CC60CCF0CD90CE20CEB0CF40C6F
:10316000FD0C070D100D190D220D2B0D340D3E0D0C
:10317000470D500D590D620D6B0D740D7D0D870DB2
:10318000900D990DA20DAB0DB40DBD0DC60DCF0D5B
:10319000D80DE10DEA0DF30DFC0D050E0F0E180E06
:1031A000210E2A0E330E3C0E450E4E0E560E5F0EAD
:1031B000680E710E7A0E830E8C0E950E9E0EA70E63
:1031C000B00EB90EC20ECB0ED40EDC0EE50EEE0E16
:1031D000F70E000F090F120F1B0F230F2C0F350FC7
:1031E0003E0F470F500F580F610F6A0F730F7C0F80
:1031F000840F8D0F960F9F0FA70FB00FB90FC20F3F
:10320000CA0FD30FDC0FE50FED0FF60FFF0F0710FE
:103210001010191021102A1033103B1044104D10BB
:1032200055105E1067106F10781080108910921082
:103230009A10A310AB10B410BC10C510CE10D6104D
:10324000DF10E710F010F8100111091112111A1116
:1032500023112B1134113C1145114D1156115E11E2
:1032600066116F1177118011881191119911A111B7
:10327000AA11B211BB11C311CB11D411DC11E4118D
:10328000ED11F511FD1106120E1216121F12271262
:103290002F1237124012481250125912611269123D
:1032A00071127A1282128A1292129A12A312AB121D
:1032B000B312BB12C312CC12D412DC12E412EC1201
:1032C000F412FC1205130D1315131D1325132D13E2
:1032D00035133D1345134D1355135E1366136E13CB
:1032E00076137E1386138E1396139E13A613AE13B6
:1032F000B613BE13C613CE13D613DE13E613ED13A7
:10330000F513FD1305140D1415141D1425142D1497
:1033100035143D1444144C1454145C1464146C148B
:1033200073147B1483148B1493149B14A214AA1487
:10333000B214BA14C114C914D114D914E014E81485
:10334000F014F814FF1407150F1516151E15261581
:103350002D1535153D1544154C1554155B15631584
:103360006B1572157A158115891591159815A0158B
:10337000A715AF15B715BE15C615CD15D515DC1596
:10338000E415EB15F315FA150216091611161816A1
:10339000201627162F1636163E1645164C165416AE
:1033A0005B1663166A1671167916801688168F16C4
:1033B00096169E16A516AC16B416BB16C216CA16DD
:1033C000D116D816E016E716EE16F616FD160417F7
:1033D0000B1713171A1721172817301737173E170F
:1033E00045174C1754175B17621769177017781732
:1033F0007F1786178D1794179B17A217AA17B11757
:10340000B817BF17C617CD17D417DB17E217E91780
:10341000F017F717FE1706180D1814181B182218A6
:103420002918301837183E1845184C1853185A18D0
:10343000601867186E1875187C1883188A18911808
:1034400098189F18A618AD18B318BA18C118C8183C
:10345000CF18D618DD18E318EA18F118F818FF1875
:1034600006190C1913191A19211928192E193519A9
:103470003C1943194919501957195D1964196B19E9
:10348000721978197F1986198C1993199A19A0192C
:10349000A719AE19B419BB19C219C819CF19D51972
:1034A000DC19E319E919F019F619FD19041A0A1AB9
:1034B000111A171A1E1A241A2B1A311A381A3E1A00
:1034C000451A4B1A521A581A5F1A651A6C1A721A50
:1034D000791A7F1A861A8C1A931A991A9F1AA61AA1
:1034E000AC1AB31AB91AC01AC61ACC1AD31AD91AF6
:1034F000DF1AE61AEC1AF21AF91AFF1A051B0C1B4E
:10350000121B181B1F1B251B2B1B321B381B3E1BA2
:10351000441B4B1B511B571B5D1B641B6A1B701B01
:10352000761B7D1B831B891B8F1B951B9C1BA21B62
:10353000A81BAE1BB41BBA1BC11BC71BCD1BD31BC7
:10354000D91BDF1BE51BEB1BF21BF81BFE1B041C2E
:103550000A1C101C161C1C1C221C281C2E1C341C93
:103560003A1C401C461C4C1C521C581C5E1C641C03
:103570006A1C701C761C7C1C821C881C8E1C941C73
:103580009A1CA01CA61CAC1CB21CB81CBE1CC31CE4
:10359000C91CCF1CD51CDB1CE11CE71CED1CF31C5B
:1035A000F81CFE1C041D0A1D101D161D1B1D211DCF
:1035B000271D2D1D331D381D3E1D441D4A1D4F1D49
:1035C000551D5B1D611D661D6C1D721D781D7D1DC9
:1035D000831D891D8E1D941D9A1DA01DA51DAB1D4B
:1035E000B11DB61DBC1DC21DC71DCD1DD31DD81DCF
:1035F000DE1DE31DE91DEF1DF41DFA1DFF1D051E57
:103600000B1E101E161E1B1E211E261E2C1E321ED9
:10361000371E3D1E421E481E4D1E531E581E5E1E66
:10362000631E691E6E1E741E791E7F1E841E8A1EF6
:103630008F1E941E9A1E9F1EA51EAA1EB01EB51E8A
:10364000BA1EC01EC51ECB1ED01ED51EDB1EE01E20
:10365000E61EEB1EF01EF61EFB1E001F061F0B1FB4
:10366000101F161F1B1F201F261F2B1F301F361F4A
:103670003B1F401F451F4B1F501F551F5A1F601FE8
:10368000651F6A1F6F1F751F7A1F7F1F841F8A1F88
:103690008F1F941F991F9E1FA41FA91FAE1FB31F2A
:1036A000B81FBD1FC31FC81FCD1FD21FD71FDC1FD0
:1036B000E11FE61FEC1FF11FF61FFB1F002000009B
:1036C000C90092015B022403ED03B6047F0548069E
:1036D0001107D907A2086B09330AFB0AC40B8C0C2B
:1036E000540D1C0EE40EAB0F73103A110112C812E8
:1036F0008F1355141C15E215A8166E173318F918F8
:10370000BE19831A471B0C1CD01C931D571E1A1F71
:10371000DD1F9F2062212422E522A723672428257C
:10372000E825A82668272728E528A429622A1F2B30
:10373000DC2B992C552D112ECC2E872F4230FC30AE
:10374000B5316E322733DF3397344E350436BA360F
:1037500070372538D9388D39403AF33AA53B573C74
:10376000083DB83D683E173FC63F74402141CE41F9
:103770007A422643D1437B442445CD4575461D47B7
:10378000C4476A480F49B449584AFB4A9E4B404CCB
:10379000E14C814D214EC04E5E4FFB4F985034514D
:1037A000CF51695203539B533354CA546055F65555
:1037B0008A561E57B1574358D4586459F459825AFF
:1037C000105B9D5B295CB45C3E5DC85D505ED75E5E
:1037D0005E5FE45F6860EC606F61F1617262F2628B
:1037E0007163EF636C64E9646465DE655766D06697
:1037F0004767BD673268A7681A698C69FD696E6A98
:10380000DD6A4B6BB86B246C8F6CF96C626DCA6DA2
:10381000316E976EFB6E5F6FC26F23708370E370C3
:1038200041719E71FA715572AF7208735F73B6730E
:103830000B746074B37405755675A675F47542768D
:103840008E76D97623776C77B477FB774078857856
:10385000C8780A794A798A79C979067A427A7D7A6A
:10386000B77AEF7A277B5D7B927BC67BF97B2A7CDC
:103870005A7C897CB77CE47C0F7D3A7D637D8A7DB0
:10388000B17DD67DFB7D1E7E3F7E607E7F7E9D7EF0
:10389000BA7ED67EF07E0A7F227F387F4E7F627F9F
:1038A000757F877F987FA77FB57FC27FCE7FD97FC7
:1038B000E27FEA7FF17FF67FFA7FFE7FFF7FFF7F67
:1038C000FF7FFE7FFA7FF67FF17FEA7FE27FD97F7D
:1038D000CE7FC27FB57FA77F987F877F757F627F0E
:1038E0004E7F387F227F0A7FF07ED67EBA7E9D7E15
:1038F0007F7E607E3F7E1E7EFB7DD67DB17D8A7D94
:10390000637D3A7D0F7DE47CB77C897C5A7C2A7C80
:10391000F97BC67B927B5D7B277BEF7AB77A7D7ADA
:10392000427A067AC9798A794A790A79C878857893
:103930004078FB77B4776C772377D9768E764276AA
:10394000F475A67556750575B37460740B74B6730B
:103950005F730873AF725572FA719E714171E370B3
:1039600083702370C26F5F6FFB6E976E316ECA6D8E
:10397000626DF96C8F6C246CB86B4B6BDD6A6E6A90
:10398000FD698C691A69A7683268BD674767D066A8
:103990005766DE656465E9646C64EF637163F262C7
:1039A0007262F1616F61EC606860E45F5E5FD75ED8
:1039B000505EC85D3E5DB45C295C9D5B105B825AC5
:1039C000F4596459D4584358B1571E578A56F6557E
:1039D0006055CA5433549B5303536952CF513451E9
:1039E0009850FB4F5E4FC04E214E814DE14C404CF4
:1039F0009E4BFB4A584AB4490F496A48C4471D4781
:103A00007546CD4524457B44D14326437A42CE4179
:103A100021417440C63F173F683EB83D083D573CC2
:103A2000A53BF33A403A8D39D93825387037BA3644
:103A300004364E359734DF3327336E32B531FC30E0
:103A40004230872FCC2E112E552D992CDC2B1F2B7D
:103A5000622AA429E52827286827A826E8252825FA
:103A60006724A723E522242262219F20DD1F1A1F3D
:103A7000571E931DD01C0C1C471B831ABE19F91826
:103A800033186E17A816E2151C1555148F13C8129B
:103A900001123A117310AB0FE40E1C0E540D8C0C76
:103AA000C40BFB0A330A6B09A208D90711074806A1
:103AB0007F05B604ED0324035B029201C9000000F8
:103AC00038FF6FFEA6FDDDFC14FC4BFB82FAB9F952
:103AD000F0F828F85FF796F6CEF506F53DF475F3A5
:103AE000ADF2E5F11DF156F08EEFC7EE00EE39EDC7
:103AF00072ECACEBE5EA1FEA59E993E8CEE708E798
:103B000043E67EE5BAE4F5E331E36EE2AAE1E7E0FD
:103B100024E062DF9FDEDDDD1CDD5ADC9ADBD9DAD2
:103B200019DA59D999D8DAD71CD75DD69FD5E2D4FE
:103B300025D468D3ACD2F0D135D17AD0BFCF05CF60
:103B40004CCE93CDDACC22CC6ACBB3CAFDC947C9DF
:103B500091C8DCC728C774C6C1C50EC55CC4AAC35A
:103B6000F9C249C299C1EAC03BC08DBFE0BE33BEB5
:103B700087BDDBBC30BC86BBDDBA34BA8CB9E4B8D7
:103B80003DB897B7F2B64DB6A9B506B563B4C1B3A3
:103B900020B380B2E0B141B1A3B006B069AFCDAE01
:103BA00032AE98ADFEAC66ACCEAB37ABA1AA0BAAD9
:103BB00077A9E3A850A8BEA72DA79DA60DA67FA50F
:103BC000F1A464A4D8A34DA3C3A239A2B1A12AA190
:103BD000A3A01DA0999F159F929E109E8F9D0F9D43
:103BE000909C129C959B189B9D9A239AAA99319917
:103BF000BA984498CF975A97E796759604969395F6
:103C00002495B6944994DD93729308939F923792CA
:103C1000D0916A910691A2903F90DE8F7E8F1E8F89
:103C2000C08E638E078EAC8D528DF98CA28C4B8C1E
:103C3000F68BA18B4E8BFC8AAB8A5B8A0D8ABF897F
:103C400073892889DE8895884D880688C1877C8796
:103C50003987F786B78677863886FB85BF85848562
:103C60004A851285DA84A4846F843B840884D783D0
:103C7000A78378834A831D83F282C7829E827782DC
:103C800050822B820682E381C281A181828164817C
:103C900047812B811181F780DF80C980B3809F80AD
:103CA0008C807A8069805A804C803F803380288065
:103CB0001F80178010800B800780038002800180A6
:103CC0000280038007800B80108017801F8028806F
:103CD00033803F804C805A8069807A808C809F80BE
:103CE000B380C980DF80F78011812B814781648197
:103CF0008281A181C281E38106822B8250827782F8
:103D00009E82C782F2821D834A837883A783D783EA
:103D100008843B846F84A484DA8412854A85848570
:103D2000BF85FB8538867786B786F78639877C8797
:103D3000C18706884D889588DE8828897389BF8960
:103D40000D8A5B8AAB8AFC8A4E8BA18BF68B4B8CDF
:103D5000A28CF98C528DAC8D078E638EC08E1E8F17
:103D60007E8FDE8F3F90A29006916A91D09137921C
:103D70009F9208937293DD934994B69424959395FA
:103D800004967596E7965A97CF974498BA983199C2
:103D9000AA99239A9D9A189B959B129C909C0F9D83
:103DA0008F9D109E929E159F999F1DA0A3A02AA152
:103DB000B1A139A2C3A24DA3D8A364A4F1A47FA545
:103DC0000DA69DA62DA7BEA750A8E3A877A90BAA6C
:103DD000A1AA37ABCEAB66ACFEAC98AD32AECDAEE1
:103DE00069AF06B0A3B041B1E0B180B220B3C1B3B6
:103DF00063B406B5A9B54DB6F2B697B73DB8E4B809
:103E00008CB934BADDBA86BB30BCDBBC87BD33BEEF
:103E1000E0BE8DBF3BC0EAC099C149C2F9C2AAC386
:103E20005CC40EC5C1C574C628C7DCC791C847C9E4
:103E3000FDC9B3CA6ACB22CCDACC93CD4CCE05CF28
:103E4000BFCF7AD035D1F0D1ACD268D325D4E2D46B
:103E50009FD55DD61CD7DAD799D859D919DAD9DACE
:103E60009ADB5ADC1CDDDDDD9FDE62DF24E0E7E06B
:103E7000AAE16EE231E3F5E3BAE47EE543E608E762
:103E8000CEE793E859E91FEAE5EAACEB72EC39EDCD
:103E900000EEC7EE8EEF56F01DF1E5F1ADF275F3D1
:103EA0003DF406F5CEF596F65FF728F8F0F8B9F987
:103EB00082FA4BFB14FCDDFCA6FD6FFE38FF000010
:103EC000C90092015B022403ED03B6047F05480696
:103ED0001107D907A2086B09330AFB0AC40B8C0C23
:103EE000540D1C0EE40EAB0F73103A110112C812E0
:103EF0008F1355141C15E215A8166E173318F918F0
:103F0000BE19831A471B0C1CD01C931D571E1A1F69
:103F1000DD1F9F2062212422E522A7236724282574
:103F2000E825A82668272728E528A429622A1F2B28
:103F3000DC2B992C552D112ECC2E872F4230FC30A6
:103F4000B5316E322733DF3397344E350436BA3607
:103F500070372538D9388D39403AF33AA53B573C6C
:103F6000083DB83D683E173FC63F74402141CE41F1
:103F70007A422643D1437B442445CD4575461D47AF
:103F8000C4476A480F49B449584AFB4A9E4B404CC3
:103F9000E14C814D214EC04E5E4FFB4F9850345145
:103FA000CF51695203539B533354CA546055F6554D
:103FB0008A561E57B1574358D4586459F459825AF7
:103FC000105B9D5B295CB45C3E5DC85D505ED75E56
:103FD0005E5FE45F6860EC606F61F1617262F26283
:103FE0007163EF636C64E9646465DE655766D0668F
:103FF0004767BD673268A7681A698C69FD696E6A90
:10400000DD6A4B6BB86B246C8F6CF96C626DCA6D9A
:10401000316E976EFB6E5F6FC26F23708370E370BB
:1040200041719E71FA715572AF7208735F73B67306
:104030000B746074B37405755675A675F475427685
:104040008E76D97623776C77B477FB77407885784E
:10405000C8780A794A798A79C979067A427A7D7A62
:10406000B77AEF7A277B5D7B927BC67BF97B2A7CD4
:104070005A7C897CB77CE47C0F7D3A7D637D8A7DA8
:10408000B17DD67DFB7D1E7E3F7E607E7F7E9D7EE8
:10409000BA7ED67EF07E0A7F227F387F4E7F627F97
:1040A000757F877F987FA77FB57FC27FCE7FD97FBF
:1040B000E27FEA7FF17FF67FFA7FFE7FFF7F00805D
:1040C00000800080008000800080018001800180ED
:1040D00001800280028002800380038004800480CB
:1040E000058005800680068007800880088009809A
:1040F0000A800B800B800C800D800E800F8010805A
:104100001180128013801480158017801880198008
:104110001A801C801D801E802080218022802480A7
:104120002580278029802A802C802E802F80318036
:1041300033803580368038803A803C803E804080B5
:1041400042804480468048804A804C804F80518025
:104150005380558058805A805D805F806180648084
:10416000668069806B806E807180738076807980D4
:104170007C807E808180848087808A808D80908012
:104180009380968099809C809F80A280A580A98042
:10419000AC80AF80B280B680B980BD80C080C38063
:1041A000C780CA80CE80D280D580D980DD80E08073
:1041B000E480E880EC80EF80F380F780FB80FF8074
:1041C000038107810B810F81138117811C8120815D
:1041D000248128812D81318135813A813E8142813E
:1041E00047814B815081548159815E816281678111
:1041F0006C81708175817A817F81848189818E81D2
:10420000938198819D81A281A781AC81B181B68182
:10421000BB81C081C681CB81D081D681DB81E08129
:10422000E681EB81F181F681FC81028207820D82B9
:10423000128218821E82248229822F8235823B823A
:10424000418247824D82538259825F8265826B82AE
:10425000718277827E8284828A82908297829D8216
:10426000A482AA82B082B782BD82C482CA82D1826D
:10427000D882DE82E582EC82F282F98200830783B3
:104280000E8315831B8322832983308337833E83E8
:1042900046834D8354835B83628369837183788310
:1042A0007F8387838E8395839D83A483AC83B3832D
:1042B000BB83C283CA83D283D983E183E983F0833A
:1042C000F8830084088410841884208428842F8430
:1042D000378440844884508458846084688470841F
:1042E00079848184898491849A84A284AA84B38401
:1042F000BB84C484CC84D584DD84E684EF84F784D5
:104300000085098511851A8523852C8535853E858F
:1043100046854F85588561856A8573857C85868548
:104320008F859885A185AA85B385BD85C685CF85EE
:10433000D985E285EB85F585FE85088611861B8685
:1043400024862E86378641864B8654865E8668860E
:1043500072867C8685868F869986A386AD86B7868B
:10436000C186CB86D586DF86E986F386FD860887FB
:1043700012871C87268731873B87458750875A8756
:1043800064876F87798784878E879987A387AE87AD
:10439000B987C387CE87D987E387EE87F9870488F3
:1043A0000F88198824882F883A88458850885B8828
:1043B000668871887C88888893889E88A988B48854
:1043C000BF88CB88D688E188ED88F88804890F8972
:1043D0001A89268931893D894889548960896B8980
:1043E000778983898E899A89A689B289BD89C98985
:1043F000D589E189ED89F989058A118A1D8A298A79
:10440000358A418A4D8A598A658A718A7E8A8A8A62
:10441000968AA28AAF8ABB8AC78AD48AE08AED8A42
:10442000F98A068B128B1F8B2B8B388B448B518B0D
:104430005E8B6A8B778B848B908B9D8BAA8BB78BD3
:10444000C48BD08BDD8BEA8BF78B048C118C1E8C8C
:104450002B8C388C458C528C608C6D8C7A8C878C34
:10446000948CA28CAF8CBC8CC98CD78CE48CF18CD6
:10447000FF8C0C8D1A8D278D358D428D508D5D8D65
:104480006B8D798D868D948DA28DAF8DBD8DCB8DED
:10449000D98DE68DF48D028E108E1E8E2C8E3A8E66
:1044A000488E568E648E728E808E8E8E9C8EAA8ED4
:1044B000B88EC68ED48EE38EF18EFF8E0D8F1C8F3C
:1044C0002A8F388F478F558F648F728F808F8F8F91
:1044D0009D8FAC8FBB8FC98FD88FE68FF58F0490DF
:1044E0001290219030903E904D905C906B907A901D
:1044F00088909790A690B590C490D390E290F19058
:1045000000910F911E912D913C914B915B916A917D
:10451000799188919791A791B691C591D591E491A0
:10452000F3910392129222923192409250925F92B2
:104530006F927F928E929E92AD92BD92CD92DC92BE
:10454000EC92FC920B931B932B933B934B935A93BC
:104550006A937A938A939A93AA93BA93CA93DA93B3
:10456000EA93FA930A941A942A943A944B945B949B
:104570006B947B948B949C94AC94BC94CC94DD947D
:10458000ED94FD940E951E952F953F955095609551
:10459000719581959295A295B395C395D495E5951E
:1045A000F595069617962796389649965A966B96DD
:1045B0007B968C969D96AE96BF96D096E196F29697
:1045C00003971497259736974797589769977A973F
:1045D0008B979C97AD97BE97D097E197F2970398EA
:1045E00015982698379849985A986B987D988E9880
:1045F0009F98B198C298D498E598F79808991A9915
:104600002B993D994F996099729984999599A79999
:10461000B999CA99DC99EE99009A129A239A359A17
:10462000479A599A6B9A7D9A8F9AA19AB39AC49A8B
:10463000D69AE99AFB9A0D9B1F9B319B439B559BF6
:10464000679B799B8B9B9E9BB09BC29BD49BE79B5C
:10465000F99B0B9C1D9C309C429C549C679C799CB4
:104660008C9C9E9CB19CC39CD59CE89CFB9C0D9D06
:10467000209D329D459D579D6A9D7D9D8F9DA29D4C
:10468000B59DC79DDA9DED9D009E129E259E389E8C
:104690004B9E5E9E709E839E969EA99EBC9ECF9EC4
:1046A000E29EF59E089F1B9F2E9F419F549F679FF0
:1046B0007A9F8D9FA09FB39FC69FDA9FED9F00A01A
:1046C00013A026A03AA04DA060A073A087A09AA036
:1046D000ADA0C1A0D4A0E8A0FBA00EA122A135A14D
:1046E00049A15CA170A183A197A1AAA1BEA1D1A15A
:1046F000E5A1F9A10CA220A233A247A25BA26EA25F
:1047000082A296A2AAA2BDA2D1A2E5A2F9A20DA35D
:1047100020A334A348A35CA370A384A398A3ACA351
:10472000C0A3D4A3E8A3FCA310A424A438A44CA43D
:1047300060A474A488A49CA4B0A4C4A4D8A4EDA428
:1047400001A515A529A53DA552A566A57AA58EA505
:10475000A3A5B7A5CBA5E0A5F4A509A61DA631A6DE
:1047600046A65AA66FA683A698A6ACA6C1A6D5A6AD
:10477000EAA6FEA613A727A73CA750A765A77AA776
:104780008EA7A3A7B8A7CCA7E1A7F6A70AA81FA83A
:1047900034A849A85EA872A887A89CA8B1A8C6A8F2
:1047A000DBA8EFA804A919A92EA943A958A96DA9A6
:1047B00082A997A9ACA9C1A9D6A9EBA900AA15AA53
:1047C0002AAA3FAA54AA69AA7FAA94AAA9AABEAAF9
:1047D000D3AAE8AAFEAA13AB28AB3DAB53AB68AB98
:1047E0007DAB93ABA8ABBDABD2ABE8ABFDAB13AC31
:1047F00028AC3DAC53AC68AC7EAC93ACA9ACBEACC1
:10480000D4ACE9ACFFAC14AD2AAD3FAD55AD6AAD4B
:1048100080AD96ADABADC1ADD7ADECAD02AE18AECF
:104820002DAE43AE59AE6EAE84AE9AAEB0AEC5AE4E
:10483000DBAEF1AE07AF1DAF33AF48AF5EAF74AFC5
:104840008AAFA0AFB6AFCCAFE2AFF8AF0EB024B036
:104850003AB050B066B07CB092B0A8B0BEB0D4B0A0
:10486000EAB000B116B12CB142B159B16FB185B106
:104870009BB1B1B1C7B1DEB1F4B10AB220B237B267
:104880004DB263B279B290B2A6B2BCB2D3B2E9B2C1
:10489000FFB216B32CB343B359B36FB386B39CB313
:1048A000B3B3C9B3E0B3F6B30DB423B43AB450B460
:1048B00067B47DB494B4ABB4C1B4D8B4EEB405B5A8
:1048C00000010001000100010001000100010001E0
:1048D00000010001000100010001000100010001D0
:1048E000FF00FF00FF00FF00FF00FF00FF00FF00D0
:1048F000FF00FF00FF00FF00FE00FE00FE00FE00C4
:10490000FE00FE00FE00FE00FD00FD00FD00FD00BB
:10491000FD00FD00FD00FC00FC00FC00FC00FC00B4
:10492000FB00FB00FB00FB00FB00FA00FA00FA00B2
:10493000FA00FA00F900F900F900F900F800F800AF
:10494000F800F800F700F700F700F700F600F600AF
:10495000F600F500F500F500F400F400F400F400B2
:10496000F300F300F300F200F200F100F100F100B7
:10497000F000F000F000EF00EF00EF00EE00EE00BE
:10498000ED00ED00EC00EC00EC00EB00EB00EA00C9
:10499000EA00E900E900E900E800E800E700E700D4
:1049A000E600E600E500E500E400E400E300E300E3
:1049B000E200E200E100E100E000DF00DF00DE00F5
:1049C000DE00DD00DD00DC00DB00DB00DA00DA0009
:1049D000D900D800D800D700D600D600D500D40022
:1049E000D400D300D200D200D100D000CF00CF003D
:1049F000CE00CD00CC00CC00CB00CA00C900C9005D
:104A0000C800C700C600C500C500C400C300C2007E
:104A1000C100C000BF00BF00BE00BD00BC00BB00A5
:104A2000BA00B900B800B700B600B500B400B300D2
:104A3000B200B100B000AF00AE00AD00AC00AA0003
:104A4000A900A800A700A600A500A300A200A1003D
:104A5000A0009F009D009C009B009900980097007B
:104A600095009400920091008F008E008C008B00C6
:104A70008900880086008500830081007F007E0019
:104A80007C007A00780076007400720070006E007E
:104A90006C006A0068006600630061005E005C00F4
:104AA00059005600530051004D004A004700430092
:104AB0003F003B00370032002D0027002000170088
:104AC00000000000000001020304010203040607C5
:104AD000080901020406080A0C10202020202020CA
:104AE0002020010002000400060008000A000C005B
:104AF00010002000400080000001000100010001C2
:104B000000010000244B0008000000208400000089
:104B1000EE2D0008A84B0008840000206C15000052
:104B2000FE2D00080000000000000000A4703D3FC2
:104B3000AE47E13EAE47E13EAE47E13E0600000033
:104B40000000B0410000684100009643E441603F2E
:104B50005AC7F33998AF8F412506A441B80B00001E
:104B6000000000000000000000000000BE38000847
:104B7000000000000020A10700000000000000006D
:104B80000000000000000000000000000000000025
:104B900000000000000000000040060000000000CF
:084BA00000000000000000000D
:0400000508000115D9
:00000001FF
