:020000040800F2
:1000000010160020B1020008D9180008FB100008E3
:10001000FD17000899090008B1320008000000002F
:10002000000000000000000000000000691D000842
:10003000B30B000800000000C70200083D250008BF
:10004000CB020008CB020008CB020008CB0200085C
:10005000CB020008CB020008CB020008CB0200084C
:10006000CB020008CB020008CB020008CB0200083C
:10007000CB020008CB020008CB020008CB0200082C
:10008000CB020008CB020008CB02000815050008CF
:10009000CB020008CB020008CB02000809270008A9
:1000A000DD280008CB0200083527000801290008D8
:1000B000CB020008292A000879110008FD10000869
:1000C000CB020008CB020008CB020008CB020008DC
:1000D000CB020008CB020008CB020008CB020008CC
:1000E000CB020008CB020008CB020008CB020008BC
:1000F000CB020008CB020008CB020008CB020008AC
:10010000D12A0008CB020008CB020008CB0200086D
:10011000CB020008DFF80CD000F0EEF800480047F2
:10012000353300081016002070B502465E4D2C686D
:100130005E4940F255530978002900D11C435A48C2
:100140002038072A7FD2DFE802F00408173656630A
:100150007100BDE8704002F0F1BF1C432C608021AB
:10016000044602F098FE8021204602F090FE2046D0
:10017000BDE8704002F0E8BF81B124F0040121F035
:10018000400121F4806141F0010141F0100141F48E
:1001900080712960BDE8704002F0D6BF24F00101F3
:1001A00021F0100121F4807141F0040141F040017F
:1001B00041F48061EDE7012910D024F0040121F021
:1001C000400121F4806141F0010141F0100141F44E
:1001D00080712960BDE8704002F0B6BF24F00101D3
:1001E00021F0100121F4807141F0040141F040013F
:1001F00041F48061EDE741B144F0020141F00401B6
:100200002960BDE8704002F09FBF24F00201F5E7CD
:1002100041B144F0200141F040012960BDE8704047
:1002200002F092BF24F02001F5E70CE041B144F464
:10023000007141F480612960BDE8704002F084BF24
:1002400024F40071F5E702F079FF2C6070BD2DE910
:10025000F04107460E461546134C3946203C2046D1
:1002600002F074FD3146204602F07CFD294620460E
:1002700002F084FD3946204602F086FD31462046D4
:1002800002F085FD2946204602F084FD39462046CD
:1002900002F056FD3146204602F05EFD294620461A
:1002A000BDE8F04102F064BD202C01406000002058
:1002B0000648804706480047FEE7FEE7FEE7FEE700
:1002C000FEE7FEE7FEE7FEE7FEE7FEE77126000831
:1002D00015010008D2B201E000F8012B491EFBD243
:1002E00070470022F6E710B513460A460446194641
:1002F000FFF7F0FF204610BD064C074D06E0E06812
:1003000040F0010394E8070098471034AC42F6D35C
:10031000FFF704FFD43D0008F43D000802480168DF
:1003200021F0100101607047580802400D490D4A44
:100330004C39012802D0022808D005E0106818B90D
:10034000086840F004000860002070470868400713
:1003500005D5106808B100207047012070470020C3
:10036000704700005408024010B5072309280BD835
:10037000124A146800EB400083409C4314601368E9
:1003800081400B43136010BD11280DD80A380B4A69
:10039000121F146800EB400083409C4314601368F4
:1003A00081400B43136010BD04484C30026822F0BA
:1003B0000702026002680A43026010BD1008024092
:1003C00070B504460D4601F0CDFB34B1284601F06E
:1003D000D9FBBDE8704000F0FBB901F0CBFB28462B
:1003E00001F0B6FBBDE87040FFF798BF0248016816
:1003F00021F00201016070470808024002480168CC
:1004000041F002010160704708080240024801689B
:1004100021F48071016070470808024004490A68AD
:1004200022F400620A600A6802430A607047000012
:10043000080802401049B0F5006F12D040F60102E2
:1004400012180AD0B0F5805F10D06FF4805290423D
:1004500002D10A6802400A6070470A6802400A60D6
:100460007047086840F4006008607047086840F40E
:100470008050086070470000040802401049B0F541
:10048000801F12D000F58012521C0AD0B0F5004F28
:1004900010D06FF40042904202D10A6802400A6014
:1004A00070470A6802400A607047086840F480108C
:1004B00008607047086840F400400860704700001A
:1004C00008080240012805D00848006810420AD0F8
:1004D00001207047054858380068084201D00120C3
:1004E0007047002070470020704700005808024005
:1004F00002490A6882430A6070470000000802400F
:1005000003490968014201D001207047002070476B
:10051000000802402DE9FF5F60480068C0F3015702
:1005200007F1010BC7F104054020FFF7E9FF01289F
:1005300006D108215A4800F0BCFD4020FFF7D8FF43
:100540000420FFF7DDFF012856D100F055F9DFF850
:100550005491A9F800005449544E48430014308285
:100560002C46DFF84C814FF0140A05EB0B070AE02C
:10057000601B0AEB8000C0B200F0DAF808EB44011F
:10058000C881641CE4B2A742F2D808EB4500B0F978
:100590000E00A9F802006D1C08EB4501B1F90E1020
:1005A000A9F80410434C62781AB1414800F0D2F91E
:1005B00016E0B8F80A20801A00B2A9F80200B8F8CC
:1005C0000C20891A09B2A9F804104FF425225043CF
:1005D0000014A8F80600104641430814A8F80800C3
:1005E000E078012802D1A078012807D00020FFF789
:1005F0009BFD0420FFF77CFFBDE8FF9F20780428C7
:1006000004D0052805D006280BD108E0F08FB0876C
:1006100007E0294800F091F97087B08701E0308F3A
:10062000B0872349684601F039FADDE90001CDE9D8
:10063000020102A800F0B1F934463060A18F1B48D6
:1006400001F000FAA0601C485038018FA4F8401057
:10065000B0F94C00A4F84200B4F90A10411A164847
:10066000143801F083F9E081B4F94000B4F90810BE
:10067000411A1148283801F079F9A0810B48A18F5F
:100680000C3002F025FE606000F09EFA211D0B4840
:1006900001F0C8FB0120FFF747FDAAE73808024038
:1006A0000038024000000020606E0B00A80000200F
:1006B0007801002052000020E80100208C0000207A
:1006C00000B503461878002802D000F071F801E068
:1006D00000F066F8587810B1FFF790FE01E0FFF7E0
:1006E00085FE0848016841F028010160586800F063
:1006F00089F89868FFF792FED8685DF804EB00F07F
:100700006FB800006008024004490A6822F44012F1
:100710000A600A6802430A60704700003808024015
:100720000248016821F480610160704704080240BA
:1007300008B504490844283000900098006880B249
:1007400008BD00000008024004490A6822F4E042A3
:100750000A600A6802430A60704700000808024005
:1007600010B5064A136801EB81011F248C40A34396
:100770001360136888400343136010BD38080240BB
:10078000802804D805490A6802430A607047034973
:1007900054310A6802430A607047000004080240AE
:1007A0000248016821F4807101607047040802402A
:1007B0000248016841F480710160704704080240FA
:1007C0000248016841F001010160704708080240D9
:1007D0000248016841F0100101607047580802406A
:1007E00004490A6822F470020A600A6802430A6037
:1007F000704700002C0802400148006880B2704732
:100800004C08024004490A6822F460220A600A681F
:1008100002430A60704700000808024010B51F2319
:1008200005290BD8144A146801EB81018B409C43C5
:100830001460136888400343136010BD0B290DD862
:100840000D4A121F1468891F01EB81018B409C43E4
:100850001460136888400343136010BD064A083AC9
:1008600014680C3901EB81018B409C4314601368C0
:1008700088400343136010BD340802404FF4805099
:1008800001F092B930B585B0FFF7F8FF01258DF87A
:1008900004508DF805504FF460200290002403941A
:1008A000049401A8FFF70CFF00210B20FFF7B6FF0F
:1008B00002210B20FFF758FD2805FFF725FF022135
:1008C0000820FFF751FD03210820FFF749FF02210F
:1008D0000820FFF745FF0020FFF736FFFFF720FF56
:1008E0002803FFF7A7FDFFF76BFF2022402102201E
:1008F000FFF7E8FD0028F8D00120FFF717FD0220E0
:10090000FFF714FD0028FAD113208DF800008DF8B0
:1009100001408DF802408DF80350684600F0DEFF7C
:100920008020FFF72DFFFFF771FD4FF40040FFF728
:10093000A5FDFFF745FF05B030BDB0F906104AF23E
:10094000F8225143090C4289114489B24181084679
:100950007047000010B50D4CD0E906122388402BDB
:100960000AD25B1C23800A4B1B8819448161094908
:1009700009881144C16110BD002323808911418180
:10098000911181818361C36110BD0000500000207E
:100990000200002004000020FEE708B500210091BD
:1009A0000188ADF80010B0F90210B0F90400081A7F
:1009B00049F2CE3148430014ADF80200009808BD5A
:1009C0000448B0F9521089034161B0F966108903F7
:1009D000016070479801002041607047016841F054
:1009E00001010160704701617047026822F0200236
:1009F000026002680A4302607047026822F0100237
:100A0000026002680A430260704710B504460B4654
:100A10002046196800F04CF82046596800F036F876
:100A200020469968FFF7E9FF2046D968FFF7D4FF11
:100A30002046196900F034F82046596900F01EF884
:100A40002046996900F036F82046D96900F020F870
:100A50002046196AFFF7C9FF2046596A00F032F8AC
:100A60002046996ABDE81040AFF30080026822F486
:100A70008042026002680A4302607047026822F006
:100A80008002026002680A4302607047C1607047DA
:100A9000026822F44062026002680A430260704702
:100AA000026822F04002026002680A430260704756
:100AB00081607047026822F44072026002680A4353
:100AC00002607047026822F44052026002680A43E2
:100AD00002607047016821F001010160002101609E
:100AE00041608160C1602449234A0839904204D1A1
:100AF000486840F00F00486070471F4A1432904227
:100B000004D1486840F0F000486070471A4A283223
:100B1000904204D1486840F4706048607047164ABB
:100B20003C32904204D1486840F4704048607047BD
:100B3000114A5032904204D1486840F47020486015
:100B400070470D4A6432904204D1486840F4700006
:100B500048607047084A7832904204D1486840F0B3
:100B6000706048607047044A8C329042FAD14868FD
:100B700040F070404860704708000240002101606A
:100B800041608160C160016141618161C161016257
:100B90004162816270470246491E01208840401E22
:100BA000C143824202DC8A4201DA0846704710469D
:100BB0007047704703E00921491E4A1CFCD1401EC2
:100BC000411CF8D1704700002DE9FC412E4C201D3E
:100BD000218F00F037FF0190218F204600F032FF77
:100BE0000090A28AB4F90830BDF8041002FB03F0AB
:100BF000A1EBA037B4F94600618AB4F90A50414329
:100C000001FB05F607EB267636B26A43BDF80650BF
:100C10005943A5EBA232A2EB21710AB2002801DDF3
:100C2000012101E04FF0FF3101FB16218903463419
:100C3000B4F90E2091FBF2F109B2B4F91020091AAF
:100C40005143CA13B4F9061011FB02F200EBE23073
:100C500000B224F8460944F6CD42904201DD104628
:100C600003E00A4A904200DA1046A4F846004843DE
:100C7000C0F3CF30218F42F6BE02504301EB9030DB
:100C80002087BDE8FC810000A800002033B3FFFFEF
:100C900070B56C218D48FFF724FB7C218C48FFF751
:100CA00020FB8C498A48D1ED003A91ED0A4A2C305C
:100CB00083EE840A00ED040AD1ED032A91ED0B1AAC
:100CC000C2EE810A40ED050A9FED831A20EE010A6B
:100CD000BDEEC00A10EE102A92B220F8182C20EEB9
:100CE000810ABDEEC00A10EE103A9BB220F81A3C01
:100CF0009FED7A0A80ED070A9FED792A41F62114CB
:100D00000484DFED780AC0ED090A45F6E354048552
:100D100046F26564448543F6FF74448291ED071AF8
:100D2000DFED711AC1EE810AC0ED0B0A9FED6F3A3B
:100D3000C3EE011A40ED011AB7EE003AF0EE434A55
:100D400041EE804A83EE245A25EE023ABDEEC33AC4
:100D500013EE101A20F80C1CC0ED021A13EE101A34
:100D600001809FED633AC3EE011AC0ED0C1A9FEDAE
:100D7000613A64EE034A84EEA24A24EE024ABDEED2
:100D8000C44A14EE101A018723EE833AC3EE223AC6
:100D900063EE822AFDEEE22A12EE901A418743F2B8
:100DA0006661818740F23331C1871121A0F840107C
:100DB000DFED512A82EE813A80ED0D3A21EEA11A43
:100DC000424821EE001A21EE021ABDEEC11A11EEC0
:100DD000101AC183B0EE001A21EE811A21EE021A18
:100DE000BDEEC11A11EE101A818344F6CD4444833E
:100DF000654205830021416101EE102AB8EE411AD7
:100E000020EE811A21EE001ABDEEC11A11EE106A11
:100E1000468601EE103AB8EE411A20EE811ABDEE78
:100E2000C11A11EE106A0686C4858585816201EEBD
:100E3000102AB8EE411A20EE811A21EE000ABDEE0A
:100E4000C00A10EE102AA0F8462000EE103AB8EEC4
:100E5000400A20EE800ABDEEC00A10EE102AA0F86B
:100E60004420A0F84240A0F84050C163642242816F
:100E700044F620620281621EC2804BF234328280CC
:100E800001604FF48061A0F85E100A21A0F86010A4
:100E90004FF44071A0F86210A0F86610A0F864103A
:100EA0001921A0F86810DA21A0F858104FF48071C9
:100EB000A0F854100221A0F85010104960220A83B3
:100EC0007922CA8240F26661018270BD98010020D9
:100ED000A80000200800002000008046DC0F493EEA
:100EE00000FEFF46B3C6BB3F0000964300004843E8
:100EF0000000C8426F128338000048428C00002076
:100F000010B514074FEA42724FEAD2624FF00F0356
:100F100003FA02F301FA02F104D5426A9A4311433B
:100F2000416210BD026A9A431143016210BD000084
:100F30002DE9F04186B0684600F0D4F8022504950A
:100F400001240194402000902F4F6946384600F05C
:100F500088F8202000900194DFF8B0806946404670
:100F600000F07FF82003009001946946384600F0B5
:100F700078F80826009601946946404600F071F81A
:100F80003020009003941220019005960294694647
:100F9000384600F066F8684600F0A4F8049501951C
:100FA000032405944FF4E06000906946384600F051
:100FB00058F805944FF4604000906946404600F0B0
:100FC00050F800200190029509200590A802009099
:100FD0006946384600F045F8684600F083F8019409
:100FE000802000906946384600F03BF8684600F0E3
:100FF00079F80194042000906946404600F031F8E9
:1010000006B0BDE8F0810000003402400038024024
:1010100010B5C36A520003249440A343914019437E
:10102000C16210BD70B5056801F0030453000326CA
:101030009E40B5439C402C430460012905D01129F2
:1010400003D0022901D0122908D143680124944019
:10105000A343C1F3001191401943416070BD816207
:10106000704770B506460C4600251DE00120A840DB
:101070000140C1B12A4630466169FFF741FF2A4667
:1010800030466168FFF7CEFF2A463046A16800F07F
:1010900016F82A463046E16800F01BF82A4630462A
:1010A0002169FFF7B5FF6D1C216831FA05F0DDD12C
:1010B00070BD42694A40426170478161704710B516
:1010C000C368520003249440A34391401943C16074
:1010D00010BD10B5836801249440A3439140194387
:1010E000816010BD4FF6FF7101600021C160416059
:1010F0000F224261816001617047FEE72DE9F041F6
:10110000DFF86480194F4146384600F0A8F9174EC1
:10111000174C1836032580B1207818B1384600F0F6
:10112000B7F906E03088C00703D0384600F0B5F9BB
:1011300065714146384600F08FF9DFF8388038464F
:10114000414600F08CF900280CD03088C00703D04D
:10115000384600F0A2F9657141463846BDE8F041D5
:1011600000F07AB9BDE8F08100040010005400409E
:1011700068000020000100102DE9F0414F4E30467C
:1011800000F0AEF94E4A0027811A4E4C4FF4E06849
:1011900090426FD015DC6FF44031401829D00128FF
:1011A00025D03F2823D1304600F018F9A26902F873
:1011B000010BA261208A401E81B22182012936D012
:1011C0003BE00125022942D0042910D1A078002853
:1011D0000DD1E089D0B3A089411CA18139491C31CE
:1011E000095C304600F0FDF8E089401EE081BDE872
:1011F000F081207808B902206071A078012806D01B
:10120000A17C3046BDE8F041002200F05DB8607876
:1012100030B1A17C0122304600F056F86770E6E755
:10122000A17C3046BDE8F041002200F04DB83046C8
:1012300000F053F8304600F030F9208A0028D6D16B
:101240004146304600F048F96771D0E71AE020784F
:1012500048B127704146304600F03EF9304600F074
:101260001CF96771C3E7A179304600F0BAF86570E0
:10127000BDE7FFE7A0780128B9D13046BDE8F041CD
:1012800000F006B9304600F008F94FF4C82161615A
:101290004FF4003706E06269521E6261521C01D1B0
:1012A00002F076F83946304600F0D9F80028F2D13D
:1012B00025703046BDE8F04100F0EAB80054004027
:1012C0008000070068000020012A03D021F00101FE
:1012D0000182704741F00101FAE7018821F4806141
:1012E00001807047028822F480620A4302807047BE
:1012F000028922F400420A4302817047028822F0E8
:101300000A020A430280704770B586B004460D4653
:101310001646684600F07EFCA08820F03F03029944
:101320002B48B1FBF0F080B2202800D920200343E5
:10133000A380228822F001022280226A22F03F0349
:10134000244A95420BD86A00B1FBF2F189B2042914
:1013500000D20421401C00F03F0018432FE0B6F5F6
:10136000804F05D005EB4502B1FBF2F18AB208E0EF
:1013700005EBC50202EB0512B1FBF2F189B241F4B3
:101380008042110501D142F0010242F40041124EA7
:101390004FF47A72B54209D84FF496756843B0FBA2
:1013A000F2F0401C00F03F00184308E0C0EB0010D2
:1013B000C000B0FBF2F0401C00F03F001843206278
:1013C000A183208840F00100208006B070BD00009D
:1013D00040420F00A0860100801A0600008AC0B2B9
:1013E000704701827047000010B58AB0174C204644
:1013F00000F084F804A8FFF775FE30210491012164
:1014000007911222059208220992069104A9104818
:10141000FFF727FE204600F071F80021ADF8041018
:101420004BF6FF71ADF80610FF20ADF8080020154F
:10143000ADF80A000001ADF80C00064800906946BE
:10144000204600F02FF80AB010BD00000054004004
:1014500000340240801A0600C943818270470CB5EF
:101460000190080F009021F07F40009900290AD0D8
:1014700001991431019101990968014201D10020BB
:101480000CBD01200CBD000C019918310191F2E74F
:10149000018841F4807101807047018841F4007136
:1014A0000180704770B505460C462846E2882168E1
:1014B000FFF72AFFA1882846FFF720FF6189284609
:1014C000FFF710FFA1892846FFF712FF2189284660
:1014D000BDE8704000F00BB882888A438280704774
:1014E000818A008B0004014321F07F40704702890C
:1014F0006FF309020A4302817047000005498842E0
:1015000003D14FF4001000F069BB4FF4800000F0ED
:1015100065BB00000054004010B50E49087903284F
:1015200017D2401C08714FF40014204600F056FBFF
:10153000204600F043FB08490A6822F470420A6022
:10154000204600F04BFB00F009F8BDE81040FFF723
:101550004BBF10BD680000200038024030B587B096
:1015600001A8FFF7BFFD102001900020049001208A
:1015700002900D4D01A92846FFF773FD00241021AC
:101580002846FFF79AFD0520FFF714FB1021284697
:10159000FFF765FD0520FFF70DFB641CE4B2092C85
:1015A000EDD307B030BD00000034024030B587B045
:1015B00001A8FFF797FD30200190002004900290D1
:1015C00001A91348FFF74DFD124C4FF4C82060618C
:1015D0000F4D10352868C0F30110032807D060694B
:1015E000401E6061401CF5D1FFF796FFF2E70A4804
:1015F000018841F40041018000BF00BF00BF00BF6F
:1016000000BF018821F40041018007B030BD000017
:1016100000340240680000200054004070B5046AA5
:1016200024F001040462058B046A25F0F3054FF6EB
:10163000FF7606EA031313432B43104A90420ED061
:101640000F4A90420BD0B0F1804F08D00D4A904223
:1016500005D00D4A904202D00C4A904205D124F0A8
:1016600002020A4342F0010104E024F00A020A43A4
:1016700042F001010383016270BD0000002C0140B3
:10168000003401400004004000080040000C00400D
:10169000F0B5046A24F010040462058B046A0E019C
:1016A00025F473454FF6FF7707EA03332B4307EA28
:1016B00002221A430F4B98420ED00F4B98420BD088
:1016C000B0F1804F08D00D4B984205D00C4B98429A
:1016D00002D00C4B984205D124F02001314341F057
:1016E000100104E024F0A0030B4343F01001028337
:1016F0000162F0BD002C01400034014000040040B4
:1017000000080040000C0040F0B5046A24F4807426
:101710000462C469A5B2046A0E0225F0F3054FF60F
:10172000FF7707EA031313432B43104A90420ED06E
:101730000F4A90420BD0B0F1804F08D00D4A904232
:1017400005D00D4A904202D00C4A904205D124F4B3
:101750000071314341F4807104E024F420620A43B3
:1017600042F48071C3610162F0BD0000002C0140B1
:10177000003401400004004000080040000C00401C
:10178000F0B5046A24F480540462C469A5B2046A02
:101790000E0325F473454FF6FF7C0CEA02272F4316
:1017A0000CEA03323A43104B98420ED00F4B98424A
:1017B0000BD0B0F1804F08D00D4B984205D00D4BA7
:1017C000984202D00C4B984205D124F40051314389
:1017D00041F4805104E024F400530B4343F480515E
:1017E000C2610162F0BD0000002C014000340140E4
:1017F0000004004000080040000C0040FEE700002C
:101800002DE9F04704460D4621780327012605F10E
:101810000C0005F1180805F1300205F13C09092911
:101820000AD2DFE801F0050B17212B3A4C52540085
:10183000298801F0F3FC2670BDE8F08701F02BFD4C
:101840000028F9D06988404601F0E8FC02202070A9
:101850006670F1E7404601F01EFD0028ECD0002044
:101860006070E6702770E7E7A0780128E4D1E98886
:10187000104601F0D3FC04202070DDE7104601F093
:101880000AFD0028D8D02989484601F0C7FC052068
:101890002070BDE8F04700F05DB8484601F0FBFC61
:1018A0000028C9D00B48B0F90210B0F900008142FD
:1018B000C2D106202070BDE8F047FFF781B8A078BC
:1018C0000028B9D107202070B6E72770B4E7277049
:1018D000B2E70000FC0100207047000070B50F2344
:1018E000C27801260178002A1ED0144A126802F438
:1018F000E062C2F5E062120AC2F10404D340457806
:10190000A54082781A402A43120101F1E02181F8B2
:101910000024007800F01F018E404009800000F193
:10192000E020C0F8006170BD01F01F00864048094A
:10193000800000F1E020C0F8806170BD0CED00E097
:101940000249084302490860704700000000FA0598
:101950000CED00E00348C18F0348C181C18A0180BA
:1019600070470000A8000020E401002070B5044684
:101970000A46B4F904008603B4F906008503102171
:101980001046FFF708F90146E060B4F90A00484341
:1019900022681044A84201DD284602E0B04200DA85
:1019A00030462060B4F90800414388131021FFF746
:1019B000F2F8216800EBA13000B2B4F906108142C0
:1019C00001DA084604E0B4F90410814200DD08465B
:1019D000608270BD38B5164D00200090154C20680F
:1019E00020F080002060206840F0400020606946C0
:1019F0001148A8470098C0B2052813D869460F4877
:101A0000A8470098010E00F47F02120A00F47F40FC
:101A10000002114301430091094A106800F07F4021
:101A200008431060206840F08000206038BD00004E
:101A3000A502FF1F0020024020F0FF1F30F2FF1F11
:101A400004180040F8B504460020009088091149A8
:101A5000096831F81050104931F91060208810FBE6
:101A600005F0618811FB0600C0131021FFF793F801
:101A7000ADF80000608810FB05F0B4F9001001FB20
:101A80001600C0131021FFF786F8ADF80200009889
:101A9000F8BD00004C000020943300080CB5254A26
:101AA0001388002200920192062B39D2DFE803F05E
:101AB000030C151E2730CB880B800A8952428A807E
:101AC0001A4452424A802BE0CB884B800A8952420A
:101AD0008A801A4452420A8022E0CB884B800A89CD
:101AE00052420A801A4452428A8019E0CB888B8085
:101AF0000A8952420A801A4452424A8010E0CB8836
:101B00008B800A8952424A801A4452420A8007E076
:101B1000CB880B800A8952424A801A4452428A80FA
:101B200006C9CDE9001200990160BDF8041081805A
:101B30000CBD00008C000020044BDA6A22F48062A5
:101B400022F4784202430A43DA62704700100240EE
:101B5000034AD16A21F00F010143D16270470000AE
:101B6000001002400248016841F001010160704725
:101B7000801002400248C16A21F48071C16270473E
:101B800000100240034AD16A21F4F8710143D16286
:101B9000704700000010024002494A6902434A614E
:101BA000704700000010024003498A6A02438A62BB
:101BB0008A6A82438A627047001002400249CA69F9
:101BC0008243CA6170470000001002400249CA699E
:101BD0000243CA61704700000010024003490A69CD
:101BE00002430A610A6982430A6170470010024099
:101BF00002498A6902438A6170470000001002406E
:101C00000349CA680243CA60CA688243CA6070470F
:101C10000010024030B52F4B59682F4A11405A68C6
:101C200002F480320C0103D4022404EB914103E05E
:101C30006FF4F77404EB91412AB15A6892030BD503
:101C4000264A51430AE01A6CD20702D0234A514374
:101C500004E0234A514301E0214A51435A6802F00B
:101C60000C021F4C7AB3042A30D0082A30D004600A
:101C70005A68C2F303121B4CA55C0268EA4042603A
:101C80005D68C5F30225655D22FA05F585605D682E
:101C9000C5F3C225645D22FA04F4C460DC6A04F072
:101CA0000F04104D10352C5DB2FBF4F24261DA6A7C
:101CB000120902F00F0205F1100333F81220B1FBF4
:101CC000F2F1016130BDFFE70460D1E70460CFE7C6
:101CD0000160CDE70010024000003C0800093D0013
:101CE00000127A00943D000810B54FF48060FFF7B1
:101CF00027FE4FF4C06000F02DF84FF40060FFF7AE
:101D000077FF0120FFF762FF0420FFF75FFF10203D
:101D1000FFF75CFF0120FFF73FFF4FF4C070FFF7B4
:101D20003BFF0120FFF764FF4FF48050FFF734FFC3
:101D300002210020FEF744FB4FF460510020FFF722
:101D4000FBFEC020FFF742FFBDE810404FF400103B
:101D5000FFF73CBF034A516821F4E0610143516041
:101D60007047000000100240704700002B4B01221A
:101D70009A7000780023042808D0052819D0062876
:101D800003D13831C88D88820B807047B1F95C006F
:101D9000B1F95E20904205DAB1F860201044A1F854
:101DA0005C0001E0A1F85C2038318B82888C0880CF
:101DB0007047B1F95200B1F95420904205DAB1F8F8
:101DC00050201044A1F8520001E0A1F85220144A1A
:101DD00031F9520FB2F84C2010FB02F2D2138A8074
:101DE000B1F906205239904204DA3831488D8882A0
:101DF0000B807047B1F96600B1F96420904205DDAF
:101E0000B1F86820801AA1F8660001E0A1F8662008
:101E10003831C88D88820B80704700005200002046
:101E2000A80000202DE9F05F04460B46F84A15880B
:101E300040F6DB52DFF8DCC36A430CEA4212DFF8FB
:101E4000D8C3BCF910C092FBFCF21FFA82FCA4F8C4
:101E500008C0B3F902800CFB08F242F3CF32B3F8AA
:101E6000009046F6D86319FB03FA0AEB8833DB13BC
:101E700003FB0CF343F3CF334FEA883B4FF2252E9D
:101E800019FB0EFE0BEBCE0B4FEAEB3B0BFB0CFBF7
:101E90004BF3CF3CC8F1000B0AEB8B3A4AF3CF3A35
:101EA00049F2281E19FB0EF909EB8B3949F3CF399A
:101EB000B9F1000F02DD4FF0010901E04FF0000918
:101EC0004FEA890BBAF1000F02DD4FF0010901E082
:101ED0004FF000090BEB4909B8F1000F02DD4FF09C
:101EE000010801E04FF00008C1444FF00008B9F1CB
:101EF000070F2AD2DFE809F02904090F161C220077
:101F000060461946012222801FE01846514209B25C
:101F10000522228019E0CCF1000000B21146A4F89D
:101F2000008012E0504200B26146032222800CE0A1
:101F30001046594209B20222228006E0584200B2FD
:101F4000CCF1000109B20422228042185210AA42A8
:101F500007DD684390FBF2F000B2694391FBF2F1B8
:101F600009B242104810A91A091A09B26280A08069
:101F70004910E180A94201DD294602E0002900DA8A
:101F800000210BB2E380AA4201DD2A4602E0002ACA
:101F900000DA002212B26280A84201DD284602E087
:101FA000002800DA002000B2A0809A46534602EBD7
:101FB000030C0FFA8CFB00EB0B010FFA81F921885F
:101FC00006296FD2DFE801F0036FDBFEFDFCA4F809
:101FD0000AA0A4F80CB0A4F80E90A4F810A0A4F8DD
:101FE00012B0A4F81490B4F916108A4214DA884298
:101FF00012DA8A1AAAEB02031BB2638152442282CC
:10200000002B01DAA4F80A80081A09EB0001E1812B
:10201000A9EB0000A0823EE08A421DDA88421BDD67
:102020008C4506DD881AAAEB0001618150442082AC
:1020300031E0E588A4F80A80554425821A4410440A
:10204000B0EB410F27DBA1EB0C000BEB0001A181F2
:10205000ABEB000060821EE08A421CDD88421ADA87
:10206000C6188E4207DD081A09EB0001E181A9EBD1
:102070000000A0820FE0E788E581A9EB0705A582B3
:102080001A441044B0EB410F05DB881BABEB000199
:10209000A181584460826189208B01448EB2A1895C
:1020A000084487B224E2A4F80AB0A4F80CA0A4F86B
:1020B0000E90A4F810B0A4F812A0A4F81490B4F9EB
:1020C00016108A4214DA884212DA8A1AAAEB02033C
:1020D0001BB2A38152446282002B01DAA4F80C8067
:1020E000081A09EB0001E181A9EB0000A0823EE0A3
:1020F0008A421DDA88421BDD8C4506DD881AAAEB70
:102100000001A1815044608231E0E588A4F80C8090
:10211000554465821A441044B0EB410F27DBA1EB14
:102120000C000BEB00016181ABEB000020821EE094
:102130008A421CDD88421ADAC6188E4207DD081A68
:1021400009EB0001E181A9EB0000A0820FE0E78824
:10215000E581A9EB0705A5821A441044B0EB410FB5
:1021600005DB881BABEB0001618158442082A1890B
:10217000208B01448EB26189084487B2B8E1A4F88B
:102180000A90A4F80CA0A4F80EB0A4F81090A4F83B
:1021900012A0A4F814B0B4F916108A4218DA8842D2
:1021A00016DA8A1AAAEB02031BB2A3815244628296
:1021B000002B01DAA4F80C80081A09EB000102E0F8
:1021C0002BE1BEE051E06181A9EB0000208244E0F8
:1021D0008A4223DA884221DD8C4506DD881AAAEB83
:1021E0000001A1815044608237E0E588A4F80C80AA
:1021F000554465821A441044B0EB410F2DDBA1EB2E
:102200000C000BEB0001E181ABEB0000A08224E0AD
:10221000640000200080FFFFA80000208A421CDD2F
:1022200088421ADAC6188E4207DD081A09EB000147
:102230006181A9EB000020820FE0E7886581A9EBAE
:10224000070525821A441044B0EB410F05DB881BBB
:10225000ABEB0001E1815844A082A189208B0144AD
:102260008EB2E189084487B242E1A4F80A90A4F84A
:102270000CB0A4F80EA0A4F81090A4F812B0A4F822
:1022800014A0B4F916108A4214DA884212DA8A1AB3
:10229000AAEB02031BB2E3815244A282002B01DAB3
:1022A000A4F80E80081A09EB00016181A9EB000077
:1022B00020823EE08A421DDA88421BDD8C4506DD25
:1022C000881AAAEB0001E1815044A08231E0E58840
:1022D000A4F80E805544A5821A441044B0EB410F77
:1022E00027DBA1EB0C000BEB0001A181ABEB0000A5
:1022F00060821EE08A421CDD88421ADAC6188E42CD
:1023000007DD081A09EB00016181A9EB00002082BA
:102310000FE0E7886581A9EB070525821A44104480
:10232000B0EB410F05DB881BABEB0001A1815844EA
:102330006082E189208B01448EB2A189084487B272
:10234000D6E0A4F80AB0A4F80C90A4F80EA0A4F863
:1023500010B0A4F81290A4F814A0B4F916108A4290
:1023600014DA884212DA8A1AAAEB02031BB2E3815A
:102370005244A282002B01DAA4F80E80081A09EB5D
:102380000001A181A9EB000060823EE08A421DDAD3
:1023900088421BDD8C4506DD881AAAEB0001E1812D
:1023A0005044A08231E0E588A4F80E805544A5820F
:1023B0001A441044B0EB410F27DBA1EB0C000BEBF0
:1023C00000016181ABEB000020821EE08A421CDD2F
:1023D00088421ADAC6188E4207DD081A09EB000196
:1023E000A181A9EB000060820FE0E788A581A9EB3D
:1023F000070565821A441044B0EB410F05DB881BCA
:10240000ABEB0001618158442082E189208B0144BB
:102410008EB26189084487B26AE0A4F80AA0A4F8E1
:102420000C90A4F80EB0A4F810A0A4F81290A4F890
:1024300014B0B4F916108A4214DA884212DA8A1AF1
:10244000AAEB02031BB2638152442282002B01DA01
:10245000A4F80A80081A09EB0001A181A9EB000089
:1024600060823EE08A421DDA88421BDD8C4506DD33
:10247000881AAAEB000161815044208231E0E5888E
:10248000A4F80A80554425821A441044B0EB410F49
:1024900027DBA1EB0C000BEB0001E181ABEB0000B3
:1024A000A0821EE08A421CDD88421ADAC6188E42DB
:1024B00007DD081A09EB0001A181A9EB0000608289
:1024C0000FE0E788A581A9EB070565821A4410444F
:1024D000B0EB410F05DB881BABEB0001E1815844F9
:1024E000A0826189208B01448EB2E189084487B2C1
:1024F000114D6189284600F029FCA189284600F089
:1025000031FCE189284600F039FC218A284600F098
:1025100017FC618A284600F01FFCA18A284600F0BB
:1025200027FC3146284600F02FFC39462846BDE8F6
:10253000F05F00F02CBC0000002C014000F0AEBEAB
:102540001FB50020029001900090364C206840F4A6
:10255000803020604FF400512068C0F3404001906B
:102560000098401C00909DF8040010B90098884223
:10257000F2D12068C0F3404001909DF8040070B192
:102580002948016821F00701016028490968C9B29A
:10259000122908D8016841F00301016007E02549CC
:1025A000234808601FBD016841F0030101606068B5
:1025B0006060606840F400506060606840F4A06053
:1025C0006060FFF707FA60681B4908406060206C94
:1025D00020F00100206460680390039840F480308C
:1025E0000390039840F40030039014490398084383
:1025F00003900398606002982064206840F0807027
:10260000206020688001FCD5606820F003006060D5
:10261000606840F0020060606068C0F381000228DA
:10262000FAD11FBD0010024000200240002004E04B
:1026300000127A0058000020FFFFC0F700003C089D
:1026400010B5FFF751FB72B6FEF772FC012000F0E7
:1026500083F800F0FBF900F063F9FEF713F962B6B6
:102660000020FDF761FDBDE81040FEF7BDBE000093
:1026700010B51E48016841F4700101601C480168F2
:1026800041F00101016041681A4A1140416001684E
:10269000194A11400160016821F4802101604168FC
:1026A000164A114041604FF46051C162016C41F023
:1026B0000101016412498160C16941F08051C16129
:1026C000C16921F08051C1610E48016841F080016B
:1026D0000160016821F010010160FFF731FF03493B
:1026E0004FF000608039086010BD000088ED00E008
:1026F000001002400CC07FF8FFFFF6FEFFFFC0F79E
:1027000000009F040020024010B5094C80212046A3
:1027100000F0C4FB002809D08021204600F0B3FB64
:102720002046BDE81040802100F0B5BB10BD000080
:10273000002C014010B5074C1021204600F031FB61
:10274000002805D02046BDE81040102100F0A3BBB2
:1027500010BD0000002C0140F0B58DB007465C486C
:102760004FF4FA315B4D0068B0FBF1F0A8805A4E8F
:10277000304600F0F9FC09A800F080FA0320ADF81B
:1027800024004020ADF82600A888ADF82800701578
:10279000ADF82A0000248DF82C4009A9304600F03D
:1027A00003FA7020ADF81400ADF81640ADF81840EB
:1027B000A8884008ADF81A00ADF81C40ADF81E40DE
:1027C000ADF82040ADF82240012F76D02C700220C9
:1027D000ADF81C000820ADF81E004101ADF8201036
:1027E000ADF8221005A9304600F07CFB05A9304663
:1027F00000F0C4FB05A9304600F016FCA88841088B
:10280000304600F09DFAA8884108304600F0A4FA4E
:10281000A8884108304600F0ABFA1E21304600F08F
:10282000B3FA4FF41671304600F0B1FA0821304681
:1028300000F09EFB0821304600F0ECFB08213046FA
:1028400000F03CFC0821304600F03FFC08213046F7
:1028500000F049FC304600F036FB304600F038FB13
:102860004FF08071304600F05FFC0021304600F0F0
:102870005EF9304600F054F94FF40060ADF8000006
:102880004010ADF80200ADF804401C20ADF8060081
:102890004FF48050ADF808004000ADF80A00ADF8E4
:1028A0000C408DF80E406946304600F0F6F930468F
:1028B00000F013FB0DB0F0BDFFE701202870ADF86C
:1028C0001C40ADF81E40ADF82040ADF8224089E72D
:1028D0005800002060000020002C014010B5074C7B
:1028E0000121204600F05DFA002805D02046BDE811
:1028F0001040012100F0CFBA10BD0000002C0140B3
:1029000010B501218C07204600F04BFA002805D0B5
:102910002046BDE81040012100F0BDBA10BD000006
:10292000F0B59FB019A8FEF7DDFB402019900024F8
:102930001A9402251D9503201E9019A93548FEF70B
:1029400090FB01A8FFF766F9DDE90201884202D990
:102950000398400000E003984FF47A71B0FBF1F067
:102960002D4E70802D4F3846FEF7B4F807A8FEF7BD
:1029700005F92B4807902B48089009940A950B9469
:1029800080200C9085000D9500010E900F94400062
:102990001090119407A93846FEF737F822213846DF
:1029A000FEF721F83846FEF719F812A800F066F98C
:1029B0007088401EADF84C0042F20F70ADF8480030
:1029C000ADF84E40ADF84A40154E12A9343E30469F
:1029D00000F0EAF80121304600F04CF916A800F0AA
:1029E0004BFAADF85840ADF85A400121ADF85C10F3
:1029F000ADF85E40ADF8604016A9304600F00BFA25
:102A0000304600F06AFA2946304600F0C6F91FB099
:102A1000F0BD000000380240600000201C000240B1
:102A2000340800400402002010B5074C0121204664
:102A300000F034FA002805D02046BDE810400121FE
:102A400000F029BA10BD00000008004030B58BB07E
:102A500005A8FFF7DFF8DDE90601884202D90798EB
:102A6000440000E0079C01A800F008F91648B4FBF8
:102A7000F0F0401EADF808006320ADF8040000241B
:102A8000ADF80A40ADF80640104D01A9284600F007
:102A90008BF80121284600F0EDF80121284600F0CE
:102AA000F6F930218DF800108DF8014001218DF8E4
:102AB00002108DF803106846FEF710FF284600F05C
:102AC0000CFA0BB030BD0000A086010000100040E1
:102AD00010B50E4C0121204600F0E0F9002814D07A
:102AE0000121204600F0D7F9094800F075FB09499B
:102AF0000948FFF73BF9094842F62F61B0F9100089
:102B0000884202DA04490020887010BD001000409D
:102B1000240100209801002052000020A80000207D
:102B2000016841F480210160704781857047026827
:102B300022F440120A4302607047002904D0016861
:102B400041F4006101607047016821F40061016097
:102B50007047002904D0016841F48051016070473A
:102B6000016821F4805101607047002904D0016898
:102B700041F4005101607047016821F40051016087
:102B80007047002904D0016841F48041016070471A
:102B9000016821F4804101607047026822F07002F0
:102BA0000A4302607047000070B503460C46254D8D
:102BB000AB4207D061881846FFF7EFFFE18818465F
:102BC00000F0B6F8A1881846FFF7AFFF2188184635
:102BD00000F04EF81C4A1D4E934201D0B34203D17F
:102BE000217A184600F048F80121184600F042F812
:102BF000AB4203D0617A1846FFF79FFF4FF0804544
:102C0000934209D0B34207D0AB4205D0104883426B
:102C100002D01048834203D1617B184600F01CF8B3
:102C2000AB420DD1A17A1846FFF793FFE17A18461F
:102C3000FFF79BFF217BBDE870401846FFF7A1BF5F
:102C400070BD000000100040002C01400034014025
:102C50000004004000080040002904D0016841F44D
:102C6000004101607047016821F400410160704734
:102C70000185704781827047018670474FF6FF716A
:102C8000818000210180C180418001724172817286
:102C9000C172017341738173704710B504460A46CF
:102CA0001188508893880143D088034310891943C1
:102CB00001435089014390890143A4F84410907B5B
:102CC000002804D00021204600F072F803E0012122
:102CD000204600F06DF8D07B18B1204600F0EEF8E9
:102CE00002E0204600F0E5F8107C20B12046BDE867
:102CF000104000F034BA2046BDE8104000F02ABA77
:102D0000026A01238B409A4302627047026A0123E0
:102D10008B401A4302627047026A04238B409A4335
:102D200002627047026A04238B401A4302627047B2
:102D3000026822F44072026002680A43026070472F
:102D4000426B92B242EA014141637047426B6FF3BA
:102D50000F020A4342637047826B92B242EA01411A
:102D600081637047826B6FF30F020A43826370477F
:102D7000C26B92B242EA0141C1637047C26B6FF30A
:102D80000F020A43C2637047A0F860107047A0F8B2
:102D900064107047A0F86810704782890A438281E6
:102DA00070470069084201D0012070470020704739
:102DB000002904D0016841F4806101607047016816
:102DC00021F4806101607047028B22F00C020283C3
:102DD000028B0A4302837047028B22F44062028313
:102DE000028B4FF6FF7303EA01210A430283704707
:102DF000C2694FF6F3731A40C261C2690A43C261E5
:102E00007047C2694FF2FF331A40C261C26942EA99
:102E10000121C161704770B506460C46258861885E
:102E2000A2882389002D0CD0042D13D0082D1AD090
:102E30003046FEF7A5FCE1883046BDE87040FFF75C
:102E4000E0BF3046FEF7EAFBE1883046BDE870405F
:102E5000FFF7BABF3046FEF71BFCE1883046BDE8FD
:102E60007040FFF7B9BF3046FEF74EFCE1883046B0
:102E7000BDE87040FFF7BCBF002141800122828085
:102E8000C1800181704782898A438281704782892B
:102E90000A4382817047C9430161704702690A4051
:102EA00080890840002A02D008B101207047002024
:102EB0007047016821F4803101607047016841F476
:102EC000803101607047416841F4002141607047E2
:102ED000416841F4001141607047016841F001010F
:102EE00001607047F0B505460C4600212846FFF703
:102EF00007FF6E68288B20F0700020F00300278801
:102F0000074321890022284600F004F9608820B197
:102F100000212846FFF7FAFE03E000212846FFF7CC
:102F2000EFFE1148854202D01048854217D16189D1
:102F30000022284600F0E5F8A08820B100212846AC
:102F4000FFF7F0FE03E000212846FFF7E5FE26F438
:102F5000807020F40070A1890143E6890E436E6001
:102F60002F83E0886863F0BD002C014000340140ED
:102F7000028B22F008020A4302837047F0B505462F
:102F80000C4604212846FFF7BBFE6E68288B20F410
:102F9000E04020F4407021884FF6FF7202EA0127DA
:102FA000074321890422284600F0B4F8608820B144
:102FB00004212846FFF7AAFE03E004212846FFF774
:102FC0009FFE1248854202D01148854219D161897D
:102FD0000422284600F095F8A08820B10421284654
:102FE000FFF7A0FE03E004212846FFF795FE26F434
:102FF000806020F40060A18940EA8100E18940EA14
:1030000081066E602F83E088A863F0BD002C01402C
:1030100000340140028B22F400624FF6FF7303EA92
:103020000121114301837047F0B505460C46082184
:103030002846FFF765FE6E68E86980B220F07000F0
:1030400020F003002788074321890822284600F042
:1030500061F8608820B108212846FFF757FE03E099
:1030600008212846FFF74CFE1248854202D012483C
:10307000854219D161890822284600F042F8A088CB
:1030800020B108212846FFF74DFE03E0082128461D
:10309000FFF742FE26F4805020F40050A18940EA58
:1030A0000110E18940EA01166E60EF61E088E86393
:1030B000F0BD0000002C014000340140C26992B212
:1030C00022F008020A43C2617047082906D000298D
:1030D00003D1C16921F48031C1617047C16941F4F4
:1030E0008031C1617047082906D0002903D1C16928
:1030F00021F40011C1617047C16941F40011C1613F
:10310000704710B5036A08249440A34391401943C3
:10311000016210BD10B5036A02249440A34391409C
:103120001943016210BD00004268034B1A4042601F
:1031300042680A43426070478FFFFFFE30F8441F29
:10314000C1F30E010180704730F8441F41F4004183
:1031500001807047016821F4003101607047016807
:1031600041F40031016070471549884202D1C01412
:10317000FEF746BDB0F1804F05D01249884205D117
:103180000220FEF72BBD0120FEF728BD0E49884224
:1031900002D10420FEF722BD0C49884202D108204A
:1031A000FEF71CBD0A49884202D11020FEF716BD69
:1031B0000849884202D14014FEF722BD7047000042
:1031C000002C01400004004000080040000C0040BA
:1031D000001000400034014000B5034603F10C002C
:1031E00000F048F803F1180000F044F803F124005F
:1031F00000F040F803F1300000F03CF803F13C002F
:1032000000F038F803F148005DF804EB00F032B844
:10321000002101604160417201727047002202602A
:1032200041600121417202727047000000B51048F0
:10323000FFF7EEFF0E480C30FFF7EAFF0C4818309E
:10324000FFF7E6FF0A482430FFF7E2FF0848303076
:10325000FFF7DEFF064828210C3801801421418049
:103260008180C821C1804FF47A71018100BD0000C6
:1032700030010020417A01290CD1017A002909D1BD
:10328000D0E90012914205D2491C0160914201D15E
:10329000012101727047007A7047000003480168FD
:1032A000002902D00168491E016070475C000020BF
:1032B000FEE702E008C8121F08C1002AFAD17047D1
:1032C0007047002001E001C1121F002AFBD17047A6
:1032D000F8B504460020009088091449096831F8BF
:1032E0001050134931F81060208810FB05F06188F8
:1032F00040F3CF3011FB06F141F3CF31401A1021DA
:10330000FDF749FCADF80000608810FB05F021884E
:1033100040F3CF3011FB06F1C91300FA81F0102100
:10332000FDF739FCADF802000098F8BD4C00002014
:1033300094330008FFF784F9FDF7AAFCFFF776FF46
:103340000F4D104E41F2707401270F490F48FEF7E0
:1033500057FAB5F9000000F6B830A0420BD8B5F91D
:10336000020000F6B830A04205D8B5F9040000F616
:10337000B830A042E9D90020FCF7D6FE3770E4E768
:1033800078010020060000202401002052000020C7
:10339000FEF70CB90000C90092015B022403ED03A3
:1033A000B6047F0548061107D907A2086B09330A3E
:1033B000FB0AC40B8C0C540D1C0EE40EAB0F7310E7
:1033C0003A110112C8128F1355141C15E215A816D4
:1033D0006E173318F918BE19831A471B0C1CD01C22
:1033E000931D571E1A1FDD1F9F2062212422E522F4
:1033F000A72367242825E825A82668272728E52865
:10340000A429622A1F2BDC2B992C552D112ECC2E92
:10341000872F4230FC30B5316E322733DF3397349B
:103420004E350436BA3670372538D9388D39403A9A
:10343000F33AA53B573C083DB83D683E173FC63FB1
:1034400074402141CE417A422643D1437B442445F6
:10345000CD4575461D47C4476A480F49B449584A87
:10346000FB4A9E4B404CE14C814D214EC04E5E4F7D
:10347000FB4F98503451CF51695203539B533354EF
:10348000CA546055F6558A561E57B1574358D458FA
:103490006459F459825A105B9D5B295CB45C3E5DB3
:1034A000C85D505ED75E5E5FE45F6860EC606F6130
:1034B000F1617262F2627163EF636C64E964646586
:1034C000DE655766D0664767BD673268A7681A69C8
:1034D0008C69FD696E6ADD6A4B6BB86B246C8F6C0E
:1034E000F96C626DCA6D316E976EFB6E5F6FC26F65
:1034F00023708370E37041719E71FA715572AF72DF
:1035000008735F73B6730B746074B3740575567586
:10351000A675F47542768E76D97623776C77B47774
:10352000FB7740788578C8780A794A798A79C979A9
:10353000067A427A7D7AB77AEF7A277B5D7B927B37
:10354000C67BF97B2A7C5A7C897CB77CE47C0F7D26
:103550003A7D637D8A7DB17DD67DFB7D1E7E3F7E7B
:10356000607E7F7E9D7EBA7ED67EF07E0A7F227F41
:10357000387F4E7F627F757F877F987FA77FB57F7B
:10358000C27FCE7FD97FE27FEA7FF17FF67FFA7F2D
:10359000FE7FFF7FFF7FFF7FFE7FFA7FF67FF17F59
:1035A000EA7FE27FD97FCE7FC27FB57FA77F987FFA
:1035B000877F757F627F4E7F387F227F0A7FF07E14
:1035C000D67EBA7E9D7E7F7E607E3F7E1E7EFB7DA8
:1035D000D67DB17D8A7D637D3A7D0F7DE47CB77CAD
:1035E000897C5A7C2A7CF97BC67B927B5D7B277B1E
:1035F000EF7AB77A7D7A427A067AC9798A794A79F6
:103600000A79C87885784078FB77B4776C77237728
:10361000D9768E764276F475A67556750575B374AF
:1036200060740B74B6735F730873AF725572FA717E
:103630009E714171E37083702370C26F5F6FFB6E88
:10364000976E316ECA6D626DF96C8F6C246CB86BBD
:103650004B6BDD6A6E6AFD698C691A69A76832680E
:10366000BD674767D0665766DE656465E9646C646C
:10367000EF637163F2627262F1616F61EC606860C6
:10368000E45F5E5FD75E505EC85D3E5DB45C295C02
:103690009D5B105B825AF4596459D4584358B15712
:1036A0001E578A56F6556055CA5433549B530353DC
:1036B0006952CF5134519850FB4F5E4FC04E214E4E
:1036C000814DE14C404C9E4BFB4A584AB4490F494E
:1036D0006A48C4471D477546CD4524457B44D143C0
:1036E00026437A42CE4121417440C63F173F683E8F
:1036F000B83D083D573CA53BF33A403A8D39D9389F
:1037000025387037BA3604364E359734DF332733D1
:103710006E32B531FC304230872FCC2E112E552D14
:10372000992CDC2B1F2B622AA429E528272868273F
:10373000A826E82528256724A723E522242262213C
:103740009F20DD1F1A1F571E931DD01C0C1C471BEA
:10375000831ABE19F91833186E17A816E2151C152E
:1037600055148F13C81201123A117310AB0FE40EE7
:103770001C0E540D8C0CC40BFB0A330A6B09A208F7
:10378000D907110748067F05B604ED0324035B0241
:103790009201C900000038FF6FFEA6FDDDFC14FC9D
:1037A0004BFB82FAB9F9F0F828F85FF796F6CEF5F8
:1037B00006F53DF475F3ADF2E5F11DF156F08EEF2F
:1037C000C7EE00EE39ED72ECACEBE5EA1FEA59E921
:1037D00093E8CEE708E743E67EE5BAE4F5E331E3B4
:1037E0006EE2AAE1E7E024E062DF9FDEDDDD1CDDC2
:1037F0005ADC9ADBD9DA19DA59D999D8DAD71CD731
:103800005DD69FD5E2D425D468D3ACD2F0D135D1E2
:103810007AD0BFCF05CF4CCE93CDDACC22CC6ACBB9
:10382000B3CAFDC947C991C8DCC728C774C6C1C59A
:103830000EC55CC4AAC3F9C249C299C1EAC03BC063
:103840008DBFE0BE33BE87BDDBBC30BC86BBDDBAFE
:1038500034BA8CB9E4B83DB897B7F2B64DB6A9B54D
:1038600006B563B4C1B320B380B2E0B141B1A3B037
:1038700006B069AFCDAE32AE98ADFEAC66ACCEABA5
:1038800037ABA1AA0BAA77A9E3A850A8BEA72DA77A
:103890009DA60DA67FA5F1A464A4D8A34DA3C3A2A1
:1038A00039A2B1A12AA1A3A01DA0999F159F929E04
:1038B000109E8F9D0F9D909C129C959B189B9D9A8E
:1038C000239AAA993199BA984498CF975A97E7962C
:1038D0007596049693952495B6944994DD937293C6
:1038E00008939F923792D0916A910691A2903F904F
:1038F000DE8F7E8F1E8FC08E638E078EAC8D528DB5
:10390000F98CA28C4B8CF68BA18B4E8BFC8AAB8AEC
:103910005B8A0D8ABF8973892889DE8895884D88DE
:103920000688C1877C873987F786B7867786388689
:10393000FB85BF8584854A851285DA84A4846F84DB
:103940003B840884D783A78378834A831D83F282CC
:10395000C7829E82778250822B820682E381C28157
:10396000A1818281648147812B811181F780DF8071
:10397000C980B3809F808C807A8069805A804C8017
:103980003F80338028801F80178010800B80078045
:103990000380028001800280038007800B801080FA
:1039A00017801F80288033803F804C805A80698038
:1039B0007A808C809F80B380C980DF80F7801181FE
:1039C0002B81478164818281A181C281E38106824A
:1039D0002B82508277829E82C782F2821D834A8325
:1039E0007883A783D78308843B846F84A484DA8494
:1039F00012854A858485BF85FB8538867786B7869C
:103A0000F78639877C87C18706884D889588DE8848
:103A100028897389BF890D8A5B8AAB8AFC8A4E8BA1
:103A2000A18BF68B4B8CA28CF98C528DAC8D078EB2
:103A3000638EC08E1E8F7E8FDE8F3F90A290069188
:103A40006A91D09137929F9208937293DD93499433
:103A5000B6942495939504967596E7965A97CF97C2
:103A60004498BA983199AA99239A9D9A189B959B44
:103A7000129C909C0F9D8F9D109E929E159F999FCA
:103A80001DA0A3A02AA1B1A139A2C3A24DA3D8A36E
:103A900064A4F1A47FA50DA69DA62DA7BEA750A83E
:103AA000E3A877A90BAAA1AA37ABCEAB66ACFEAC54
:103AB00098AD32AECDAE69AF06B0A3B041B1E0B1C2
:103AC00080B220B3C1B363B406B5A9B54DB6F2B6A2
:103AD00097B73DB8E4B88CB934BADDBA86BB30BC10
:103AE000DBBC87BD33BEE0BE8DBF3BC0EAC099C121
:103AF00049C2F9C2AAC35CC40EC5C1C574C628C7F1
:103B0000DCC791C847C9FDC9B3CA6ACB22CCDACC9D
:103B100093CD4CCE05CFBFCF7AD035D1F0D1ACD23A
:103B200068D325D4E2D49FD55DD61CD7DAD799D8EF
:103B300059D919DAD9DA9ADB5ADC1CDDDDDD9FDED2
:103B400062DF24E0E7E0AAE16EE231E3F5E3BAE404
:103B50007EE543E608E7CEE793E859E91FEAE5EAA0
:103B6000ACEB72EC39ED00EEC7EE8EEF56F01DF1C6
:103B7000E5F1ADF275F33DF406F5CEF596F65FF797
:103B800028F8F0F8B9F982FA4BFB14FCDDFCA6FD2D
:103B90006FFE38FF0000C90092015B022403ED03B1
:103BA000B6047F0548061107D907A2086B09330A36
:103BB000FB0AC40B8C0C540D1C0EE40EAB0F7310DF
:103BC0003A110112C8128F1355141C15E215A816CC
:103BD0006E173318F918BE19831A471B0C1CD01C1A
:103BE000931D571E1A1FDD1F9F2062212422E522EC
:103BF000A72367242825E825A82668272728E5285D
:103C0000A429622A1F2BDC2B992C552D112ECC2E8A
:103C1000872F4230FC30B5316E322733DF33973493
:103C20004E350436BA3670372538D9388D39403A92
:103C3000F33AA53B573C083DB83D683E173FC63FA9
:103C400074402141CE417A422643D1437B442445EE
:103C5000CD4575461D47C4476A480F49B449584A7F
:103C6000FB4A9E4B404CE14C814D214EC04E5E4F75
:103C7000FB4F98503451CF51695203539B533354E7
:103C8000CA546055F6558A561E57B1574358D458F2
:103C90006459F459825A105B9D5B295CB45C3E5DAB
:103CA000C85D505ED75E5E5FE45F6860EC606F6128
:103CB000F1617262F2627163EF636C64E96464657E
:103CC000DE655766D0664767BD673268A7681A69C0
:103CD0008C69FD696E6ADD6A4B6BB86B246C8F6C06
:103CE000F96C626DCA6D316E976EFB6E5F6FC26F5D
:103CF00023708370E37041719E71FA715572AF72D7
:103D000008735F73B6730B746074B374057556757E
:103D1000A675F47542768E76D97623776C77B4776C
:103D2000FB7740788578C8780A794A798A79C979A1
:103D3000067A427A7D7AB77AEF7A277B5D7B927B2F
:103D4000C67BF97B2A7C5A7C897CB77CE47C0F7D1E
:103D50003A7D637D8A7DB17DD67DFB7D1E7E3F7E73
:103D6000607E7F7E9D7EBA7ED67EF07E0A7F227F39
:103D7000387F4E7F627F757F877F987FA77FB57F73
:103D8000C27FCE7FD97FE27FEA7FF17FF67FFA7F25
:103D9000FE7FFF7F00000000010203040102030414
:103DA0000607080901020406080A0C10202020203A
:103DB00020202020010002000400060008000A0064
:103DC0000C001000200040008000000100010001F4
:103DD00000010001F43D0008000000208C000000FC
:103DE000B2320008803E00088C00002084150000DC
:103DF000C232000800000000000000000AD7A33D06
:103E00006F1283396F1283396F12833905000000F6
:103E100000001042000080410000FA43CF39B64054
:103E200071051F3C2148263F36CC58392148A64110
:103E300000000042701700007C59444536CCD83B46
:103E40009435000800000000000000000020A107D9
:103E50000000000000000000000000000000000062
:103E60000000000000000000000000000000000052
:103E700000400600000000000000000000000000FC
:0400000508000115D9
:00000001FF
