:020000040800F2
:1000000038160020B10200084519000863110008E5
:10001000651800081D0A00084532000800000000AD
:10002000000000000000000000000000A91D000802
:10003000470C000800000000C7020008E524000883
:10004000CB020008CB020008CB020008CB0200085C
:10005000CB020008CB020008CB020008CB0200084C
:10006000CB020008CB020008CB020008CB0200083C
:10007000CB020008CB020008CB020008CB0200082C
:10008000CB020008CB020008CB02000815050008CF
:10009000CB020008CB020008CB020008B126000802
:1000A00085280008CB020008DD260008A9280008E2
:1000B000CB020008D1290008E111000865110008F1
:1000C000CB020008CB020008CB020008CB020008DC
:1000D000CB020008CB020008CB020008CB020008CC
:1000E000CB020008CB020008CB020008CB020008BC
:1000F000CB020008CB020008CB020008CB020008AC
:10010000792A0008CB020008CB020008CB020008C5
:10011000CB020008DFF80CD000F0EEF800480047F2
:10012000C93200083816002070B502465E4D2C68B2
:100130005E4940F255530978002900D11C435A48C2
:100140002038072A7FD2DFE802F00408173656630A
:100150007100BDE8704002F0BBBF1C432C608021E1
:10016000044602F062FE8021204602F05AFE20463C
:10017000BDE8704002F0B2BF81B124F0040121F06B
:10018000400121F4806141F0010141F0100141F48E
:1001900080712960BDE8704002F0A0BF24F0010129
:1001A00021F0100121F4807141F0040141F040017F
:1001B00041F48061EDE7012910D024F0040121F021
:1001C000400121F4806141F0010141F0100141F44E
:1001D00080712960BDE8704002F080BF24F0010109
:1001E00021F0100121F4807141F0040141F040013F
:1001F00041F48061EDE741B144F0020141F00401B6
:100200002960BDE8704002F069BF24F00201F5E703
:1002100041B144F0200141F040012960BDE8704047
:1002200002F05CBF24F02001F5E70CE041B144F49A
:10023000007141F480612960BDE8704002F04EBF5A
:1002400024F40071F5E702F043FF2C6070BD2DE946
:10025000F04107460E461546134C3946203C2046D1
:1002600002F03EFD3146204602F046FD294620467A
:1002700002F04EFD3946204602F050FD3146204640
:1002800002F04FFD2946204602F04EFD3946204639
:1002900002F020FD3146204602F028FD2946204686
:1002A000BDE8F04102F02EBD202C0140600000208E
:1002B0000648804706480047FEE7FEE7FEE7FEE700
:1002C000FEE7FEE7FEE7FEE7FEE7FEE71926000889
:1002D00015010008D2B201E000F8012B491EFBD243
:1002E00070470022F6E710B513460A460446194641
:1002F000FFF7F0FF204610BD064C074D06E0E06812
:1003000040F0010394E8070098471034AC42F6D35C
:10031000FFF704FF2C3D00084C3D0008024801682F
:1003200021F0100101607047580802400D490D4A44
:100330004C39012802D0022808D005E0106818B90D
:10034000086840F004000860002070470868400713
:1003500005D5106808B100207047012070470020C3
:10036000704700005408024010B5072309280BD835
:10037000124A146800EB400083409C4314601368E9
:1003800081400B43136010BD11280DD80A380B4A69
:10039000121F146800EB400083409C4314601368F4
:1003A00081400B43136010BD04484C30026822F0BA
:1003B0000702026002680A43026010BD1008024092
:1003C00070B504460D4601F0EDFB34B1284601F04E
:1003D000F9FBBDE8704000F039BA01F0EBFB2846AC
:1003E00001F0D6FBBDE87040FFF798BF02480168F6
:1003F00021F00201016070470808024002480168CC
:1004000041F002010160704708080240024801689B
:1004100021F48071016070470808024004490A68AD
:1004200022F400620A600A6802430A607047000012
:10043000080802401049B0F5006F12D040F60102E2
:1004400012180AD0B0F5805F10D06FF4805290423D
:1004500002D10A6802400A6070470A6802400A60D6
:100460007047086840F4006008607047086840F40E
:100470008050086070470000040802401049B0F541
:10048000801F12D000F58012521C0AD0B0F5004F28
:1004900010D06FF40042904202D10A6802400A6014
:1004A00070470A6802400A607047086840F480108C
:1004B00008607047086840F400400860704700001A
:1004C00008080240012805D00848006810420AD0F8
:1004D00001207047054858380068084201D00120C3
:1004E0007047002070470020704700005808024005
:1004F00002490A6882430A6070470000000802400F
:1005000003490968014201D001207047002070476B
:10051000000802402DE9F04F2DED028B85B07C489C
:100520000068C0F3015707F1010BC7F10405402033
:10053000FFF7E6FF012806D10821764800F0EDFD1F
:100540004020FFF7D5FF0420FFF7DAFF01280BD08A
:100550000120FFF7D5FF012801D1FFF7C9FF05B042
:10056000BDEC028BBDE8F08F00F084F9DFF8A891B4
:10057000A9F80000C00000EE100AB8EE400ADFED56
:10058000670A20EE200A9FED668A664E20EE080A72
:10059000BDEEC00A10EE100A3082DFF88C814FF0F9
:1005A000140A2C4605EB0B070AE0601B0AEB8000DF
:1005B000C0B200F0FBF808EB4401C881641CE4B24F
:1005C000A742F2D808EB4500B0F90E00A9F80200E6
:1005D0006D1C08EB4501B1F90E10A9F80410534C3D
:1005E00062781AB1504800F0F7F92BE0B8F80A2009
:1005F000801A00B2A9F80200B8F80C20891A09B2D2
:10060000A9F80410C00000EE100AB8EEC00ADFED31
:10061000480A20EE200A20EE080ABDEEC00A10EEBD
:10062000100AA8F80600C80000EE100AB8EEC00ACA
:1006300020EE200A20EE080ABDEEC00A10EE100AD5
:10064000A8F80800E078012802D1A078012806D097
:100650000020FFF769FD0420FFF74AFF7FE72078BD
:10066000042804D0052807D0062811D10CE0B6F8DC
:100670006600A6F864000BE02E4800F0A0F9A6F88A
:100680006200A6F8640003E0B6F86000A6F8640013
:10069000254901A801F038FADDE90101CDE903019E
:1006A00003A800F0BCF934463060B4F864101D486B
:1006B00001F0FEF9A0601F485038018FA4F86810BF
:1006C000B0F94C00A4F86A00B4F90A10411A1948AC
:1006D000143801F081F9E081B4F96800B4F9081028
:1006E000411A1448283801F077F9A0810D48B4F870
:1006F00064100C3002F0B6FD606000F0AFFA211D0E
:100700000D4801F0A9FB0120FFF70EFDA3E7000053
:10071000380802400038024000000020A0E7B63848
:1007200000008046A80000209C010020520000200C
:100730004A0125390C0200208C00002000B5034638
:100740001878002802D000F071F801E000F066F897
:10075000587810B1FFF752FE01E0FFF747FE084856
:10076000016841F028010160586800F089F8986834
:10077000FFF754FED8685DF804EB00F06FB8000096
:100780006008024004490A6822F440120A600A68BC
:1007900002430A60704700003808024002480168BE
:1007A00021F48061016070470408024008B50449E3
:1007B0000844283000900098006880B208BD00000E
:1007C0000008024004490A6822F4E0420A600A680C
:1007D00002430A60704700000808024010B5064A4C
:1007E000136801EB81011F248C40A343136013683D
:1007F00088400343136010BD38080240802804D8A5
:1008000005490A6802430A607047034954310A687F
:1008100002430A6070470000040802400248016871
:1008200021F48071016070470408024002480168A9
:1008300041F4807101607047040802400248016879
:1008400041F0010101607047080802400248016858
:1008500041F01001016070475808024004490A68DD
:1008600022F470020A600A6802430A6070470000BE
:100870002C0802400148006880B270474C080240D2
:1008800004490A6822F460220A600A6802430A6086
:10089000704700000808024010B51F2305290BD837
:1008A000144A146801EB81018B409C431460136867
:1008B00088400343136010BD0B290DD80D4A121F49
:1008C0001468891F01EB81018B409C4314601368FD
:1008D00088400343136010BD064A083A14680C3977
:1008E00001EB81018B409C431460136888400343F3
:1008F000136010BD340802404FF4805001F074B909
:1009000030B585B0FFF7F8FF01258DF804508DF85C
:1009100005504FF46020029000240394049401A831
:10092000FFF70CFF00210B20FFF7B6FF02210B2081
:10093000FFF71AFD2805FFF725FF02210820FFF722
:1009400013FD03210820FFF749FF02210820FFF7CC
:1009500045FF0020FFF736FFFFF720FF2803FFF7D2
:1009600069FDFFF76BFF202240210220FFF7AAFD5F
:100970000028F8D00120FFF7D9FC0220FFF7D6FCB1
:100980000028FAD113208DF800008DF801408DF871
:1009900002408DF80350684600F0D6FF8020FFF734
:1009A0002DFF4FF40070FFF729FFFFF72FFD4FF4E5
:1009B0000040FFF763FDFFF741FF05B030BDB0F920
:1009C00008104AF2F8225143090C8289114489B275
:1009D000818108467047000010B50D4CD0E9061221
:1009E0002388402B0AD25B1C23800A4B1B881944A6
:1009F0008161094909881144C16110BD0023238028
:100A000089114181911181818361C36110BD000011
:100A1000500000200200002004000020FEE708B57E
:100A2000002100910188ADF80010B0F90210B0F972
:100A30000400081A49F2CE3148430014ADF8020010
:100A4000009808BD074AB2F95200C1035161064B34
:100A50009988198059801882B2F96800C003106023
:100A600070470000BC010020060100204160704773
:100A7000016841F00101016070470161704702683F
:100A800022F02002026002680A4302607047026896
:100A900022F01002026002680A430260704710B53B
:100AA00004460B462046196800F04CF82046596869
:100AB00000F036F820469968FFF7E9FF2046D9682C
:100AC000FFF7D4FF2046196900F034F82046596931
:100AD00000F01EF82046996900F036F82046D969E2
:100AE00000F020F82046196AFFF7C9FF2046596A2E
:100AF00000F032F82046996ABDE81040AFF300805C
:100B0000026822F48042026002680A430260704771
:100B1000026822F08002026002680A4302607047A5
:100B2000C1607047026822F44062026002680A43B2
:100B300002607047026822F04002026002680A43C5
:100B40000260704781607047026822F44072026060
:100B500002680A4302607047026822F44052026051
:100B600002680A4302607047016821F001010160D8
:100B70000021016041608160C1602449234A083935
:100B8000904204D1486840F00F00486070471F4A07
:100B90001432904204D1486840F0F0004860704739
:100BA0001A4A2832904204D1486840F47060486084
:100BB0007047164A3C32904204D1486840F4704075
:100BC00048607047114A5032904204D1486840F45E
:100BD0007020486070470D4A6432904204D14868E2
:100BE00040F4700048607047084A7832904204D15F
:100BF000486840F0706048607047044A8C32904208
:100C0000FAD1486840F070404860704708000240E0
:100C10000021016041608160C160016141618161C9
:100C2000C16101624162816270470246491E012032
:100C30008840401EC143824202DC8A4201DA0846F3
:100C4000704710467047704703E00921491E4A1C4F
:100C5000FCD1401E411CF8D1704700002DE9FC4139
:100C60002F4C201DB4F8601000F022FF0190B4F862
:100C70006010204600F01CFF0090A28AB4F90830F2
:100C8000BDF8041002FB03F0A1EBE037B4F96E00ED
:100C9000618AB4F90A50414301FB05F607EB667619
:100CA00036B26A43BDF806505943A5EBE232A2EBD7
:100CB00061710AB2002801DD012101E04FF0FF312E
:100CC00001FB162189036E34B4F90E2091FBF2F179
:100CD00009B2B4F91020091A5143CA13B4F9061025
:100CE00011FB02F200EBE23000B224F86E0944F688
:100CF000CD42904201DD104603E00A4A904200DAFC
:100D000010466034E0814843C0F3CF30218842F67A
:100D1000BE02504301EB90302080BDE8FC81000012
:100D2000A800002033B3FFFF70B56C218348FFF7A4
:100D3000D8FAA0218248FFF7D4FA82498048D1ED41
:100D4000003A91ED0A4A503083EE840A00ED0D0A14
:100D500091ED032A91ED0B1AC2EE010A40ED0E0A45
:100D60009FED791A20EE010ABDEEC00A10EE102A9E
:100D700092B220F83C2C20EE810ABDEEC00A10EEA3
:100D8000103A9BB220F83E3C9FED700A80ED080AB5
:100D900041F621148484DFED6E0AC0ED0A0A45F2A3
:100DA0003B64848546F26564C48543F6FF74C4825F
:100DB000D1ED072ADFED671AC1EEA20AC0ED0C0AD9
:100DC0009FED653AC3EE221A40ED011AB7EE003AE4
:100DD000F0EE434A41EE804A83EE245A25EE013A72
:100DE000BDEEC33A13EE101A20F80C1CC0ED021A27
:100DF00013EE101A01809FED593AC3EE221AC0ED8E
:100E00000D1ADFED572A24EE224A84EE023A23EE31
:100E1000013ABDEEC33A13EE101A018763EEA22A1F
:100E200082EE823A23EE012ABDEEC22A12EE101A99
:100E3000418743F26661818740F23331C1871121D6
:100E4000A0F8401021EEA12A3C4822EE002A22EE12
:100E5000012ABDEEC22A12EE101AC183B0EE002A9A
:100E600061EE821A21EE811ABDEEC11A11EE101A3E
:100E7000818344F6CC4141834C4204830025456183
:100E800001EE102AB8EE411A20EE811A21EE001A66
:100E9000BDEEC11A11EE106A46862C3001EE103AF2
:100EA000B8EE411A20EE811ABDEEC11A11EE106A99
:100EB00086804180048040F8045C01EE102AB8EE80
:100EC000411A20EE811A21EE000ABDEEC00A10EE92
:100ED000102A428300EE103AB8EE400A20EE800A53
:100EE000BDEEC00A10EE102A0283C1828482056121
:100EF000642220F8222C4FF47A7220F8242C20F857
:100F0000261C20F8284C40F82C5C4FF400618186A8
:100F10001422C2860187818740F2666141873321AE
:100F2000C187DA21C1854FF4807101850221818456
:100F30000C48602101837921C18270BDBC01002071
:100F4000A80000200800002000FEFF46DC0F493EFC
:100F5000D377AC3F00009643000048430000C842EE
:100F60006F1283388C00002010B514074FEA4272CC
:100F70004FEAD2624FF00F0303FA02F301FA02F1D3
:100F800004D5426A9A431143416210BD026A9A43F2
:100F90001143016210BD00002DE9F04186B06846A2
:100FA00000F0D4F80225049501240194402000901B
:100FB0002F4F6946384600F088F8202000900194B1
:100FC000DFF8B0806946404600F07FF820030090CB
:100FD00001946946384600F078F808260096019496
:100FE0006946404600F071F83020009003941220CA
:100FF0000190059602946946384600F066F8684606
:1010000000F0A4F804950195032405944FF4E060E2
:1010100000906946384600F058F805944FF4604057
:1010200000906946404600F050F80020019002957B
:1010300009200590A80200906946384600F045F85E
:10104000684600F083F80194802000906946384695
:1010500000F03BF8684600F079F801940420009015
:101060006946404600F031F806B0BDE8F081000066
:10107000003402400038024010B5C36A5200032415
:101080009440A34391401943C16210BD70B50568F7
:1010900001F00304530003269E40B5439C402C43BB
:1010A0000460012905D0112903D0022901D0122999
:1010B00008D1436801249440A343C1F30011914037
:1010C0001943416070BD8162704770B506460C4699
:1010D00000251DE00120A8400140C1B12A4630464C
:1010E0006169FFF741FF2A4630466168FFF7CEFF8E
:1010F0002A463046A16800F016F82A463046E168D4
:1011000000F01BF82A4630462169FFF7B5FF6D1C39
:10111000216831FA05F0DDD170BD42694A40426173
:1011200070478161704710B5C36852000324944032
:10113000A34391401943C16010BD10B583680124D9
:101140009440A34391401943816010BD4FF6FF7155
:1011500001600021C16041600F2242618160016134
:101160007047FEE72DE9F041DFF86480194F4146F2
:10117000384600F0A8F9174E174C1836032580B1F1
:10118000207818B1384600F0B7F906E03088C0077B
:1011900003D0384600F0B5F965714146384600F095
:1011A0008FF9DFF838803846414600F08CF9002886
:1011B0000CD03088C00703D0384600F0A2F9657122
:1011C00041463846BDE8F04100F07AB9BDE8F0810B
:1011D00000040010005400406800002000010010CE
:1011E0002DE9F0414F4E304600F0AEF94E4A00274F
:1011F000811A4E4C4FF4E06890426FD015DC6FF4CA
:101200004031401829D0012825D03F2823D130462D
:1012100000F018F9A26902F8010BA261208A401EB1
:1012200081B22182012936D03BE00125022942D03A
:10123000042910D1A07800280DD1E089D0B3A0896D
:10124000411CA18139491C31095C304600F0FDF890
:10125000E089401EE081BDE8F081207808B90220D5
:101260006071A078012806D0A17C3046BDE8F0412D
:10127000002200F05DB8607830B1A17C01223046D8
:1012800000F056F86770E6E7A17C3046BDE8F04113
:10129000002200F04DB8304600F053F8304600F020
:1012A00030F9208A0028D6D14146304600F048F96E
:1012B0006771D0E71AE0207848B127704146304680
:1012C00000F03EF9304600F01CF96771C3E7A179E0
:1012D000304600F0BAF86570BDE7FFE7A078012856
:1012E000B9D13046BDE8F04100F006B9304600F013
:1012F00008F94FF4C82161614FF4003706E06269D4
:10130000521E6261521C01D101F0EEFF3946304697
:1013100000F0D9F80028F2D125703046BDE8F04140
:1013200000F0EAB800540040800007006800002088
:10133000012A03D021F001010182704741F001012F
:10134000FAE7018821F4806101807047028822F465
:1013500080620A4302807047028922F400420A43F5
:1013600002817047028822F00A020A430280704715
:1013700070B586B004460D461646684600F06AFC15
:10138000A08820F03F0302992B48B1FBF0F080B217
:10139000202800D920200343A380228822F00102C4
:1013A0002280226A22F03F03244A95420BD86A0029
:1013B000B1FBF2F189B2042900D20421401C00F0F3
:1013C0003F0018432FE0B6F5804F05D005EB4502EE
:1013D000B1FBF2F18AB208E005EBC50202EB05129F
:1013E000B1FBF2F189B241F48042110501D142F022
:1013F000010242F40041124E4FF47A72B54209D80C
:101400004FF496756843B0FBF2F0401C00F03F00CB
:10141000184308E0C0EB0010C000B0FBF2F0401C25
:1014200000F03F0018432062A183208840F00100B3
:10143000208006B070BD000040420F00A086010071
:10144000801A0600008AC0B270470182704700000F
:1014500010B58AB0174C204600F084F804A8FFF7B6
:1014600075FE302104910121079112220592082274
:101470000992069104A91048FFF727FE204600F0C4
:1014800071F80021ADF804104BF6FF71ADF80610AD
:10149000FF20ADF808002015ADF80A000001ADF8F6
:1014A0000C00064800906946204600F02FF80AB06C
:1014B00010BD00000054004000340240801A0600B5
:1014C000C943818270470CB50190080F009021F04C
:1014D0007F40009900290AD00199143101910199A6
:1014E0000968014201D100200CBD01200CBD000C97
:1014F000019918310191F2E7018841F4807101806E
:101500007047018841F400710180704770B505464D
:101510000C462846E2882168FFF72AFFA188284662
:10152000FFF720FF61892846FFF710FFA1892846B1
:10153000FFF712FF21892846BDE8704000F00BB884
:1015400082888A4382807047818A008B000401432D
:1015500021F07F40704702896FF309020A4302813C
:10156000704700000549884203D14FF4001000F095
:1015700055BB4FF4800000F051BB00000054004008
:1015800010B50E490879032817D2401C08714FF492
:101590000014204600F042FB204600F02FFB0849D3
:1015A0000A6822F470420A60204600F037FB00F01F
:1015B00009F8BDE81040FFF74BBF10BD68000020E0
:1015C0000038024030B587B001A8FFF7BFFD1020FA
:1015D000019000200490012002900D4D01A92846A1
:1015E000FFF773FD002410212846FFF79AFD052020
:1015F000FFF72AFB10212846FFF765FD0520FFF7BE
:1016000023FB641CE4B2092CEDD307B030BD00000D
:101610000034024030B587B001A8FFF797FD3020B5
:10162000019000200490029001A91348FFF74DFD9E
:10163000124C4FF4C82060610F4D10352868C0F37C
:101640000110032807D06069401E6061401CF5D17D
:10165000FFF796FFF2E70A48018841F40041018054
:1016600000BF00BF00BF00BF00BF018821F40041E0
:10167000018007B030BD0000003402406800002047
:101680000054004070B5046A24F001040462058B24
:10169000046A25F0F3054FF6FF7606EA03131343B9
:1016A0002B43104A90420ED00F4A90420BD0B0F11B
:1016B000804F08D00D4A904205D00D4A904202D08A
:1016C0000C4A904205D124F002020A4342F0010183
:1016D00004E024F00A020A4342F00101038301629C
:1016E00070BD0000002C01400034014000040040A7
:1016F00000080040000C0040F0B5046A24F010041B
:101700000462058B046A0E0125F473454FF6FF77DA
:1017100007EA03332B4307EA02221A430F4B98428E
:101720000ED00F4B98420BD0B0F1804F08D00D4B2C
:10173000984205D00C4B984202D00C4B984205D1F0
:1017400024F02001314341F0100104E024F0A00313
:101750000B4343F0100102830162F0BD002C0140F5
:10176000003401400004004000080040000C00402C
:10177000F0B5046A24F480740462C469A5B2046AF2
:101780000E0225F0F3054FF6FF7707EA0313134324
:101790002B43104A90420ED00F4A90420BD0B0F12A
:1017A000804F08D00D4A904205D00D4A904202D099
:1017B0000C4A904205D124F40071314341F4807108
:1017C00004E024F420620A4342F48071C3610162A0
:1017D000F0BD0000002C0140003401400004004036
:1017E00000080040000C0040F0B5046A24F4805466
:1017F0000462C469A5B2046A0E0325F473454FF66A
:10180000FF7C0CEA02272F430CEA03323A43104BC9
:1018100098420ED00F4B98420BD0B0F1804F08D0B9
:101820000D4B984205D00D4B984202D00C4B98427C
:1018300005D124F40051314341F4805104E024F4F3
:1018400000530B4343F48051C2610162F0BD0000BC
:10185000002C01400034014000040040000800401A
:10186000000C0040FEE700002DE9F04704460D465D
:1018700021780327012605F10C0005F1180805F170
:10188000300205F13C0909290AD2DFE801F0050B15
:1018900017212B3A4C525700298801F089FC2670F9
:1018A000BDE8F08701F0C1FC0028F9D06988404606
:1018B00001F07EFC022020706670F1E7404601F0E6
:1018C000B4FC0028ECD000206070E6702770E7E7D9
:1018D000A0780128E4D1E988104601F069FC0420D1
:1018E0002070DDE7104601F0A0FC0028D8D029893F
:1018F000484601F05DFC05202070BDE8F04700F08F
:101900005FB8484601F091FC0028C9D00C48B0F9F6
:101910000210B0F900008142C2D106202070BDE85B
:10192000F047FFF78FB8A0780028B9D107202070C2
:10193000B6E72770BDE8F047FFF7F6B92770AFE7C5
:10194000220200207047000070B50F23C2780126E4
:101950000178002A1ED0144A126802F4E062C2F52F
:10196000E062120AC2F10404D3404578A5408278AF
:101970001A402A43120101F1E02181F80024007885
:1019800000F01F018E404009800000F1E020C0F807
:10199000006170BD01F01F0086404809800000F121
:1019A000E020C0F8806170BD0CED00E00249084302
:1019B00002490860704700000000FA050CED00E0E5
:1019C00003480449B0F86600A1F85C0070470000C5
:1019D000A8000020BC01002070B504460A46B4F9F6
:1019E0000400C603B4F90600C50310211046FFF732
:1019F0001CF90146E060B4F90A004843226810442B
:101A0000A84201DD284602E0B04200DA30462060FC
:101A1000B4F908004143C8131021FFF706F9216803
:101A200000EBE130B4F90610814201DA084604E027
:101A3000B4F90410814200DD084600B2608270BD36
:101A400038B5164D00200090154C206820F080001D
:101A50002060206840F04000206069461148A84797
:101A60000098C0B2052813D869460F48A8470098C7
:101A7000010E00F47F02120A00F47F4000021143BD
:101A800001430091094A106800F07F40084310604C
:101A9000206840F08000206038BD0000A502FF1FD4
:101AA0000020024020F0FF1F30F2FF1F041800400A
:101AB000F8B504460020009088091149096831F8FA
:101AC0001050104931F91060208810FB05F0618832
:101AD00011FB0600C0131021FFF7A7F8ADF80000B6
:101AE000608810FB05F0B4F9001001FB1600C0136C
:101AF0001021FFF79AF8ADF802000098F8BD000039
:101B00004C000020EC3200087CB51A4A15880022EF
:101B1000009201920B89B1F906205B421BB2D418E6
:101B2000644224B2052D18D2DFE805F003070B0F3D
:101B300013000A808B804C8012E04A808B800C80DE
:101B40000EE04A800B808C800AE08A800B804C80FB
:101B500006E08A804B800C8002E00A804B808C80FB
:101B600006C9CDE9001200990160BDF8041081801A
:101B70007CBD00008C000020044BDA6A22F48062F5
:101B800022F4784202430A43DA62704700100240AE
:101B9000034AD16A21F00F010143D162704700006E
:101BA000001002400248016841F0010101607047E5
:101BB000801002400248C16A21F48071C1627047FE
:101BC00000100240034AD16A21F4F8710143D16246
:101BD000704700000010024002494A6902434A610E
:101BE000704700000010024003498A6A02438A627B
:101BF0008A6A82438A627047001002400249CA69B9
:101C00008243CA6170470000001002400249CA695D
:101C10000243CA61704700000010024003490A698C
:101C200002430A610A6982430A6170470010024058
:101C300002498A6902438A6170470000001002402D
:101C40000349CA680243CA60CA688243CA607047CF
:101C50000010024030B52F4B59682F4A11405A6886
:101C600002F480320C0103D4022404EB914103E01E
:101C70006FF4F77404EB91412AB15A6892030BD5C3
:101C8000264A51430AE01A6CD20702D0234A514334
:101C900004E0234A514301E0214A51435A6802F0CB
:101CA0000C021F4C7AB3042A30D0082A30D00460CA
:101CB0005A68C2F303121B4CA55C0268EA404260FA
:101CC0005D68C5F30225655D22FA05F585605D68EE
:101CD000C5F3C225645D22FA04F4C460DC6A04F032
:101CE0000F04104D10352C5DB2FBF4F24261DA6A3C
:101CF000120902F00F0205F1100333F81220B1FBB4
:101D0000F2F1016130BDFFE70460D1E70460CFE785
:101D10000160CDE70010024000003C0800093D00D2
:101D200000127A00EC3C000810B54FF48060FFF719
:101D30003DFE4FF4C06000F02DF84FF40060FFF757
:101D400077FF0120FFF762FF0420FFF75FFF1020FD
:101D5000FFF75CFF0120FFF73FFF4FF4C070FFF774
:101D60003BFF0120FFF764FF4FF48050FFF734FF83
:101D700002210020FEF724FB4FF460510020FFF702
:101D8000FBFEC020FFF742FFBDE810404FF40010FB
:101D9000FFF73CBF034A516821F4E0610143516001
:101DA00070470000001002407047000000780023D8
:101DB000042808D0052819D0062803D13831088E08
:101DC00088820B807047B1F95E00B1F960209042C3
:101DD00005DAB1F862201044A1F85E0001E0A1F834
:101DE0005E2038318B82C88C08807047B1F9520070
:101DF000B1F95420904205DAB1F850201044A1F80E
:101E0000520001E0A1F85220124A31F9520FB2F803
:101E1000742010FB02F2D213CA80B1F908205239A3
:101E2000904204DA3831888D88820B807047B1F98E
:101E30006820B1F96600824205DDB1F86A00101A27
:101E4000A1F8680001E0A1F868003831088E8882A6
:101E50000B807047A80000202DE9F05F04460B4678
:101E6000FE4AB2F800C040F6DB52FD4D0CFB02F218
:101E700005EA4212FB4D2D8A92FBF5F295B22581BF
:101E8000B3F9028005FB08F242F3CF32B3F80090B9
:101E900046F6DA6319FB03F303EB8833DB136B437A
:101EA00043F3CF334FEA883A4CF6930B19FB0BFB05
:101EB0000AEB4B0B4FEAEB3B0BFB05FB4BF3CF3530
:101EC00046F6D86B19FB0BFBC8F1000E0BEB8E3BF3
:101ED0004BF3CF3B4FF2252E19FB0EF90AEBC90944
:101EE00049F3CF39B8F1000F02DD4FF0010801E0EE
:101EF0004FF00008BBF1000F02DD4FF0010A01E0D6
:101F00004FF0000AB9F1000F02DD4FF0010901E0C6
:101F10004FF000094FEA890909EB4A09C84408F063
:101F2000FF084FF0000AB8F1070F28D2DFE808F0E9
:101F30002704090F151B210029461846012222807B
:101F40001DE01946504200B20522228017E0684287
:101F500001B21046A4F800A011E0504201B2284698
:101F6000032222800BE01146584200B20222228056
:101F700005E0584201B2684200B2042222804A10B1
:101F80004010ACEB0201091A09B26280A0804B102C
:101F9000E38098464346D5180FFA85FB00EB0B010A
:101FA0000FFA81F9218806296AD2DFE801F0036A75
:101FB000D1F3F2F1A4F80A80A4F80CB0A4F80E90C2
:101FC000A4F81080A4F812B0A4F81490B4F9161074
:101FD0008A420FDA88420DDA8A1AA8EB020363817B
:101FE00042442282081A09EB0001E181A9EB0000BA
:101FF000A0823EE08A421CDA88421ADD8D4206DD6C
:10200000881AA8EB000161814044208231E0E68813
:10201000A4F80AA0464426821A4410444A001041FB
:1020200027D0481B0BEB0001A181ABEB00006082C5
:102030001FE08A421DDD88421BDAC5188D4207DD8C
:10204000081A09EB0001E181A9EB0000A08210E071
:10205000E688A4F80EC0A9EB0606A6821A4410442E
:102060004A00104105D0481BABEB0001A181584448
:1020700060826189208B01448EB2A189084487B2B5
:102080000BE2A4F80AB0A4F80C80A4F80E90A4F80F
:1020900010B0A4F81280A4F81490B4F916108A4273
:1020A0000FDA88420DDA8A1AA8EB0203A3814244B0
:1020B0006282081A09EB0001E181A9EB0000A0820D
:1020C0003EE08A421CDA88421ADD8D4206DD881A1B
:1020D000A8EB0001A1814044608231E0E688A4F8C9
:1020E0000CA0464466821A4410444A00104127D08E
:1020F000481B0BEB00016181ABEB000020821FE06D
:102100008A421DDD88421BDAC5188D4207DD081A98
:1021100009EB0001E181A9EB0000A08210E0E68854
:10212000A4F80EC0A9EB0606A6821A4410444A0081
:10213000104105D0481BABEB00016181584420825F
:10214000A189208B01448EB26189084487B2A4E141
:10215000A4F80A90A4F80C80A4F80EB0A4F810908B
:10216000A4F81280A4F814B0B4F916108A4212DA56
:10217000884210DA8A1AA8EB0203A38142446282E1
:10218000081A09EB00016181A9EB0000208241E0FF
:102190001DE1B5E046E08A421CDA88421ADD8D4234
:1021A00006DD881AA8EB0001A1814044608231E07D
:1021B000E688A4F80CA0464466821A4410444A00FB
:1021C000104127D0481B0BEB0001E181ABEB000075
:1021D000A0821FE08A421DDD88421BDAC5188D42AD
:1021E00007DD081A09EB00016181A9EB00002082DC
:1021F00010E0E688A4F80AC0A9EB060626821A4475
:1022000010444A00104105D0481BABEB0001E181AE
:102210005844A082A189208B01448EB2E1890844F0
:1022200087B23AE1A4F80A90A4F80CB0A4F80E80A2
:10223000A4F81090A4F812B0A4F81480B4F9161001
:102240008A4216DA884214DA8A1AA8EB0203E3817A
:102250004244A282081A09EB000105E06400002054
:102260000080FFFFA80000206181A9EB0000208210
:102270003EE08A421CDA88421ADD8D4206DD881A69
:10228000A8EB0001E1814044A08231E0E688A4F897
:102290000EA04644A6821A4410444A00104127D09A
:1022A000481B0BEB0001A181ABEB000060821FE03B
:1022B0008A421DDD88421BDAC5188D4207DD081AE7
:1022C00009EB00016181A9EB0000208210E0E688A3
:1022D000A4F80AC0A9EB060626821A4410444A0054
:1022E000104105D0481BABEB0001A181584460822E
:1022F000E189208B01448EB2A189084487B2CCE0E9
:10230000A4F80AB0A4F80C90A4F80E80A4F810B0B9
:10231000A4F81290A4F81480B4F916108A420FDAC7
:1023200088420DDA8A1AA8EB0203E3814244A282B2
:10233000081A09EB0001A181A9EB000060823EE0D0
:102340008A421CDA88421ADD8D4206DD881AA8EB23
:102350000001E1814044A08231E0E688A4F80EA0AB
:102360004644A6821A4410444A00104127D0481B14
:102370000BEB00016181ABEB000020821FE08A4281
:102380001DDD88421BDAC5188D4207DD081A09EBEE
:102390000001A181A9EB0000608210E0E688A4F8AA
:1023A0000CC0A9EB060666821A4410444A0010418C
:1023B00005D0481BABEB0001618158442082E189C4
:1023C000208B01448EB26189084487B265E0A4F88D
:1023D0000A80A4F80C90A4F80EB0A4F81080A4F819
:1023E0001290A4F814B0B4F916108A420FDA884299
:1023F0000DDA8A1AA8EB0203638142442282081A8A
:1024000009EB0001A181A9EB000060823EE08A4255
:102410001CDA88421ADD8D4206DD881AA8EB00011D
:1024200061814044208231E0E688A4F80AA0464455
:1024300026821A4410444A00104127D0481B0BEB57
:102440000001E181ABEB0000A0821FE08A421DDDAC
:1024500088421BDAC5188D4207DD081A09EB000116
:10246000A181A9EB0000608210E0E688A4F80CC00E
:10247000A9EB060666821A4410444A00104105D0B2
:10248000481BABEB0001E1815844A0826189208B9D
:1024900001448EB2E189084487B2114D6189284612
:1024A00000F01EFCA189284600F026FCE1892846A0
:1024B00000F02EFC218A284600F00CFC618A284698
:1024C00000F014FCA18A284600F01CFC3146284686
:1024D00000F024FC39462846BDE8F05F00F021BC3E
:1024E000002C014000F0A4BE1FB500200290019016
:1024F0000090364C206840F4803020604FF400514A
:102500002068C0F3404001900098401C00909DF866
:10251000040010B900988842F2D12068C0F340400E
:1025200001909DF8040070B12948016821F007016D
:10253000016028490968C9B2122908D8016841F028
:102540000301016007E02549234808601FBD0168B9
:1025500041F00301016060686060606840F4005011
:102560006060606840F4A0606060FFF769FA6068CE
:102570001B4908406060206C20F001002064606806
:102580000390039840F480300390039840F40030A7
:1025900003901449039808430390039860600298DD
:1025A0002064206840F08070206020688001FCD5A5
:1025B000606820F003006060606840F002006060C6
:1025C0006068C0F381000228FAD11FBD00100240EC
:1025D00000200240002004E000127A005800002091
:1025E000FFFFC0F700003C0810B5FFF79DFB72B677
:1025F000FEF7D2FC012000F083F800F0FBF900F0B8
:1026000063F9FEF77DF962B60020FDF78DFDBDE8A8
:102610001040FEF71DBF000010B51E48016841F4D0
:10262000700101601C48016841F0010101604168CE
:102630001A4A114041600168194A1140016001685D
:1026400021F4802101604168164A114041604FF435
:102650006051C162016C41F0010101641249816065
:10266000C16941F08051C161C16921F08051C161EE
:102670000E48016841F080010160016821F01001FD
:102680000160FFF731FF03494FF0006080390860B7
:1026900010BD000088ED00E0001002400CC07FF883
:1026A000FFFFF6FEFFFFC0F700009F04002002407E
:1026B00010B5094C8021204600F0BAFB002809D053
:1026C0008021204600F0A9FB2046BDE81040802173
:1026D00000F0ABBB10BD0000002C014010B5074C52
:1026E0001021204600F027FB002805D02046BDE839
:1026F0001040102100F099BB10BD0000002C0140DB
:10270000F0B58DB007465C484FF4FA315B4D006878
:10271000B0FBF1F0A8805A4E304600F0EFFC09A85B
:1027200000F076FA0320ADF824004020ADF8260032
:10273000A888ADF828007015ADF82A0000248DF89F
:102740002C4009A9304600F0F9F97020ADF81400CA
:10275000ADF81640ADF81840A8884008ADF81A004A
:10276000ADF81C40ADF81E40ADF82040ADF8224059
:10277000012F76D02C700220ADF81C000820ADF897
:102780001E004101ADF82010ADF8221005A9304619
:1027900000F072FB05A9304600F0BAFB05A93046EF
:1027A00000F00CFCA8884108304600F093FAA88895
:1027B0004108304600F09AFAA8884108304600F0F7
:1027C000A1FA1E21304600F0A9FA4FF416713046E6
:1027D00000F0A7FA0821304600F094FB08213046AB
:1027E00000F0E2FB0821304600F032FC08213046C0
:1027F00000F035FC0821304600F03FFC304600F088
:102800002CFB304600F02EFB4FF08071304600F07C
:1028100055FC0021304600F054F9304600F04AF9EA
:102820004FF40060ADF800004010ADF80200ADF8C4
:1028300004401C20ADF806004FF48050ADF80800AD
:102840004000ADF80A00ADF80C408DF80E40694626
:10285000304600F0ECF9304600F009FB0DB0F0BD59
:10286000FFE701202870ADF81C40ADF81E40ADF820
:102870002040ADF8224089E7580000206000002089
:10288000002C014010B5074C0121204600F053FAFE
:10289000002805D02046BDE81040012100F0C5BA4F
:1028A00010BD0000002C014010B501218C0720460E
:1028B00000F041FA002805D02046BDE81040012173
:1028C00000F0B3BA10BD0000F0B59FB019A8FEF734
:1028D0003DFC4020199000241A9402251D950320E8
:1028E0001E9019A93548FEF7F0FB01A8FFF7B2F9D1
:1028F000DDE90201884202D90398400000E0039814
:102900004FF47A71B0FBF1F02D4E70802D4F3846A8
:10291000FEF72AF907A8FEF77BF92B4807902B480A
:10292000089009940A950B9480200C9085000D95D1
:1029300000010E900F9440001090119407A93846A2
:10294000FEF7ADF822213846FEF797F83846FEF735
:102950008FF812A800F05CF97088401EADF84C00AA
:1029600042F20F70ADF84800ADF84E40ADF84A4065
:10297000154E12A9343E304600F0E0F801213046F1
:1029800000F042F916A800F041FAADF85840ADF851
:102990005A400121ADF85C10ADF85E40ADF86040E2
:1029A00016A9304600F001FA304600F060FA2946D8
:1029B000304600F0BCF91FB0F0BD00000038024006
:1029C000600000201C000240340800402802002063
:1029D00010B5074C0121204600F02AFA002805D046
:1029E0002046BDE81040012100F01FBA10BD0000D4
:1029F0000008004030B58BB005A8FFF72BF9DDE9E2
:102A00000601884202D90798440000E0079C01A80B
:102A100000F0FEF81648B4FBF0F0401EADF80800D8
:102A20006320ADF804000024ADF80A40ADF806407C
:102A3000104D01A9284600F081F80121284600F038
:102A4000E3F80121284600F0ECF930218DF8001060
:102A50008DF8014001218DF802108DF803106846B1
:102A6000FEF772FF284600F002FA0BB030BD0000FE
:102A7000A08601000010004010B50A4C012120463C
:102A800000F0D6F900280CD00121204600F0CDF945
:102A9000054800F06BFBBDE8104004490448FFF70F
:102AA00085B910BD0010004048010020BC01002085
:102AB00052000020016841F4802101607047818547
:102AC0007047026822F440120A43026070470029EE
:102AD00004D0016841F4006101607047016821F48D
:102AE000006101607047002904D0016841F4805101
:102AF00001607047016821F480510160704700292E
:102B000004D0016841F4005101607047016821F46C
:102B1000005101607047002904D0016841F48041F0
:102B200001607047016821F48041016070470268CC
:102B300022F070020A4302607047000070B503463D
:102B40000C46254DAB4207D061881846FFF7EFFFD2
:102B5000E188184600F0B6F8A1881846FFF7AFFFE5
:102B60002188184600F04EF81C4A1D4E934201D0B1
:102B7000B34203D1217A184600F048F801211846E3
:102B800000F042F8AB4203D0617A1846FFF79FFF8E
:102B90004FF08045934209D0B34207D0AB4205D0F5
:102BA0001048834202D01048834203D1617B18460B
:102BB00000F01CF8AB420DD1A17A1846FFF793FF45
:102BC000E17A1846FFF79BFF217BBDE8704018466D
:102BD000FFF7A1BF70BD000000100040002C0140B5
:102BE000003401400004004000080040002904D0E7
:102BF000016841F4004101607047016821F400411F
:102C00000160704701857047818270470186704777
:102C10004FF6FF71818000210180C18041800172E7
:102C200041728172C172017341738173704710B533
:102C300004460A461188508893880143D08803438C
:102C40001089194301435089014390890143A4F835
:102C50004410907B002804D00021204600F072F838
:102C600003E00121204600F06DF8D07B18B120462A
:102C700000F0EEF802E0204600F0E5F8107C20B10C
:102C80002046BDE8104000F034BA2046BDE81040B0
:102C900000F02ABA026A01238B409A43026270470D
:102CA000026A01238B401A4302627047026A0423BE
:102CB0008B409A4302627047026A04238B401A4396
:102CC00002627047026822F44072026002680A439E
:102CD00002607047426B92B242EA01414163704721
:102CE000426B6FF30F020A4342637047826B92B2EA
:102CF00042EA014181637047826B6FF30F020A431E
:102D000082637047C26B92B242EA0141C16370476D
:102D1000C26B6FF30F020A43C2637047A0F86010E2
:102D20007047A0F864107047A0F868107047828957
:102D30000A43828170470069084201D00120704730
:102D400000207047002904D0016841F480610160CF
:102D50007047016821F4806101607047028B22F0A6
:102D60000C020283028B0A4302837047028B22F417
:102D700040620283028B4FF6FF7303EA01210A438C
:102D800002837047C2694FF6F3731A40C261C26989
:102D90000A43C2617047C2694FF2FF331A40C261F1
:102DA000C26942EA0121C161704770B506460C460E
:102DB00025886188A2882389002D0CD0042D13D08A
:102DC000082D1AD03046FEF70FFDE1883046BDE8E9
:102DD0007040FFF7E0BF3046FEF754FCE188304614
:102DE000BDE87040FFF7BABF3046FEF785FCE188CA
:102DF0003046BDE87040FFF7B9BF3046FEF7B8FC7B
:102E0000E1883046BDE87040FFF7BCBF002141803B
:102E100001228280C1800181704782898A43828138
:102E2000704782890A4382817047C94301617047B4
:102E300002690A4080890840002A02D008B10120B6
:102E4000704700207047016821F4803101607047AD
:102E5000016841F4803101607047416841F400210C
:102E600041607047416841F400114160704701685A
:102E700041F0010101607047F0B505460C460021A4
:102E80002846FFF707FF6E68288B20F0700020F0BF
:102E900003002788074321890022284600F004F90F
:102EA000608820B100212846FFF7FAFE03E00021E8
:102EB0002846FFF7EFFE1148854202D010488542B0
:102EC00017D161890022284600F0E5F8A08820B1DA
:102ED00000212846FFF7F0FE03E000212846FFF717
:102EE000E5FE26F4807020F40070A1890143E68994
:102EF0000E436E602F83E0886863F0BD002C0140B4
:102F000000340140028B22F008020A43028370471A
:102F1000F0B505460C4604212846FFF7BBFE6E6857
:102F2000288B20F4E04020F4407021884FF6FF7297
:102F300002EA0127074321890422284600F0B4F859
:102F4000608820B104212846FFF7AAFE03E004218F
:102F50002846FFF79FFE1248854202D0114885425D
:102F600019D161890422284600F095F8A08820B183
:102F700004212846FFF7A0FE03E004212846FFF7BE
:102F800095FE26F4806020F40060A18940EA81006B
:102F9000E18940EA81066E602F83E088A863F0BD76
:102FA000002C014000340140028B22F400624FF6F5
:102FB000FF7303EA0121114301837047F0B5054611
:102FC0000C4608212846FFF765FE6E68E86980B266
:102FD00020F0700020F00300278807432189082291
:102FE000284600F061F8608820B108212846FFF7E4
:102FF00057FE03E008212846FFF74CFE12488542A1
:1030000002D01248854219D161890822284600F071
:1030100042F8A08820B108212846FFF74DFE03E0C2
:1030200008212846FFF742FE26F4805020F4005085
:10303000A18940EA0110E18940EA01166E60EF6162
:10304000E088E863F0BD0000002C0140003401403E
:10305000C26992B222F008020A43C261704708298D
:1030600006D0002903D1C16921F48031C1617047C4
:10307000C16941F48031C1617047082906D0002937
:1030800003D1C16921F40011C1617047C16941F4E4
:103090000011C161704710B5036A08249440A3432E
:1030A00091401943016210BD10B5036A0224944097
:1030B000A34391401943016210BD00004268034BD5
:1030C0001A40426042680A43426070478FFFFFFE29
:1030D00030F8441FC1F30E010180704730F8441FDF
:1030E00041F4004101807047016821F40031016022
:1030F0007047016841F4003101607047154988420A
:1031000002D1C014FEF79CBDB0F1804F05D012492A
:10311000884205D10220FEF781BD0120FEF77EBD69
:103120000E49884202D10420FEF778BD0C4988423E
:1031300002D10820FEF772BD0A49884202D1102050
:10314000FEF76CBD0849884202D14014FEF778BDF5
:1031500070470000002C01400004004000080040BF
:10316000000C0040001000400034014000B5034650
:1031700003F10C0000F048F803F1180000F044F8E7
:1031800003F1240000F040F803F1300000F03CF8B7
:1031900003F13C0000F038F803F148005DF804EB5F
:1031A00000F032B800210160416041720172704745
:1031B00000220260416001214172027270470000EA
:1031C00000B51048FFF7EEFF0E480C30FFF7EAFF9E
:1031D0000C481830FFF7E6FF0A482430FFF7E2FFFB
:1031E00008483030FFF7DEFF064828210C38018000
:1031F000142141808180C821C1804FF47A6101810E
:1032000000BD000054010020417A01290CD1017A4F
:10321000002909D1D0E90012914205D2491C016070
:10322000914201D1012101727047007A704700007C
:1032300003480168002902D00168491E01607047F7
:103240005C000020FEE702E008C8121F08C1002A47
:10325000FAD170477047002001E001C1121F002A17
:10326000FBD17047F8B50446002000908809144946
:10327000096831F81050134931F81060208810FBAC
:1032800005F0618840F3CF3011FB06F141F3CF31F7
:10329000401A1021FDF7C9FCADF80000608810FB52
:1032A00005F0218840F3CF3011FB06F1C91300FA75
:1032B00081F01021FDF7B9FCADF802000098F8BDCF
:1032C0004C000020EC320008FFF78EF9FDF72CFDD2
:1032D000FFF776FF02490348FEF7C6FAFAE7000057
:1032E0004801002052000020FEF794B90000C900F8
:1032F00092015B022403ED03B6047F054806110723
:10330000D907A2086B09330AFB0AC40B8C0C540DB5
:103310001C0EE40EAB0F73103A110112C8128F137A
:1033200055141C15E215A8166E173318F918BE1996
:10333000831A471B0C1CD01C931D571E1A1FDD1F20
:103340009F2062212422E522A72367242825E8253F
:10335000A82668272728E528A429622A1F2BDC2B0A
:10336000992C552D112ECC2E872F4230FC30B531A3
:103370006E322733DF3397344E350436BA36703722
:103380002538D9388D39403AF33AA53B573C083DAA
:10339000B83D683E173FC63F74402141CE417A4256
:1033A0002643D1437B442445CD4575461D47C4473C
:1033B0006A480F49B449584AFB4A9E4B404CE14C7D
:1033C000814D214EC04E5E4FFB4F98503451CF512E
:1033D000695203539B533354CA546055F6558A5669
:1033E0001E57B1574358D4586459F459825A105B48
:1033F0009D5B295CB45C3E5DC85D505ED75E5E5FE0
:10340000E45F6860EC606F61F1617262F262716347
:10341000EF636C64E9646465DE655766D066476790
:10342000BD673268A7681A698C69FD696E6ADD6AD2
:103430004B6BB86B246C8F6CF96C626DCA6D316E1E
:10344000976EFB6E5F6FC26F23708370E370417184
:103450009E71FA715572AF7208735F73B6730B7415
:103460006074B37405755675A675F47542768E76DC
:10347000D97623776C77B477FB7740788578C878EE
:103480000A794A798A79C979067A427A7D7AB77A4D
:10349000EF7A277B5D7B927BC67BF97B2A7C5A7C0B
:1034A000897CB77CE47C0F7D3A7D637D8A7DB17D2C
:1034B000D67DFB7D1E7E3F7E607E7F7E9D7EBA7EBA
:1034C000D67EF07E0A7F227F387F4E7F627F757FB7
:1034D000877F987FA77FB57FC27FCE7FD97FE27F2E
:1034E000EA7FF17FF67FFA7FFE7FFF7FFF7FFF7F1E
:1034F000FE7FFA7FF67FF17FEA7FE27FD97FCE7F82
:10350000C27FB57FA77F987F877F757F627F4E7F61
:10351000387F227F0A7FF07ED67EBA7E9D7E7F7EB8
:10352000607E3F7E1E7EFB7DD67DB17D8A7D637D84
:103530003A7D0F7DE47CB77C897C5A7C2A7CF97BC0
:10354000C67B927B5D7B277BEF7AB77A7D7A427A66
:10355000067AC9798A794A790A79C878857840786B
:10356000FB77B4776C772377D9768E764276F475CD
:10357000A67556750575B37460740B74B6735F7376
:103580000873AF725572FA719E714171E370837066
:103590002370C26F5F6FFB6E976E316ECA6D626D86
:1035A000F96C8F6C246CB86B4B6BDD6A6E6AFD69CD
:1035B0008C691A69A7683268BD674767D066576625
:1035C000DE656465E9646C64EF637163F262726284
:1035D000F1616F61EC606860E45F5E5FD75E505ED2
:1035E000C85D3E5DB45C295C9D5B105B825AF459FA
:1035F0006459D4584358B1571E578A56F6556055EA
:10360000CA5433549B5303536952CF513451985089
:10361000FB4F5E4FC04E214E814DE14C404C9E4BC6
:10362000FB4A584AB4490F496A48C4471D47754682
:10363000CD4524457B44D14326437A42CE412141A6
:103640007440C63F173F683EB83D083D573CA53B18
:10365000F33A403A8D39D93825387037BA360436BE
:103660004E359734DF3327336E32B531FC3042307C
:10367000872FCC2E112E552D992CDC2B1F2B622A37
:10368000A429E52827286827A826E82528256724CF
:10369000A723E522242262219F20DD1F1A1F571E27
:1036A000931DD01C0C1C471B831ABE19F918331824
:1036B0006E17A816E2151C1555148F13C8120112A7
:1036C0003A117310AB0FE40E1C0E540D8C0CC40B8E
:1036D000FB0A330A6B09A208D907110748067F05C0
:1036E000B604ED0324035B029201C900000038FF19
:1036F0006FFEA6FDDDFC14FC4BFB82FAB9F9F0F875
:1037000028F85FF796F6CEF506F53DF475F3ADF2C1
:10371000E5F11DF156F08EEFC7EE00EE39ED72ECDB
:10372000ACEBE5EA1FEA59E993E8CEE708E743E6A0
:103730007EE5BAE4F5E331E36EE2AAE1E7E024E0F6
:1037400062DF9FDEDDDD1CDD5ADC9ADBD9DA19DAB7
:1037500059D999D8DAD71CD75DD69FD5E2D425D4CC
:1037600068D3ACD2F0D135D17AD0BFCF05CF4CCE13
:1037700093CDDACC22CC6ACBB3CAFDC947C991C874
:10378000DCC728C774C6C1C50EC55CC4AAC3F9C2CC
:1037900049C299C1EAC03BC08DBFE0BE33BE87BD00
:1037A000DBBC30BC86BBDDBA34BA8CB9E4B83DB8FA
:1037B00097B7F2B64DB6A9B506B563B4C1B320B399
:1037C00080B2E0B141B1A3B006B069AFCDAE32AEC8
:1037D00098ADFEAC66ACCEAB37ABA1AA0BAA77A96D
:1037E000E3A850A8BEA72DA79DA60DA67FA5F1A46E
:1037F00064A4D8A34DA3C3A239A2B1A12AA1A3A0B6
:103800001DA0999F159F929E109E8F9D0F9D909C2D
:10381000129C959B189B9D9A239AAA993199BA98C4
:103820004498CF975A97E796759604969395249562
:10383000B6944994DD93729308939F923792D091F6
:103840006A910691A2903F90DE8F7E8F1E8FC08E70
:10385000638E078EAC8D528DF98CA28C4B8CF68BBF
:10386000A18B4E8BFC8AAB8A5B8A0D8ABF897389D8
:103870002889DE8895884D880688C1877C873987A6
:10388000F786B78677863886FB85BF8584854A8527
:103890001285DA84A4846F843B840884D783A78349
:1038A00078834A831D83F282C7829E827782508208
:1038B0002B820682E381C281A1818281648147815A
:1038C0002B811181F780DF80C980B3809F808C803D
:1038D0007A8069805A804C803F80338028801F80A6
:1038E000178010800B800780038002800180028097
:1038F000038007800B80108017801F802880338012
:103900003F804C805A8069807A808C809F80B38011
:10391000C980DF80F78011812B814781648182819A
:10392000A181C281E38106822B82508277829E82AE
:10393000C782F2821D834A837883A783D783088452
:103940003B846F84A484DA8412854A858485BF858C
:10395000FB8538867786B786F78639877C87C18767
:1039600006884D889588DE8828897389BF890D8AE5
:103970005B8AAB8AFC8A4E8BA18BF68B4B8CA28C1C
:10398000F98C528DAC8D078E638EC08E1E8F7E8F0C
:10399000DE8F3F90A29006916A91D09137929F92CC
:1039A00008937293DD934994B69424959395049665
:1039B0007596E7965A97CF974498BA983199AA99ED
:1039C000239A9D9A189B959B129C909C0F9D8F9D6E
:1039D000109E929E159F999F1DA0A3A02AA1B1A100
:1039E00039A2C3A24DA3D8A364A4F1A47FA50DA6B8
:1039F0009DA62DA7BEA750A8E3A877A90BAAA1AAA8
:103A000037ABCEAB66ACFEAC98AD32AECDAE69AFE7
:103A100006B0A3B041B1E0B180B220B3C1B363B48A
:103A200006B5A9B54DB6F2B697B73DB8E4B88CB9AE
:103A300034BADDBA86BB30BCDBBC87BD33BEE0BE6A
:103A40008DBF3BC0EAC099C149C2F9C2AAC35CC4D8
:103A50000EC5C1C574C628C7DCC791C847C9FDC912
:103A6000B3CA6ACB22CCDACC93CD4CCE05CFBFCF34
:103A70007AD035D1F0D1ACD268D325D4E2D49FD559
:103A80005DD61CD7DAD799D859D919DAD9DA9ADBA1
:103A90005ADC1CDDDDDD9FDE62DF24E0E7E0AAE129
:103AA0006EE231E3F5E3BAE47EE543E608E7CEE70C
:103AB00093E859E91FEAE5EAACEB72EC39ED00EE68
:103AC000C7EE8EEF56F01DF1E5F1ADF275F33DF462
:103AD00006F5CEF596F65FF728F8F0F8B9F982FA10
:103AE0004BFB14FCDDFCA6FD6FFE38FF0000C90097
:103AF00092015B022403ED03B6047F05480611071B
:103B0000D907A2086B09330AFB0AC40B8C0C540DAD
:103B10001C0EE40EAB0F73103A110112C8128F1372
:103B200055141C15E215A8166E173318F918BE198E
:103B3000831A471B0C1CD01C931D571E1A1FDD1F18
:103B40009F2062212422E522A72367242825E82537
:103B5000A82668272728E528A429622A1F2BDC2B02
:103B6000992C552D112ECC2E872F4230FC30B5319B
:103B70006E322733DF3397344E350436BA3670371A
:103B80002538D9388D39403AF33AA53B573C083DA2
:103B9000B83D683E173FC63F74402141CE417A424E
:103BA0002643D1437B442445CD4575461D47C44734
:103BB0006A480F49B449584AFB4A9E4B404CE14C75
:103BC000814D214EC04E5E4FFB4F98503451CF5126
:103BD000695203539B533354CA546055F6558A5661
:103BE0001E57B1574358D4586459F459825A105B40
:103BF0009D5B295CB45C3E5DC85D505ED75E5E5FD8
:103C0000E45F6860EC606F61F1617262F26271633F
:103C1000EF636C64E9646465DE655766D066476788
:103C2000BD673268A7681A698C69FD696E6ADD6ACA
:103C30004B6BB86B246C8F6CF96C626DCA6D316E16
:103C4000976EFB6E5F6FC26F23708370E37041717C
:103C50009E71FA715572AF7208735F73B6730B740D
:103C60006074B37405755675A675F47542768E76D4
:103C7000D97623776C77B477FB7740788578C878E6
:103C80000A794A798A79C979067A427A7D7AB77A45
:103C9000EF7A277B5D7B927BC67BF97B2A7C5A7C03
:103CA000897CB77CE47C0F7D3A7D637D8A7DB17D24
:103CB000D67DFB7D1E7E3F7E607E7F7E9D7EBA7EB2
:103CC000D67EF07E0A7F227F387F4E7F627F757FAF
:103CD000877F987FA77FB57FC27FCE7FD97FE27F26
:103CE000EA7FF17FF67FFA7FFE7FFF7F0000000012
:103CF0000102030401020304060708090102040685
:103D0000080A0C1020202020202020200100020082
:103D10000400060008000A000C001000200040000B
:103D20008000000100010001000100014C3D00087D
:103D3000000000208C00000046320008D83D00083A
:103D40008C000020AC150000563200080000000076
:103D5000000000000AD7A33D6F1283396F12833928
:103D60006F128339050000000000104200008041FE
:103D70000000FA43CF39B640AE0E123C2148A63FB0
:103D800036CCD8392148A641000080417017000088
:103D90007C59444536CCD83BEC3400080000000088
:103DA000000000000020A10700000000000000004B
:103DB0000000000000000000000000000000000003
:103DC00000000000000000000040060000000000AD
:083DD0000000000000000000EB
:0400000508000115D9
:00000001FF
