:020000040800F2
:1000000078140020B1020008EF120008EB0B000882
:10001000ED12000827080008052300080000000072
:1000200000000000000000000000000009160008A9
:10003000E709000800000000C70200080B160008CE
:10004000CB020008CB020008CB020008CB0200085C
:10005000CB020008CB020008CB020008CB0200084C
:10006000CB020008CB020008CB020008CB0200083C
:10007000CB020008CB020008CB020008CB0200082C
:10008000CB020008CB020008CB02000801050008E3
:10009000CB020008CB020008CB020008D9170008E9
:1000A000CB020008CB0200080518000891190008CF
:1000B000CB020008B91A0008690C0008ED0B000813
:1000C000CB020008CB020008CB020008CB020008DC
:1000D000CB020008CB020008CB020008CB020008CC
:1000E000CB020008CB020008CB020008CB020008BC
:1000F000CB020008CB020008CB020008CB020008AC
:10010000611B0008CB020008CB020008CB020008EC
:10011000CB020008DFF80CD000F0DCF80048004704
:10012000252300087814002070B502465E4D2C6827
:100130005E4940F255530978002900D11C435A48C2
:100140002038072A7FD2DFE802F00408173656630A
:100150007100BDE8704002F07DB81C432C60802126
:10016000044601F0E4FE8021204601F0DCFE20463A
:10017000BDE8704002F074B881B124F0040121F0B0
:10018000400121F4806141F0010141F0100141F48E
:1001900080712960BDE8704002F062B824F001016E
:1001A00021F0100121F4807141F0040141F040017F
:1001B00041F48061EDE7012910D024F0040121F021
:1001C000400121F4806141F0010141F0100141F44E
:1001D00080712960BDE8704002F042B824F001014E
:1001E00021F0100121F4807141F0040141F040013F
:1001F00041F48061EDE741B144F0020141F00401B6
:100200002960BDE8704002F02BB824F00201F5E748
:1002100041B144F0200141F040012960BDE8704047
:1002200002F01EB824F02001F5E70CE041B144F4DF
:10023000007141F480612960BDE8704002F010B89F
:1002400024F40071F5E702F005F82C6070BD2DE98B
:10025000F04107460E461546134C3946203C2046D1
:1002600001F0BAFD3146204601F0C2FD2946204684
:1002700001F0CAFD3946204601F0D2FD3146204644
:1002800001F0D1FD2946204601F0D0FD3946204637
:1002900001F09CFD3146204601F0A4FD2946204690
:1002A000BDE8F04101F0AABD202C01400E00002065
:1002B0000648804706480047FEE7FEE7FEE7FEE700
:1002C000FEE7FEE7FEE7FEE7FEE7FEE74117000870
:1002D00015010008064C074D06E0E06840F00103F8
:1002E00094E8070098471034AC42F6D3FFF716FFA6
:1002F00070230008902300080248016821F01001D3
:1003000001607047580802400D490D4A4C390128D8
:1003100002D0022808D005E0106818B9086840F03B
:1003200004000860002070470868400705D5106881
:1003300008B100207047012070470020704700007E
:100340005408024010B5072309280BD8124A146834
:1003500000EB400083409C431460136881400B43D2
:10036000136010BD11280DD80A380B4A121F1468EB
:1003700000EB400083409C431460136881400B43B2
:10038000136010BD04484C30026822F0070202607E
:1003900002680A43026010BD1008024070B50446AE
:1003A0000D4601F02FF834B1284601F03BF8BDE8C6
:1003B000704000F061B901F02DF8284601F018F8FE
:1003C000BDE87040FFF798BF0248016821F00201C4
:1003D00001607047080802400248016841F00201CC
:1003E00001607047080802400248016821F48071EA
:1003F000016070470808024004490A6822F400625C
:100400000A600A6802430A60704700000808024058
:100410001049B0F5006F12D040F6010212180AD050
:10042000B0F5805F10D06FF48052904202D10A681C
:1004300002400A6070470A6802400A607047086814
:1004400040F4006008607047086840F4805008601D
:1004500070470000040802401049B0F5801F12D018
:1004600000F58012521C0AD0B0F5004F10D06FF486
:100470000042904202D10A6802400A6070470A684E
:1004800002400A607047086840F4801008607047B6
:10049000086840F400400860704700000808024007
:1004A00002490A6882430A6070470000000802405F
:1004B000012805D00848006810420AD00120704782
:1004C000054858380068084201D0012070470020D4
:1004D00070470020704700005808024002490A682F
:1004E00082430A607047000000080240034909681F
:1004F000014201D0012070470020704700080240EF
:1005000010B52020FFF7F2FF012808D00120FFF7E7
:10051000EDFF012822D1BDE81040FFF7DFBF104CEE
:100520002078032815D8142101EB8000C0B200F018
:1005300053F82178A21C22F81100491CC8B220707F
:10054000042806D102202070064891880182D188B3
:100550004182BDE810402020FFF7C0BF10BD000061
:10056000000000203800002000B50346187800285D
:1005700002D000F071F801E000F066F8587810B190
:10058000FFF72AFF01E0FFF71FFF0848016841F06D
:1005900028010160586800F0A9F89868FFF72CFF5F
:1005A000D8685DF804EB00F06FB800006008024006
:1005B00004490A6822F440120A600A6802430A6089
:1005C00070470000380802400248016821F4806149
:1005D000016070470408024008B504490844283007
:1005E00000900098006880B208BD0000000802403A
:1005F00004490A6822F4E0420A600A6802430A6079
:10060000704700000808024010B5064A136801EB65
:1006100081011F248C40A343136013688840034367
:10062000136010BD38080240802804D805490A68C4
:1006300002430A607047034954310A6802430A6062
:1006400070470000040802400248016821F48071EC
:1006500001607047040802400248016841F480715B
:1006600001607047040802400248016841F001013E
:1006700001607047080802400248016841F010011B
:10068000016070475808024004490A6822F4700269
:100690000A600A6802430A60704700002C080240A2
:1006A0000E49B0F5A00F0CD000F5A002521C04D0EA
:1006B000B0F5800F0AD0002070470A6802400A6037
:1006C000F9E7086840F4A0000860F4E7086810F44F
:1006D000800F01D0012070470020704708080240B9
:1006E0000148006880B270474C08024004490A681B
:1006F00022F460220A600A6802430A607047000020
:100700000808024010B51F2305290BD8144A1468A5
:1007100001EB81018B409C431460136888400343C4
:10072000136010BD0B290DD80D4A121F1468891FC4
:1007300001EB81018B409C431460136888400343A4
:10074000136010BD064A083A14680C3901EB8101A8
:100750008B409C431460136888400343136010BDB2
:10076000340802404FF4805000F06EBE70B586B081
:10077000FFF7F8FF01258DF8085000248DF8094097
:100780004FF4602003900494059402A8FFF7ECFE58
:1007900000210B20FFF7B6FF02210B20FFF7D2FD4F
:1007A0002E053046FFF704FF02210820FFF7CAFD9F
:1007B00003210820FFF728FF02210820FFF724FF6C
:1007C0000020FFF715FFFFF7FFFE2803FFF720FECD
:1007D000FFF74AFF202240210220FFF769FE002890
:1007E000F8D00120FFF790FD0220FFF78DFD0028D3
:1007F000FAD113208DF804008DF805408DF80640DD
:100800008DF8075001A800F073FD8020FFF70CFF62
:10081000FFF7EAFD3046FFF71FFE4FF40040FFF7F9
:100820001BFE06B070BDFEE741607047016841F0F5
:1008300001010160704701617047026822F02002E7
:10084000026002680A4302607047026822F01002E8
:10085000026002680A430260704710B504460B4606
:100860002046196800F04CF82046596800F036F828
:1008700020469968FFF7E9FF2046D968FFF7D4FFC3
:100880002046196900F034F82046596900F01EF836
:100890002046996900F036F82046D96900F020F822
:1008A0002046196AFFF7C9FF2046596A00F032F85E
:1008B0002046996ABDE81040AFF30080026822F438
:1008C0008042026002680A4302607047026822F0B8
:1008D0008002026002680A4302607047C16070478C
:1008E000026822F44062026002680A4302607047B4
:1008F000026822F04002026002680A430260704708
:1009000081607047026822F44072026002680A4304
:1009100002607047026822F44052026002680A4393
:1009200002607047016821F001010160002101604F
:1009300041608160C1602449234A0839904204D152
:10094000486840F00F00486070471F4A14329042D8
:1009500004D1486840F0F000486070471A4A2832D5
:10096000904204D1486840F4706048607047164A6D
:100970003C32904204D1486840F47040486070476F
:10098000114A5032904204D1486840F470204860C7
:1009900070470D4A6432904204D1486840F47000B8
:1009A00048607047084A7832904204D1486840F065
:1009B000706048607047044A8C329042FAD14868AF
:1009C00040F070404860704708000240002101601C
:1009D00041608160C160016141618161C161016209
:1009E000416281627047704703E00921491E4A1C39
:1009F000FCD1401E411CF8D1704710B514074FEAD6
:100A000042724FEAD2624FF00F0303FA02F301FA87
:100A100002F104D5426A9A431143416210BD026A51
:100A20009A431143016210BD2DE9F04186B068463A
:100A300000F0D0F802250495012401944020009094
:100A40002F4F6946384600F088F820200090019426
:100A5000DFF8B0806946404600F07FF82003009040
:100A600001946946384600F078F80826009601940B
:100A70006946404600F071F830200090039412203F
:100A80000190059602946946384600F066F868467B
:100A900000F0A0F804950195032405944FF4E0605C
:100AA00000906946384600F058F805944FF46040CD
:100AB00000906946404600F050F8002001900295F1
:100AC00009200590A80200906946384600F045F8D4
:100AD000684600F07FF8019480200090694638460F
:100AE00000F03BF8684600F075F80194042000908F
:100AF0006946404600F031F806B0BDE8F0810000DC
:100B0000003402400038024010B5C36A520003248A
:100B10009440A34391401943C16210BD70B505686C
:100B200001F00304530003269E40B5439C402C4330
:100B30000460012905D0112903D0022901D012290E
:100B400008D1436801249440A343C1F300119140AC
:100B50001943416070BD8162704770B506460C460E
:100B600000251DE00120A8400140C1B12A463046C1
:100B70006169FFF742FF2A4630466168FFF7CEFF02
:100B80002A463046A16800F012F82A463046E1684D
:100B900000F017F82A4630462169FFF7B5FF6D1CB3
:100BA000216831FA05F0DDD170BD8161704710B563
:100BB000C368520003249440A34391401943C16089
:100BC00010BD10B5836801249440A343914019439C
:100BD000816010BD4FF6FF7101600021C16041606E
:100BE0000F224261816001617047FEE72DE9F0410B
:100BF000DFF86480194F4146384600F0A8F9174ED7
:100C0000174C1836032580B1207818B1384600F00B
:100C1000B7F906E03088C00703D0384600F0B5F9D0
:100C200065714146384600F08FF9DFF83880384664
:100C3000414600F08CF900280CD03088C00703D062
:100C4000384600F0A2F9657141463846BDE8F041EA
:100C500000F07AB9BDE8F0810004001000540040B3
:100C600014000020000100102DE9F0414F4E3046E5
:100C700000F0AEF94E4A0027811A4E4C4FF4E0685E
:100C800090426FD015DC6FF44031401829D0012814
:100C900025D03F2823D1304600F018F9A26902F888
:100CA000010BA261208A401E81B22182012936D027
:100CB0003BE00125022942D0042910D1A078002868
:100CC0000DD1E089D0B3A089411CA18139491C31E3
:100CD000095C304600F0FDF8E089401EE081BDE887
:100CE000F081207808B902206071A078012806D030
:100CF000A17C3046BDE8F041002200F05DB860788C
:100D000030B1A17C0122304600F056F86770E6E76A
:100D1000A17C3046BDE8F041002200F04DB83046DD
:100D200000F053F8304600F030F9208A0028D6D180
:100D30004146304600F048F96771D0E71AE0207864
:100D400048B127704146304600F03EF9304600F089
:100D50001CF96771C3E7A179304600F0BAF86570F5
:100D6000BDE7FFE7A0780128B9D13046BDE8F041E2
:100D700000F006B9304600F008F94FF4C82161616F
:100D80004FF4003706E06269521E6261521C01D1C5
:100D900001F0CBFA3946304600F0D9F80028F2D1FC
:100DA00025703046BDE8F04100F0EAB8005400403C
:100DB0008000070014000020012A03D021F0010167
:100DC0000182704741F00101FAE7018821F4806156
:100DD00001807047028822F480620A4302807047D3
:100DE000028922F400420A4302817047028822F0FD
:100DF0000A020A430280704770B586B004460D4669
:100E00001646684600F056FBA08820F03F03029982
:100E10002B48B1FBF0F080B2202800D920200343FA
:100E2000A380228822F001022280226A22F03F035E
:100E3000244A95420BD86A00B1FBF2F189B2042929
:100E400000D20421401C00F03F0018432FE0B6F50B
:100E5000804F05D005EB4502B1FBF2F18AB208E004
:100E600005EBC50202EB0512B1FBF2F189B241F4C8
:100E70008042110501D142F0010242F40041124EBC
:100E80004FF47A72B54209D84FF496756843B0FBB7
:100E9000F2F0401C00F03F00184308E0C0EB0010E7
:100EA000C000B0FBF2F0401C00F03F00184320628D
:100EB000A183208840F00100208006B070BD0000B2
:100EC00040420F00A0860100801A0600008AC0B2CE
:100ED000704701827047000010B58AB0174C204659
:100EE00000F084F804A8FFF775FE30210491012179
:100EF00007911222059208220992069104A910482E
:100F0000FFF72BFE204600F071F80021ADF8041029
:100F10004BF6FF71ADF80610FF20ADF80800201564
:100F2000ADF80A000001ADF80C00064800906946D3
:100F3000204600F02FF80AB010BD00000054004019
:100F400000340240801A0600C943818270470CB504
:100F50000190080F009021F07F40009900290AD0ED
:100F600001991431019101990968014201D10020D0
:100F70000CBD01200CBD000C019918310191F2E764
:100F8000018841F4807101807047018841F400714B
:100F90000180704770B505460C462846E2882168F6
:100FA000FFF72AFFA1882846FFF720FF618928461E
:100FB000FFF710FFA1892846FFF712FF2189284675
:100FC000BDE8704000F00BB882888A438280704789
:100FD000818A008B0004014321F07F407047028921
:100FE0006FF309020A4302817047000005498842F5
:100FF00003D14FF4001000F041BA4FF4800000F02C
:101000003DBA00000054004010B50E49087903288D
:1010100017D2401C08714FF40014204600F02EFA3D
:10102000204600F01BFA08490A6822F470420A6060
:10103000204600F023FA00F009F8BDE81040FFF761
:101040004BBF10BD140000200038024030B587B0FF
:1010500001A8FFF7BFFD102001900020049001209F
:1010600002900D4D01A92846FFF777FD00241021BD
:101070002846FFF79AFD0520FFF7B6FC1021284609
:10108000FFF769FD0520FFF7AFFC641CE4B2092CF3
:10109000EDD307B030BD00000034024030B587B05A
:1010A00001A8FFF797FD30200190002004900290E6
:1010B00001A91348FFF751FD124C4FF4C82060619D
:1010C0000F4D10352868C0F30110032807D0606960
:1010D000401E6061401CF5D1FFF796FFF2E70A4819
:1010E000018841F40041018000BF00BF00BF00BF84
:1010F00000BF018821F40041018007B030BD00002D
:1011000000340240140000200054004070B5046A0E
:1011100024F001040462058B046A25F0F3054FF600
:10112000FF7606EA031313432B43104A90420ED076
:101130000F4A90420BD0B0F1804F08D00D4A904238
:1011400005D00D4A904202D00C4A904205D124F0BD
:1011500002020A4342F0010104E024F00A020A43B9
:1011600042F001010383016270BD0000002C0140C8
:10117000003401400004004000080040000C004022
:10118000F0B5046A24F010040462058B046A0E01B1
:1011900025F473454FF6FF7707EA03332B4307EA3D
:1011A00002221A430F4B98420ED00F4B98420BD09D
:1011B000B0F1804F08D00D4B984205D00C4B9842AF
:1011C00002D00C4B984205D124F02001314341F06C
:1011D000100104E024F0A0030B4343F0100102834C
:1011E0000162F0BD002C01400034014000040040C9
:1011F00000080040000C0040F0B5046A24F480743C
:101200000462C469A5B2046A0E0225F0F3054FF624
:10121000FF7707EA031313432B43104A90420ED083
:101220000F4A90420BD0B0F1804F08D00D4A904247
:1012300005D00D4A904202D00C4A904205D124F4C8
:101240000071314341F4807104E024F420620A43C8
:1012500042F48071C3610162F0BD0000002C0140C6
:10126000003401400004004000080040000C004031
:10127000F0B5046A24F480540462C469A5B2046A17
:101280000E0325F473454FF6FF7C0CEA02272F432B
:101290000CEA03323A43104B98420ED00F4B98425F
:1012A0000BD0B0F1804F08D00D4B984205D00D4BBC
:1012B000984202D00C4B984205D124F4005131439E
:1012C00041F4805104E024F400530B4343F4805173
:1012D000C2610162F0BD0000002C014000340140F9
:1012E0000004004000080040000C0040FEE770478A
:1012F00070B50F23C27801260178002A1ED0144A47
:10130000126802F4E062C2F5E062120AC2F104045B
:10131000D3404578A54082781A402A43120101F152
:10132000E02181F80024007800F01F018E40400980
:10133000800000F1E020C0F8006170BD01F01F00E6
:1013400086404809800000F1E020C0F8806170BD4F
:101350000CED00E0024908430249086070470000B4
:101360000000FA050CED00E038B5164D00200090A5
:10137000154C206820F080002060206840F040007C
:10138000206069461148A8470098C0B2052813D8C4
:1013900069460F48A8470098010E00F47F02120A20
:1013A00000F47F400002114301430091094A106894
:1013B00000F07F4008431060206840F0800020600B
:1013C00038BD0000A502FF1F0020024020F0FF1FD3
:1013D00030F2FF1F04180040044BDA6A22F48062E6
:1013E00022F4784202430A43DA6270470010024056
:1013F000034AD16A21F00F010143D1627047000016
:10140000001002400248016841F00101016070478C
:10141000801002400248C16A21F48071C1627047A5
:1014200000100240034AD16A21F4F8710143D162ED
:10143000704700000010024002494A6902434A61B5
:10144000704700000010024003498A6A02438A6222
:101450008A6A82438A627047001002400249CA6960
:101460008243CA6170470000001002400249CA6905
:101470000243CA61704700000010024003490A6934
:1014800002430A610A6982430A6170470010024000
:1014900002498A6902438A617047000000100240D5
:1014A0000349CA680243CA60CA688243CA60704777
:1014B0000010024030B52F4B59682F4A11405A682E
:1014C00002F480320C0103D4022404EB914103E0C6
:1014D0006FF4F77404EB91412AB15A6892030BD56B
:1014E000264A51430AE01A6CD20702D0234A5143DC
:1014F00004E0234A514301E0214A51435A6802F073
:101500000C021F4C7AB3042A30D0082A30D0046071
:101510005A68C2F303121B4CA55C0268EA404260A1
:101520005D68C5F30225655D22FA05F585605D6895
:10153000C5F3C225645D22FA04F4C460DC6A04F0D9
:101540000F04104D10352C5DB2FBF4F24261DA6AE3
:10155000120902F00F0205F1100333F81220B1FB5B
:10156000F2F1016130BDFFE70460D1E70460CFE72D
:101570000160CDE70010024000003C0800093D007A
:1015800000127A002E23000810B54FF48060FFF798
:10159000E1FE4FF4C06000F02DF84FF40060FFF75B
:1015A00077FF0120FFF762FF0420FFF75FFF1020A5
:1015B000FFF75CFF0120FFF73FFF4FF4C070FFF71C
:1015C0003BFF0120FFF764FF4FF48050FFF734FF2B
:1015D00002210020FEF7E2FE4FF460510020FFF7E9
:1015E000FBFEC020FFF742FFBDE810404FF40010A3
:1015F000FFF73CBF034A516821F4E06101435160A9
:101600007047000000100240704700F071BE0000FB
:101610001FB50020029001900090364C206840F4E5
:10162000803020604FF400512068C0F340400190AA
:101630000098401C00909DF8040010B90098884262
:10164000F2D12068C0F3404001909DF8040070B1D1
:101650002948016821F00701016028490968C9B2D9
:10166000122908D8016841F00301016007E025490B
:10167000234808601FBD016841F0030101606068F4
:101680006060606840F400506060606840F4A06092
:101690006060FFF769FE60681B4908406060206C6D
:1016A00020F00100206460680390039840F48030CB
:1016B0000390039840F400300390144903980843C2
:1016C00003900398606002982064206840F0807066
:1016D000206020688001FCD5606820F00300606015
:1016E000606840F0020060606068C0F3810002281A
:1016F000FAD11FBD0010024000200240002004E08B
:1017000000127A0004000020FFFFC0F700003C0830
:1017100010B5FFF739FF72B6FFF786F9012000F028
:1017200083F800F0DBF900F043F9FFF71FF862B629
:101730000120FEF7F9FCBDE81040FFF7CDBB00002B
:1017400010B51E48016841F4700101601C48016831
:1017500041F00101016041681A4A1140416001688D
:10176000194A11400160016821F48021016041683B
:10177000164A114041604FF46051C162016C41F062
:101780000101016412498160C16941F08051C16168
:10179000C16921F08051C1610E48016841F08001AA
:1017A0000160016821F010010160FFF731FF03497A
:1017B0004FF000608039086010BD000088ED00E047
:1017C000001002400CC07FF8FFFFF6FEFFFFC0F7DD
:1017D00000009F040020024010B5094C80212046E3
:1017E00000F0A8FB002809D08021204600F097FBDC
:1017F0002046BDE81040802100F099BB10BD0000DC
:10180000002C014010B5074C1021204600F015FBBC
:10181000002805D02046BDE81040102100F087BB0D
:1018200010BD0000002C0140F0B58DB007465548B2
:101830004BF680310068B0FBF1F085B2524E304675
:1018400000F01EFD09A800F05FFA0320ADF82400A7
:101850004020ADF82600ADF82850C000ADF82A00B1
:1018600000248DF82C4009A9304600F0E3F97020DF
:10187000ADF81400ADF81640ADF818406D08ADF89D
:101880001A50ADF81C40ADF81E40ADF82040ADF840
:1018900022403E48012F69D004700220ADF81C00A0
:1018A0000820ADF81E004001ADF82000ADF8220080
:1018B00005A9304600F05EFB05A9304600F0A6FB06
:1018C00005A9304600F0F8FB05A9304600F046FCBB
:1018D0002946304600F07AFA2946304600F082FA6E
:1018E0002946304600F08AFA2946304600F092FA3E
:1018F0000821304600F084FB0821304600F0D2FB7E
:101900000821304600F022FC0821304600F07AFC25
:10191000304600F024FB4FF08071304600F090FC20
:101920000021304600F049F9304600F03FF94FF40D
:101930000061ADF800104810ADF80200ADF80440A9
:101940003F20ADF806004800ADF808004000ADF8B3
:101950000A00ADF80C408DF80E406946304600F0A4
:10196000E2F9304600F000FB0DB0F0BD012101703E
:10197000ADF81C40ADF81E40ADF82040ADF8224057
:1019800096E7000004000020002C01400E0000201B
:1019900010B501218C07204600F04FFA002805D031
:1019A0002046BDE81040012100F0C1BA10BD000082
:1019B000F0B59FB019A8FFF70DF940201990002449
:1019C0001A9402251D9503201E9019A93548FFF78A
:1019D000C4F801A8FFF76EFDDDE90201884202D9D3
:1019E0000398400000E003984FF47A71B0FBF1F0E7
:1019F0002D4E70802D4F3846FEF794FF07A8FEF756
:101A0000E5FF2B4807902B48089009940A950B9402
:101A100080200C9085000D9500010E900F944000E1
:101A20001090119407A93846FEF717FF2221384677
:101A3000FEF701FF3846FEF7F9FE12A800F064F940
:101A40007088401EADF84C0042F20F70ADF84800AF
:101A5000ADF84E40ADF84A40154E12A9343E30461E
:101A600000F0E8F80121304600F04AF916A800F02D
:101A70004FFAADF85840ADF85A400121ADF85C106E
:101A8000ADF85E40ADF8604016A9304600F00FFAA0
:101A9000304600F069FA2946304600F0CAF91FB016
:101AA000F0BD0000003802400E0000201C00024083
:101AB000340800406C00002010B5074C012120467E
:101AC00000F038FA002805D02046BDE8104001217A
:101AD00000F02DBA10BD00000008004030B58BB0FA
:101AE00005A8FFF7E7FCDDE90601884202D907985F
:101AF000440000E0079C01A800F006F91648B4FB7A
:101B0000F0F0401EADF808006320ADF8040000249A
:101B1000ADF80A40ADF80640104D01A9284600F086
:101B200089F80121284600F0EBF80121284600F051
:101B3000FAF930218DF800108DF8014001218DF85F
:101B400002108DF803106846FFF7D2FB284600F01C
:101B50000BFA0BB030BD0000A08601000010004061
:101B600010B5104C0121204600F0E4F9002818D0EF
:101B70000121204600F0DBF94FF4A000FEF790FDB4
:101B8000202202210120FEF793FC0028F8D0022039
:101B9000FEF786FC1020FEF783FCFEF7A1FD02494C
:101BA000088010BD001000400C000020016841F4C6
:101BB00080210160704781857047026822F44012DD
:101BC0000A4302607047002904D0016841F40061B3
:101BD00001607047016821F40061016070470029CD
:101BE00004D0016841F4805101607047016821F41C
:101BF000805101607047002904D0016841F4005110
:101C000001607047016821F40051016070470029AC
:101C100004D0016841F4804101607047016821F4FB
:101C2000804101607047026822F070020A4302603E
:101C30007047000070B503460C46254DAB4207D0F7
:101C400061881846FFF7EFFFE188184600F0B6F804
:101C5000A1881846FFF7AFFF2188184600F04EF81C
:101C60001C4A1D4E934201D0B34203D1217A18463B
:101C700000F048F80121184600F042F8AB4203D0CA
:101C8000617A1846FFF79FFF4FF08045934209D0D5
:101C9000B34207D0AB4205D01048834202D010486F
:101CA000834203D1617B184600F01CF8AB420DD192
:101CB000A17A1846FFF793FFE17A1846FFF79BFFDA
:101CC000217BBDE870401846FFF7A1BF70BD000042
:101CD00000100040002C014000340140000400408E
:101CE00000080040002904D0016841F4004101606F
:101CF0007047016821F40041016070470185704719
:101D000081827047018670474FF6FF718180002104
:101D10000180C1804180017241728172C172017380
:101D200041738173704710B504460A461188508884
:101D300093880143D0880343108919430143508994
:101D4000014390890143A4F84410907B002804D0FB
:101D50000021204600F078F803E00121204600F041
:101D600073F8D07B18B1204600F0F4F802E020466A
:101D700000F0EBF8107C20B12046BDE8104000F0E8
:101D80007ABA2046BDE8104000F070BA026A01231A
:101D90008B409A4302627047026A01238B401A43C8
:101DA00002627047026A04238B409A4302627047C2
:101DB000026A04238B401A4302627047026822F4CD
:101DC0004072026002680A4302607047426B92B23E
:101DD00042EA014141637047426B6FF30F020A43CD
:101DE00042637047826B92B242EA0141816370475D
:101DF000826B6FF30F020A4382637047C26B92B229
:101E000042EA0141C1637047C26B6FF30F020A439C
:101E1000C2637047026C6FF30F020A43026470479B
:101E2000A0F860107047A0F864107047A0F8681020
:101E3000704782890A43828170470069084201D055
:101E40000120704700207047002904D0016841F448
:101E5000806101607047016821F480610160704712
:101E6000028B22F00C020283028B0A43028370472A
:101E7000028B22F440620283028B4FF6FF7303EA67
:101E800001210A4302837047C2694FF6F3731A4077
:101E9000C261C2690A43C2617047C2694FF2FF332F
:101EA0001A40C261C26942EA0121C161704770B53E
:101EB00006460C4625886188A2882389002D0CD00F
:101EC000042D13D0082D1AD03046FFF7D1F9E18840
:101ED0003046BDE87040FFF7E0BF3046FFF716F927
:101EE000E1883046BDE87040FFF7BABF3046FFF7E3
:101EF00047F9E1883046BDE87040FFF7B9BF30468A
:101F0000FFF77AF9E1883046BDE87040FFF7BCBFC3
:101F10000021418001228280C18001817047828935
:101F20008A438281704782890A4382817047C9430C
:101F30000161704702690A4080890840002A02D086
:101F400008B10120704700207047016821F48031FA
:101F500001607047016841F4803101607047416859
:101F600041F4004141607047016841F001010160A6
:101F700070470000F0B505460C4600212846FFF7E3
:101F800005FF6E68288B20F0700020F00300278882
:101F9000074321890022284600F048F9608820B1D3
:101FA00000212846FFF7F8FE03E000212846FFF74E
:101FB000EDFE1148854202D01048854217D1618953
:101FC0000022284600F029F9A08820B100212846E7
:101FD000FFF7EEFE03E000212846FFF7E3FE26F4BC
:101FE000807020F40070A1890143E6890E436E6081
:101FF0002F83E0886863F0BD002C0140003401406D
:10200000028B22F008020A4302837047F0B50546AE
:102010000C4604212846FFF7B9FE6E68288B20F491
:10202000E04020F4407021884FF6FF7202EA012759
:10203000074321890422284600F0F8F8608820B17F
:1020400004212846FFF7A8FE03E004212846FFF7F5
:102050009DFE1248854202D01148854219D16189FE
:102060000422284600F0D9F8A08820B1042128468F
:10207000FFF79EFE03E004212846FFF793FE26F4B7
:10208000806020F40060A18940EA8100E18940EA93
:1020900081066E602F83E088A863F0BD002C0140AC
:1020A00000340140028B22F400624FF6FF7303EA12
:1020B0000121114301837047F0B505460C46082104
:1020C0002846FFF763FE6E68E86980B220F0700072
:1020D00020F003002788074321890822284600F0C2
:1020E000A5F8608820B108212846FFF755FE03E0D7
:1020F00008212846FFF74AFE1248854202D01248BE
:10210000854219D161890822284600F086F8A08806
:1021100020B108212846FFF74BFE03E0082128469E
:10212000FFF740FE26F4805020F40050A18940EAD9
:102130000110E18940EA01166E60EF61E088E86312
:10214000F0BD0000002C014000340140C26992B291
:1021500022F008020A43C26170470000F0B505464C
:102160000C460C212846FFF711FE6E68E86980B224
:1021700020F4E04020F4407021884FF6FF7202EA1C
:102180000127074321890C22284600F04FF8608878
:1021900020B10C212846FFF7FFFD03E00C21284663
:1021A000FFF7F4FD154885421AD161890C222846B3
:1021B00000F033F8A08820B10C212846FFF7F8FD85
:1021C00003E00C212846FFF7EDFD26F4804020F4C3
:1021D0000030A18940EA8110E18940EA012607E048
:1021E0000748854204D126F48040A18940EA81163F
:1021F0006E60EF61E0882864F0BD0000002C0140B3
:1022000000340140C26992B222F400624FF6FF73BB
:1022100003EA01211143C161704710B5036A082424
:102220009440A34391401943016210BD10B5036A65
:1022300002249440A34391401943016210BD000061
:102240004268034B1A40426042680A43426070474A
:102250008FFFFFFE30F8441FC1F30E01018070476D
:1022600030F8441F41F4004101807047016821F4B7
:10227000003101607047016841F40031016070472E
:102280001549884202D1C014FFF70AB9B0F1804F56
:1022900005D01249884205D10220FFF7EFB801208E
:1022A000FFF7ECB80E49884202D10420FFF7E6B8E8
:1022B0000C49884202D10820FFF7E0B80A49884259
:1022C00002D11020FFF7DAB80849884202D1401441
:1022D000FFF7E6B870470000002C01400004004002
:1022E00000080040000C0040001000400034014095
:1022F00003480168002902D00168491E0160704747
:1023000008000020FEE702E008C8121F08C1002AEA
:10231000FAD170477047002001E001C1121F002A66
:10232000FBD17047FFF7F4F9FEE7FEF7B7BE0000F8
:102330000000010203040102030406070809010268
:102340000406080A0C102020202020202020010054
:1023500002000400060008000A000C001000200023
:1023600040008000000100010001000100010000A8
:102370009023000800000020380000000623000819
:10238000C82300083800002040140000162300086D
:10239000020000000020A107000000000000000073
:1023A000000000000000000000000000000000002D
:1023B00000000000000000000040060000000000D7
:0823C000000000000000000015
:0400000508000115D9
:00000001FF
